{
  "_format": "hh-sol-artifact-1",
  "contractName": "Escrow",
  "sourceName": "contracts/Escrow.sol",
  "abi": [
    {
      "inputs": [
        {
          "internalType": "uint8",
          "name": "_agentFeePercentage",
          "type": "uint8"
        }
      ],
      "stateMutability": "nonpayable",
      "type": "constructor"
    },
    {
      "anonymous": false,
      "inputs": [
        {
          "indexed": false,
          "internalType": "address",
          "name": "newAgent",
          "type": "address"
        }
      ],
      "name": "AgentAdded",
      "type": "event"
    },
    {
      "anonymous": false,
      "inputs": [
        {
          "indexed": false,
          "internalType": "uint8",
          "name": "newAgentFeePercentage",
          "type": "uint8"
        }
      ],
      "name": "AgentFeePercentageUpdated",
      "type": "event"
    },
    {
      "anonymous": false,
      "inputs": [
        {
          "indexed": false,
          "internalType": "address",
          "name": "newAgent",
          "type": "address"
        }
      ],
      "name": "AgentRevoked",
      "type": "event"
    },
    {
      "anonymous": false,
      "inputs": [
        {
          "indexed": false,
          "internalType": "uint256",
          "name": "escrowId",
          "type": "uint256"
        },
        {
          "indexed": false,
          "internalType": "uint256",
          "name": "timestamp",
          "type": "uint256"
        }
      ],
      "name": "EscrowApproved",
      "type": "event"
    },
    {
      "anonymous": false,
      "inputs": [
        {
          "indexed": false,
          "internalType": "uint256",
          "name": "escrowId",
          "type": "uint256"
        },
        {
          "indexed": false,
          "internalType": "uint256",
          "name": "timestamp",
          "type": "uint256"
        }
      ],
      "name": "EscrowArchived",
      "type": "event"
    },
    {
      "anonymous": false,
      "inputs": [
        {
          "indexed": false,
          "internalType": "uint256",
          "name": "escrowId",
          "type": "uint256"
        },
        {
          "indexed": false,
          "internalType": "uint256",
          "name": "timestamp",
          "type": "uint256"
        }
      ],
      "name": "EscrowCanceled",
      "type": "event"
    },
    {
      "anonymous": false,
      "inputs": [
        {
          "components": [
            {
              "internalType": "uint256",
              "name": "id",
              "type": "uint256"
            },
            {
              "internalType": "address",
              "name": "buyer",
              "type": "address"
            },
            {
              "internalType": "address",
              "name": "seller",
              "type": "address"
            },
            {
              "internalType": "uint256",
              "name": "amount",
              "type": "uint256"
            },
            {
              "internalType": "enum Escrow.EscrowStatus",
              "name": "status",
              "type": "uint8"
            },
            {
              "internalType": "uint8",
              "name": "agentFeePercentage",
              "type": "uint8"
            },
            {
              "internalType": "uint256",
              "name": "createdAt",
              "type": "uint256"
            },
            {
              "internalType": "uint256",
              "name": "updatedAt",
              "type": "uint256"
            }
          ],
          "indexed": false,
          "internalType": "struct Escrow.EscrowDocument",
          "name": "escrowDocument",
          "type": "tuple"
        }
      ],
      "name": "EscrowInitiated",
      "type": "event"
    },
    {
      "anonymous": false,
      "inputs": [
        {
          "indexed": false,
          "internalType": "uint256",
          "name": "escrowId",
          "type": "uint256"
        },
        {
          "indexed": false,
          "internalType": "uint256",
          "name": "timestamp",
          "type": "uint256"
        }
      ],
      "name": "EscrowPaid",
      "type": "event"
    },
    {
      "anonymous": false,
      "inputs": [
        {
          "indexed": false,
          "internalType": "uint256",
          "name": "amount",
          "type": "uint256"
        }
      ],
      "name": "FundsWithdrawn",
      "type": "event"
    },
    {
      "anonymous": false,
      "inputs": [
        {
          "indexed": true,
          "internalType": "address",
          "name": "previousOwner",
          "type": "address"
        },
        {
          "indexed": true,
          "internalType": "address",
          "name": "newOwner",
          "type": "address"
        }
      ],
      "name": "OwnershipTransferred",
      "type": "event"
    },
    {
      "anonymous": false,
      "inputs": [
        {
          "indexed": true,
          "internalType": "bytes32",
          "name": "role",
          "type": "bytes32"
        },
        {
          "indexed": true,
          "internalType": "bytes32",
          "name": "previousAdminRole",
          "type": "bytes32"
        },
        {
          "indexed": true,
          "internalType": "bytes32",
          "name": "newAdminRole",
          "type": "bytes32"
        }
      ],
      "name": "RoleAdminChanged",
      "type": "event"
    },
    {
      "anonymous": false,
      "inputs": [
        {
          "indexed": true,
          "internalType": "bytes32",
          "name": "role",
          "type": "bytes32"
        },
        {
          "indexed": true,
          "internalType": "address",
          "name": "account",
          "type": "address"
        },
        {
          "indexed": true,
          "internalType": "address",
          "name": "sender",
          "type": "address"
        }
      ],
      "name": "RoleGranted",
      "type": "event"
    },
    {
      "anonymous": false,
      "inputs": [
        {
          "indexed": true,
          "internalType": "bytes32",
          "name": "role",
          "type": "bytes32"
        },
        {
          "indexed": true,
          "internalType": "address",
          "name": "account",
          "type": "address"
        },
        {
          "indexed": true,
          "internalType": "address",
          "name": "sender",
          "type": "address"
        }
      ],
      "name": "RoleRevoked",
      "type": "event"
    },
    {
      "inputs": [],
      "name": "AGENT_ROLE",
      "outputs": [
        {
          "internalType": "bytes32",
          "name": "",
          "type": "bytes32"
        }
      ],
      "stateMutability": "view",
      "type": "function"
    },
    {
      "inputs": [
        {
          "internalType": "uint256",
          "name": "_escrowId",
          "type": "uint256"
        }
      ],
      "name": "ApproveEscrow",
      "outputs": [],
      "stateMutability": "nonpayable",
      "type": "function"
    },
    {
      "inputs": [],
      "name": "DEFAULT_ADMIN_ROLE",
      "outputs": [
        {
          "internalType": "bytes32",
          "name": "",
          "type": "bytes32"
        }
      ],
      "stateMutability": "view",
      "type": "function"
    },
    {
      "inputs": [
        {
          "internalType": "address",
          "name": "_agent",
          "type": "address"
        }
      ],
      "name": "addAgent",
      "outputs": [],
      "stateMutability": "nonpayable",
      "type": "function"
    },
    {
      "inputs": [],
      "name": "agentFeePercentage",
      "outputs": [
        {
          "internalType": "uint8",
          "name": "",
          "type": "uint8"
        }
      ],
      "stateMutability": "view",
      "type": "function"
    },
    {
      "inputs": [
        {
          "internalType": "uint256",
          "name": "_escrowId",
          "type": "uint256"
        }
      ],
      "name": "archiveEscrow",
      "outputs": [],
      "stateMutability": "nonpayable",
      "type": "function"
    },
    {
      "inputs": [
        {
          "internalType": "uint256",
          "name": "_escrowId",
          "type": "uint256"
        }
      ],
      "name": "cancelEscrow",
      "outputs": [],
      "stateMutability": "nonpayable",
      "type": "function"
    },
    {
      "inputs": [
        {
          "internalType": "uint8",
          "name": "_newFeePercentage",
          "type": "uint8"
        }
      ],
      "name": "changeAgentFeePercentage",
      "outputs": [],
      "stateMutability": "nonpayable",
      "type": "function"
    },
    {
      "inputs": [
        {
          "internalType": "uint256",
          "name": "_escrowId",
          "type": "uint256"
        }
      ],
      "name": "depositEscrow",
      "outputs": [],
      "stateMutability": "payable",
      "type": "function"
    },
    {
      "inputs": [],
      "name": "getAllEscrows",
      "outputs": [
        {
          "components": [
            {
              "internalType": "uint256",
              "name": "id",
              "type": "uint256"
            },
            {
              "internalType": "address",
              "name": "buyer",
              "type": "address"
            },
            {
              "internalType": "address",
              "name": "seller",
              "type": "address"
            },
            {
              "internalType": "uint256",
              "name": "amount",
              "type": "uint256"
            },
            {
              "internalType": "enum Escrow.EscrowStatus",
              "name": "status",
              "type": "uint8"
            },
            {
              "internalType": "uint8",
              "name": "agentFeePercentage",
              "type": "uint8"
            },
            {
              "internalType": "uint256",
              "name": "createdAt",
              "type": "uint256"
            },
            {
              "internalType": "uint256",
              "name": "updatedAt",
              "type": "uint256"
            }
          ],
          "internalType": "struct Escrow.EscrowDocument[]",
          "name": "",
          "type": "tuple[]"
        }
      ],
      "stateMutability": "view",
      "type": "function"
    },
    {
      "inputs": [
        {
          "internalType": "uint256",
          "name": "_escrowId",
          "type": "uint256"
        }
      ],
      "name": "getEscrowById",
      "outputs": [
        {
          "components": [
            {
              "internalType": "uint256",
              "name": "id",
              "type": "uint256"
            },
            {
              "internalType": "address",
              "name": "buyer",
              "type": "address"
            },
            {
              "internalType": "address",
              "name": "seller",
              "type": "address"
            },
            {
              "internalType": "uint256",
              "name": "amount",
              "type": "uint256"
            },
            {
              "internalType": "enum Escrow.EscrowStatus",
              "name": "status",
              "type": "uint8"
            },
            {
              "internalType": "uint8",
              "name": "agentFeePercentage",
              "type": "uint8"
            },
            {
              "internalType": "uint256",
              "name": "createdAt",
              "type": "uint256"
            },
            {
              "internalType": "uint256",
              "name": "updatedAt",
              "type": "uint256"
            }
          ],
          "internalType": "struct Escrow.EscrowDocument",
          "name": "",
          "type": "tuple"
        }
      ],
      "stateMutability": "view",
      "type": "function"
    },
    {
      "inputs": [
        {
          "internalType": "bytes32",
          "name": "role",
          "type": "bytes32"
        }
      ],
      "name": "getRoleAdmin",
      "outputs": [
        {
          "internalType": "bytes32",
          "name": "",
          "type": "bytes32"
        }
      ],
      "stateMutability": "view",
      "type": "function"
    },
    {
      "inputs": [
        {
          "internalType": "bytes32",
          "name": "role",
          "type": "bytes32"
        },
        {
          "internalType": "address",
          "name": "account",
          "type": "address"
        }
      ],
      "name": "grantRole",
      "outputs": [],
      "stateMutability": "nonpayable",
      "type": "function"
    },
    {
      "inputs": [
        {
          "internalType": "bytes32",
          "name": "role",
          "type": "bytes32"
        },
        {
          "internalType": "address",
          "name": "account",
          "type": "address"
        }
      ],
      "name": "hasRole",
      "outputs": [
        {
          "internalType": "bool",
          "name": "",
          "type": "bool"
        }
      ],
      "stateMutability": "view",
      "type": "function"
    },
    {
      "inputs": [
        {
          "internalType": "address",
          "name": "_buyer",
          "type": "address"
        },
        {
          "internalType": "address",
          "name": "_seller",
          "type": "address"
        },
        {
          "internalType": "uint256",
          "name": "_amount",
          "type": "uint256"
        }
      ],
      "name": "initiateEscrow",
      "outputs": [],
      "stateMutability": "nonpayable",
      "type": "function"
    },
    {
      "inputs": [],
      "name": "owner",
      "outputs": [
        {
          "internalType": "address",
          "name": "",
          "type": "address"
        }
      ],
      "stateMutability": "view",
      "type": "function"
    },
    {
      "inputs": [],
      "name": "renounceOwnership",
      "outputs": [],
      "stateMutability": "nonpayable",
      "type": "function"
    },
    {
      "inputs": [
        {
          "internalType": "bytes32",
          "name": "role",
          "type": "bytes32"
        },
        {
          "internalType": "address",
          "name": "account",
          "type": "address"
        }
      ],
      "name": "renounceRole",
      "outputs": [],
      "stateMutability": "nonpayable",
      "type": "function"
    },
    {
      "inputs": [
        {
          "internalType": "address",
          "name": "_agent",
          "type": "address"
        }
      ],
      "name": "revokeAgent",
      "outputs": [],
      "stateMutability": "nonpayable",
      "type": "function"
    },
    {
      "inputs": [
        {
          "internalType": "bytes32",
          "name": "role",
          "type": "bytes32"
        },
        {
          "internalType": "address",
          "name": "account",
          "type": "address"
        }
      ],
      "name": "revokeRole",
      "outputs": [],
      "stateMutability": "nonpayable",
      "type": "function"
    },
    {
      "inputs": [
        {
          "internalType": "bytes4",
          "name": "interfaceId",
          "type": "bytes4"
        }
      ],
      "name": "supportsInterface",
      "outputs": [
        {
          "internalType": "bool",
          "name": "",
          "type": "bool"
        }
      ],
      "stateMutability": "view",
      "type": "function"
    },
    {
      "inputs": [
        {
          "internalType": "address",
          "name": "newOwner",
          "type": "address"
        }
      ],
      "name": "transferOwnership",
      "outputs": [],
      "stateMutability": "nonpayable",
      "type": "function"
    },
    {
      "inputs": [
        {
          "internalType": "uint256",
          "name": "_amount",
          "type": "uint256"
        }
      ],
      "name": "withdrawFunds",
      "outputs": [],
      "stateMutability": "nonpayable",
      "type": "function"
    },
    {
      "inputs": [],
      "name": "withdrawableFunds",
      "outputs": [
        {
          "internalType": "uint256",
          "name": "",
          "type": "uint256"
        }
      ],
      "stateMutability": "view",
      "type": "function"
    }
  ],
  "bytecode": "0x60806040523480156200001157600080fd5b5060405162003aec38038062003aec833981810160405281019062000037919062000702565b620000576200004b620000c860201b60201c565b620000d060201b60201c565b6001600281905550620000746000801b336200019460201b60201c565b620000a67fcab5a0bfe0b79d2c4b1c2e02599fa044d115b7511f9659307cb427695096770933620001aa60201b60201c565b80600360006101000a81548160ff021916908360ff1602179055505062000b16565b600033905090565b60008060009054906101000a900473ffffffffffffffffffffffffffffffffffffffff169050816000806101000a81548173ffffffffffffffffffffffffffffffffffffffff021916908373ffffffffffffffffffffffffffffffffffffffff1602179055508173ffffffffffffffffffffffffffffffffffffffff168173ffffffffffffffffffffffffffffffffffffffff167f8be0079c531659141344cd1fd0a4f28419497f9722a3daafe3b4186f6b6457e060405160405180910390a35050565b620001a68282620001e360201b60201c565b5050565b620001bb82620002d460201b60201c565b620001cc81620002f460201b60201c565b620001de8383620001e360201b60201c565b505050565b620001f582826200031860201b60201c565b620002d057600180600084815260200190815260200160002060000160008373ffffffffffffffffffffffffffffffffffffffff1673ffffffffffffffffffffffffffffffffffffffff16815260200190815260200160002060006101000a81548160ff02191690831515021790555062000275620000c860201b60201c565b73ffffffffffffffffffffffffffffffffffffffff168173ffffffffffffffffffffffffffffffffffffffff16837f2f8788117e7eff1d82e926ec794901d17c78024a50270940304540a733656f0d60405160405180910390a45b5050565b600060016000838152602001908152602001600020600101549050919050565b620003158162000309620000c860201b60201c565b6200038360201b60201c565b50565b60006001600084815260200190815260200160002060000160008373ffffffffffffffffffffffffffffffffffffffff1673ffffffffffffffffffffffffffffffffffffffff16815260200190815260200160002060009054906101000a900460ff16905092915050565b6200039582826200031860201b60201c565b6200042b57620003b0816200042f60201b6200170b1760201c565b620003cb8360001c60206200046460201b620017381760201c565b604051602001620003de92919062000857565b6040516020818303038152906040526040517f08c379a0000000000000000000000000000000000000000000000000000000008152600401620004229190620008fc565b60405180910390fd5b5050565b60606200045d8273ffffffffffffffffffffffffffffffffffffffff16601460ff166200046460201b60201c565b9050919050565b60606000600283600262000479919062000959565b620004859190620009ba565b67ffffffffffffffff811115620004a157620004a062000a17565b5b6040519080825280601f01601f191660200182016040528015620004d45781602001600182028036833780820191505090505b5090507f3000000000000000000000000000000000000000000000000000000000000000816000815181106200050f576200050e62000a46565b5b60200101907effffffffffffffffffffffffffffffffffffffffffffffffffffffffffffff1916908160001a9053507f78000000000000000000000000000000000000000000000000000000000000008160018151811062000576576200057562000a46565b5b60200101907effffffffffffffffffffffffffffffffffffffffffffffffffffffffffffff1916908160001a90535060006001846002620005b8919062000959565b620005c49190620009ba565b90505b60018111156200066e577f3031323334353637383961626364656600000000000000000000000000000000600f8616601081106200060a576200060962000a46565b5b1a60f81b82828151811062000624576200062362000a46565b5b60200101907effffffffffffffffffffffffffffffffffffffffffffffffffffffffffffff1916908160001a905350600485901c945080620006669062000a75565b9050620005c7565b5060008414620006b5576040517f08c379a0000000000000000000000000000000000000000000000000000000008152600401620006ac9062000af4565b60405180910390fd5b8091505092915050565b600080fd5b600060ff82169050919050565b620006dc81620006c4565b8114620006e857600080fd5b50565b600081519050620006fc81620006d1565b92915050565b6000602082840312156200071b576200071a620006bf565b5b60006200072b84828501620006eb565b91505092915050565b600081905092915050565b7f416363657373436f6e74726f6c3a206163636f756e7420000000000000000000600082015250565b60006200077760178362000734565b915062000784826200073f565b601782019050919050565b600081519050919050565b60005b83811015620007ba5780820151818401526020810190506200079d565b83811115620007ca576000848401525b50505050565b6000620007dd826200078f565b620007e9818562000734565b9350620007fb8185602086016200079a565b80840191505092915050565b7f206973206d697373696e6720726f6c6520000000000000000000000000000000600082015250565b60006200083f60118362000734565b91506200084c8262000807565b601182019050919050565b6000620008648262000768565b9150620008728285620007d0565b91506200087f8262000830565b91506200088d8284620007d0565b91508190509392505050565b600082825260208201905092915050565b6000601f19601f8301169050919050565b6000620008c8826200078f565b620008d4818562000899565b9350620008e68185602086016200079a565b620008f181620008aa565b840191505092915050565b60006020820190508181036000830152620009188184620008bb565b905092915050565b6000819050919050565b7f4e487b7100000000000000000000000000000000000000000000000000000000600052601160045260246000fd5b6000620009668262000920565b9150620009738362000920565b9250817fffffffffffffffffffffffffffffffffffffffffffffffffffffffffffffffff0483118215151615620009af57620009ae6200092a565b5b828202905092915050565b6000620009c78262000920565b9150620009d48362000920565b9250827fffffffffffffffffffffffffffffffffffffffffffffffffffffffffffffffff0382111562000a0c5762000a0b6200092a565b5b828201905092915050565b7f4e487b7100000000000000000000000000000000000000000000000000000000600052604160045260246000fd5b7f4e487b7100000000000000000000000000000000000000000000000000000000600052603260045260246000fd5b600062000a828262000920565b9150600082141562000a995762000a986200092a565b5b600182039050919050565b7f537472696e67733a20686578206c656e67746820696e73756666696369656e74600082015250565b600062000adc60208362000899565b915062000ae98262000aa4565b602082019050919050565b6000602082019050818103600083015262000b0f8162000acd565b9050919050565b612fc68062000b266000396000f3fe60806040526004361061014b5760003560e01c806384e79842116100b6578063cb991efe1161006f578063cb991efe1461047a578063d547741f14610496578063df55ab59146104bf578063e0182436146104e8578063e617ea5c14610511578063f2fde38b1461053c5761014b565b806384e798421461036a5780638da5cb5b1461039357806391d14854146103be57806398189539146103fb5780639a6ac36f14610424578063a217fddf1461044f5761014b565b806336568abe1161010857806336568abe14610284578063398ab773146102ad57806369e36beb146102d6578063715018a61461030157806378b95442146103185780637da6ac0d146103415761014b565b806301ffc9a714610150578063155dd5ee1461018d57806320ca0418146101b657806322459e18146101f3578063248a9ca31461021e5780632f2ff15d1461025b575b600080fd5b34801561015c57600080fd5b5061017760048036038101906101729190611ebe565b610565565b6040516101849190611f06565b60405180910390f35b34801561019957600080fd5b506101b460048036038101906101af9190611f57565b6105df565b005b3480156101c257600080fd5b506101dd60048036038101906101d89190611f57565b610703565b6040516101ea9190612109565b60405180910390f35b3480156101ff57600080fd5b5061020861086c565b604051610215919061213e565b60405180910390f35b34801561022a57600080fd5b5061024560048036038101906102409190612185565b610890565b604051610252919061213e565b60405180910390f35b34801561026757600080fd5b50610282600480360381019061027d91906121de565b6108b0565b005b34801561029057600080fd5b506102ab60048036038101906102a691906121de565b6108d1565b005b3480156102b957600080fd5b506102d460048036038101906102cf9190611f57565b610954565b005b3480156102e257600080fd5b506102eb610aa0565b6040516102f8919061222d565b60405180910390f35b34801561030d57600080fd5b50610316610ab3565b005b34801561032457600080fd5b5061033f600480360381019061033a9190611f57565b610ac7565b005b34801561034d57600080fd5b5061036860048036038101906103639190612248565b610cd4565b005b34801561037657600080fd5b50610391600480360381019061038c9190612248565b610d40565b005b34801561039f57600080fd5b506103a8610dac565b6040516103b59190612284565b60405180910390f35b3480156103ca57600080fd5b506103e560048036038101906103e091906121de565b610dd5565b6040516103f29190611f06565b60405180910390f35b34801561040757600080fd5b50610422600480360381019061041d91906122cb565b610e40565b005b34801561043057600080fd5b50610439610e9d565b604051610446919061244a565b60405180910390f35b34801561045b57600080fd5b50610464611029565b604051610471919061213e565b60405180910390f35b610494600480360381019061048f9190611f57565b611030565b005b3480156104a257600080fd5b506104bd60048036038101906104b891906121de565b611264565b005b3480156104cb57600080fd5b506104e660048036038101906104e1919061246c565b611285565b005b3480156104f457600080fd5b5061050f600480360381019061050a9190611f57565b6114c6565b005b34801561051d57600080fd5b50610526611681565b60405161053391906124ce565b60405180910390f35b34801561054857600080fd5b50610563600480360381019061055e9190612248565b611687565b005b60007f7965db0b000000000000000000000000000000000000000000000000000000007bffffffffffffffffffffffffffffffffffffffffffffffffffffffff1916827bffffffffffffffffffffffffffffffffffffffffffffffffffffffff191614806105d857506105d782611974565b5b9050919050565b6105e76119de565b4781111561062a576040517f08c379a00000000000000000000000000000000000000000000000000000000081526004016106219061256c565b60405180910390fd5b60045481111561066f576040517f08c379a0000000000000000000000000000000000000000000000000000000008152600401610666906125fe565b60405180910390fd5b610677610dac565b73ffffffffffffffffffffffffffffffffffffffff166108fc6004549081150290604051600060405180830381858888f193505050501580156106be573d6000803e3d6000fd5b507f4a37b25aab49761ecf63117fe82b98d750917451133cf797507bc9fb5b96044a6004546040516106f091906124ce565b60405180910390a1600060048190555050565b61070b611ddb565b6005828154811061071f5761071e61261e565b5b906000526020600020906007020160405180610100016040529081600082015481526020016001820160009054906101000a900473ffffffffffffffffffffffffffffffffffffffff1673ffffffffffffffffffffffffffffffffffffffff1673ffffffffffffffffffffffffffffffffffffffff1681526020016002820160009054906101000a900473ffffffffffffffffffffffffffffffffffffffff1673ffffffffffffffffffffffffffffffffffffffff1673ffffffffffffffffffffffffffffffffffffffff168152602001600382015481526020016004820160009054906101000a900460ff16600481111561081e5761081d611fd4565b5b60048111156108305761082f611fd4565b5b81526020016004820160019054906101000a900460ff1660ff1660ff168152602001600582015481526020016006820154815250509050919050565b7fcab5a0bfe0b79d2c4b1c2e02599fa044d115b7511f9659307cb427695096770981565b600060016000838152602001908152602001600020600101549050919050565b6108b982610890565b6108c281611a5c565b6108cc8383611a70565b505050565b6108d9611b50565b73ffffffffffffffffffffffffffffffffffffffff168173ffffffffffffffffffffffffffffffffffffffff1614610946576040517f08c379a000000000000000000000000000000000000000000000000000000000815260040161093d906126bf565b60405180910390fd5b6109508282611b58565b5050565b7fcab5a0bfe0b79d2c4b1c2e02599fa044d115b7511f9659307cb427695096770961097e81611a5c565b610986611c3a565b60006005838154811061099c5761099b61261e565b5b90600052602060002090600702019050600060048111156109c0576109bf611fd4565b5b8160040160009054906101000a900460ff1660048111156109e4576109e3611fd4565b5b14610a24576040517f08c379a0000000000000000000000000000000000000000000000000000000008152600401610a1b9061272b565b60405180910390fd5b60048160040160006101000a81548160ff02191690836004811115610a4c57610a4b611fd4565b5b02179055504281600601819055507ff7f67bfa0cb6f4f063d06fc242568b74a8e5cd03190e3b30a19fc552e0e46cee8342604051610a8b92919061274b565b60405180910390a150610a9c611c88565b5050565b600360009054906101000a900460ff1681565b610abb6119de565b610ac56000611c92565b565b7fcab5a0bfe0b79d2c4b1c2e02599fa044d115b7511f9659307cb4276950967709610af181611a5c565b610af9611c3a565b600060058381548110610b0f57610b0e61261e565b5b9060005260206000209060070201905060016004811115610b3357610b32611fd4565b5b8160040160009054906101000a900460ff166004811115610b5757610b56611fd4565b5b14610b97576040517f08c379a0000000000000000000000000000000000000000000000000000000008152600401610b8e906127c0565b60405180910390fd5b600060648260040160019054906101000a900460ff1660ff168360030154610bbf919061280f565b610bc99190612898565b905060028260040160006101000a81548160ff02191690836004811115610bf357610bf2611fd4565b5b02179055504282600601819055508060046000828254610c1391906128c9565b925050819055508160020160009054906101000a900473ffffffffffffffffffffffffffffffffffffffff1673ffffffffffffffffffffffffffffffffffffffff166108fc83600301549081150290604051600060405180830381858888f19350505050158015610c88573d6000803e3d6000fd5b507f599da1658702c24a94818de06b47dcb625541f89b8d6077f376527447de8aa5e826000015442604051610cbe92919061274b565b60405180910390a15050610cd0611c88565b5050565b610cdc6119de565b610d067fcab5a0bfe0b79d2c4b1c2e02599fa044d115b7511f9659307cb427695096770982611264565b7f1d2ac3af5c639e57ee8f25bc162ea13a1ef8a663c92a4f3e33f126dd2d4feba481604051610d359190612284565b60405180910390a150565b610d486119de565b610d727fcab5a0bfe0b79d2c4b1c2e02599fa044d115b7511f9659307cb4276950967709826108b0565b7ff68e73cec97f2d70aa641fb26e87a4383686e2efacb648f2165aeb02ac562ec581604051610da19190612284565b60405180910390a150565b60008060009054906101000a900473ffffffffffffffffffffffffffffffffffffffff16905090565b60006001600084815260200190815260200160002060000160008373ffffffffffffffffffffffffffffffffffffffff1673ffffffffffffffffffffffffffffffffffffffff16815260200190815260200160002060009054906101000a900460ff16905092915050565b610e486119de565b80600360006101000a81548160ff021916908360ff1602179055507fce7d01952d08f1136c73e6e86104a39c291e9eddec4df66e861482c52656aab681604051610e92919061222d565b60405180910390a150565b60606005805480602002602001604051908101604052809291908181526020016000905b82821015611020578382906000526020600020906007020160405180610100016040529081600082015481526020016001820160009054906101000a900473ffffffffffffffffffffffffffffffffffffffff1673ffffffffffffffffffffffffffffffffffffffff1673ffffffffffffffffffffffffffffffffffffffff1681526020016002820160009054906101000a900473ffffffffffffffffffffffffffffffffffffffff1673ffffffffffffffffffffffffffffffffffffffff1673ffffffffffffffffffffffffffffffffffffffff168152602001600382015481526020016004820160009054906101000a900460ff166004811115610fca57610fc9611fd4565b5b6004811115610fdc57610fdb611fd4565b5b81526020016004820160019054906101000a900460ff1660ff1660ff1681526020016005820154815260200160068201548152505081526020019060010190610ec1565b50505050905090565b6000801b81565b611038611c3a565b60006005828154811061104e5761104d61261e565b5b906000526020600020906007020190503373ffffffffffffffffffffffffffffffffffffffff168160010160009054906101000a900473ffffffffffffffffffffffffffffffffffffffff1673ffffffffffffffffffffffffffffffffffffffff16146110f0576040517f08c379a00000000000000000000000000000000000000000000000000000000081526004016110e790612991565b60405180910390fd5b6000600481111561110457611103611fd4565b5b8160040160009054906101000a900460ff16600481111561112857611127611fd4565b5b14611168576040517f08c379a000000000000000000000000000000000000000000000000000000000815260040161115f906129fd565b60405180910390fd5b34600160648360040160019054906101000a900460ff166111899190612a1d565b6111939190612a4e565b60ff1682600301546111a5919061280f565b146111e5576040517f08c379a00000000000000000000000000000000000000000000000000000000081526004016111dc90612af7565b60405180910390fd5b60018160040160006101000a81548160ff0219169083600481111561120d5761120c611fd4565b5b02179055504281600601819055507f8db6ba856847e4dcb64228091144f21130aca9961181fc4927326d9ee3acfe4381600001544260405161125092919061274b565b60405180910390a150611261611c88565b50565b61126d82610890565b61127681611a5c565b6112808383611b58565b505050565b7fcab5a0bfe0b79d2c4b1c2e02599fa044d115b7511f9659307cb42769509677096112af81611a5c565b6112b7611c3a565b600060405180610100016040528060058054905081526020018673ffffffffffffffffffffffffffffffffffffffff1681526020018573ffffffffffffffffffffffffffffffffffffffff1681526020018481526020016000600481111561132257611321611fd4565b5b8152602001600360009054906101000a900460ff1660ff16815260200142815260200142815250905060058190806001815401808255809150506001900390600052602060002090600702016000909190919091506000820151816000015560208201518160010160006101000a81548173ffffffffffffffffffffffffffffffffffffffff021916908373ffffffffffffffffffffffffffffffffffffffff16021790555060408201518160020160006101000a81548173ffffffffffffffffffffffffffffffffffffffff021916908373ffffffffffffffffffffffffffffffffffffffff1602179055506060820151816003015560808201518160040160006101000a81548160ff0219169083600481111561144457611443611fd4565b5b021790555060a08201518160040160016101000a81548160ff021916908360ff16021790555060c0820151816005015560e0820151816006015550507f6dbcb9125fcd9866eb12f64a316c6060bf8d13e2c611153814791cfccb89a4c4816040516114af9190612109565b60405180910390a1506114c0611c88565b50505050565b7fcab5a0bfe0b79d2c4b1c2e02599fa044d115b7511f9659307cb42769509677096114f081611a5c565b6114f8611c3a565b60006005838154811061150e5761150d61261e565b5b906000526020600020906007020190506001600481111561153257611531611fd4565b5b8160040160009054906101000a900460ff16600481111561155657611555611fd4565b5b14611596576040517f08c379a000000000000000000000000000000000000000000000000000000000815260040161158d90612b89565b60405180910390fd5b60038160040160006101000a81548160ff021916908360048111156115be576115bd611fd4565b5b02179055504281600601819055508060010160009054906101000a900473ffffffffffffffffffffffffffffffffffffffff1673ffffffffffffffffffffffffffffffffffffffff166108fc82600301549081150290604051600060405180830381858888f1935050505015801561163a573d6000803e3d6000fd5b507f912e30bea88d105f456ec136c1d19ce1050ad23b6a9111011bd16455150aed07834260405161166c92919061274b565b60405180910390a15061167d611c88565b5050565b60045481565b61168f6119de565b600073ffffffffffffffffffffffffffffffffffffffff168173ffffffffffffffffffffffffffffffffffffffff1614156116ff576040517f08c379a00000000000000000000000000000000000000000000000000000000081526004016116f690612c1b565b60405180910390fd5b61170881611c92565b50565b60606117318273ffffffffffffffffffffffffffffffffffffffff16601460ff16611738565b9050919050565b60606000600283600261174b919061280f565b61175591906128c9565b67ffffffffffffffff81111561176e5761176d612c3b565b5b6040519080825280601f01601f1916602001820160405280156117a05781602001600182028036833780820191505090505b5090507f3000000000000000000000000000000000000000000000000000000000000000816000815181106117d8576117d761261e565b5b60200101907effffffffffffffffffffffffffffffffffffffffffffffffffffffffffffff1916908160001a9053507f78000000000000000000000000000000000000000000000000000000000000008160018151811061183c5761183b61261e565b5b60200101907effffffffffffffffffffffffffffffffffffffffffffffffffffffffffffff1916908160001a9053506000600184600261187c919061280f565b61188691906128c9565b90505b6001811115611926577f3031323334353637383961626364656600000000000000000000000000000000600f8616601081106118c8576118c761261e565b5b1a60f81b8282815181106118df576118de61261e565b5b60200101907effffffffffffffffffffffffffffffffffffffffffffffffffffffffffffff1916908160001a905350600485901c94508061191f90612c6a565b9050611889565b506000841461196a576040517f08c379a000000000000000000000000000000000000000000000000000000000815260040161196190612ce0565b60405180910390fd5b8091505092915050565b60007f01ffc9a7000000000000000000000000000000000000000000000000000000007bffffffffffffffffffffffffffffffffffffffffffffffffffffffff1916827bffffffffffffffffffffffffffffffffffffffffffffffffffffffff1916149050919050565b6119e6611b50565b73ffffffffffffffffffffffffffffffffffffffff16611a04610dac565b73ffffffffffffffffffffffffffffffffffffffff1614611a5a576040517f08c379a0000000000000000000000000000000000000000000000000000000008152600401611a5190612d4c565b60405180910390fd5b565b611a6d81611a68611b50565b611d56565b50565b611a7a8282610dd5565b611b4c57600180600084815260200190815260200160002060000160008373ffffffffffffffffffffffffffffffffffffffff1673ffffffffffffffffffffffffffffffffffffffff16815260200190815260200160002060006101000a81548160ff021916908315150217905550611af1611b50565b73ffffffffffffffffffffffffffffffffffffffff168173ffffffffffffffffffffffffffffffffffffffff16837f2f8788117e7eff1d82e926ec794901d17c78024a50270940304540a733656f0d60405160405180910390a45b5050565b600033905090565b611b628282610dd5565b15611c365760006001600084815260200190815260200160002060000160008373ffffffffffffffffffffffffffffffffffffffff1673ffffffffffffffffffffffffffffffffffffffff16815260200190815260200160002060006101000a81548160ff021916908315150217905550611bdb611b50565b73ffffffffffffffffffffffffffffffffffffffff168173ffffffffffffffffffffffffffffffffffffffff16837ff6391f5c32d9c69d2a47ea670b442974b53935d1edc7fd64eb21e047a839171b60405160405180910390a45b5050565b600280541415611c7f576040517f08c379a0000000000000000000000000000000000000000000000000000000008152600401611c7690612db8565b60405180910390fd5b60028081905550565b6001600281905550565b60008060009054906101000a900473ffffffffffffffffffffffffffffffffffffffff169050816000806101000a81548173ffffffffffffffffffffffffffffffffffffffff021916908373ffffffffffffffffffffffffffffffffffffffff1602179055508173ffffffffffffffffffffffffffffffffffffffff168173ffffffffffffffffffffffffffffffffffffffff167f8be0079c531659141344cd1fd0a4f28419497f9722a3daafe3b4186f6b6457e060405160405180910390a35050565b611d608282610dd5565b611dd757611d6d8161170b565b611d7b8360001c6020611738565b604051602001611d8c929190612eea565b6040516020818303038152906040526040517f08c379a0000000000000000000000000000000000000000000000000000000008152600401611dce9190612f6e565b60405180910390fd5b5050565b60405180610100016040528060008152602001600073ffffffffffffffffffffffffffffffffffffffff168152602001600073ffffffffffffffffffffffffffffffffffffffff1681526020016000815260200160006004811115611e4357611e42611fd4565b5b8152602001600060ff16815260200160008152602001600081525090565b600080fd5b60007fffffffff0000000000000000000000000000000000000000000000000000000082169050919050565b611e9b81611e66565b8114611ea657600080fd5b50565b600081359050611eb881611e92565b92915050565b600060208284031215611ed457611ed3611e61565b5b6000611ee284828501611ea9565b91505092915050565b60008115159050919050565b611f0081611eeb565b82525050565b6000602082019050611f1b6000830184611ef7565b92915050565b6000819050919050565b611f3481611f21565b8114611f3f57600080fd5b50565b600081359050611f5181611f2b565b92915050565b600060208284031215611f6d57611f6c611e61565b5b6000611f7b84828501611f42565b91505092915050565b611f8d81611f21565b82525050565b600073ffffffffffffffffffffffffffffffffffffffff82169050919050565b6000611fbe82611f93565b9050919050565b611fce81611fb3565b82525050565b7f4e487b7100000000000000000000000000000000000000000000000000000000600052602160045260246000fd5b6005811061201457612013611fd4565b5b50565b600081905061202582612003565b919050565b600061203582612017565b9050919050565b6120458161202a565b82525050565b600060ff82169050919050565b6120618161204b565b82525050565b6101008201600082015161207e6000850182611f84565b5060208201516120916020850182611fc5565b5060408201516120a46040850182611fc5565b5060608201516120b76060850182611f84565b5060808201516120ca608085018261203c565b5060a08201516120dd60a0850182612058565b5060c08201516120f060c0850182611f84565b5060e082015161210360e0850182611f84565b50505050565b60006101008201905061211f6000830184612067565b92915050565b6000819050919050565b61213881612125565b82525050565b6000602082019050612153600083018461212f565b92915050565b61216281612125565b811461216d57600080fd5b50565b60008135905061217f81612159565b92915050565b60006020828403121561219b5761219a611e61565b5b60006121a984828501612170565b91505092915050565b6121bb81611fb3565b81146121c657600080fd5b50565b6000813590506121d8816121b2565b92915050565b600080604083850312156121f5576121f4611e61565b5b600061220385828601612170565b9250506020612214858286016121c9565b9150509250929050565b6122278161204b565b82525050565b6000602082019050612242600083018461221e565b92915050565b60006020828403121561225e5761225d611e61565b5b600061226c848285016121c9565b91505092915050565b61227e81611fb3565b82525050565b60006020820190506122996000830184612275565b92915050565b6122a88161204b565b81146122b357600080fd5b50565b6000813590506122c58161229f565b92915050565b6000602082840312156122e1576122e0611e61565b5b60006122ef848285016122b6565b91505092915050565b600081519050919050565b600082825260208201905092915050565b6000819050602082019050919050565b6101008201600082015161233b6000850182611f84565b50602082015161234e6020850182611fc5565b5060408201516123616040850182611fc5565b5060608201516123746060850182611f84565b506080820151612387608085018261203c565b5060a082015161239a60a0850182612058565b5060c08201516123ad60c0850182611f84565b5060e08201516123c060e0850182611f84565b50505050565b60006123d28383612324565b6101008301905092915050565b6000602082019050919050565b60006123f7826122f8565b6124018185612303565b935061240c83612314565b8060005b8381101561243d57815161242488826123c6565b975061242f836123df565b925050600181019050612410565b5085935050505092915050565b6000602082019050818103600083015261246481846123ec565b905092915050565b60008060006060848603121561248557612484611e61565b5b6000612493868287016121c9565b93505060206124a4868287016121c9565b92505060406124b586828701611f42565b9150509250925092565b6124c881611f21565b82525050565b60006020820190506124e360008301846124bf565b92915050565b600082825260208201905092915050565b7f4e6f7420656e6f7567682045544820746f207769746864726177206f6e20636f60008201527f6e74726163740000000000000000000000000000000000000000000000000000602082015250565b60006125566026836124e9565b9150612561826124fa565b604082019050919050565b6000602082019050818103600083015261258581612549565b9050919050565b7f4e6f7420656e6f7567682045544820696e20776974686472617761626c65206660008201527f756e647300000000000000000000000000000000000000000000000000000000602082015250565b60006125e86024836124e9565b91506125f38261258c565b604082019050919050565b60006020820190508181036000830152612617816125db565b9050919050565b7f4e487b7100000000000000000000000000000000000000000000000000000000600052603260045260246000fd5b7f416363657373436f6e74726f6c3a2063616e206f6e6c792072656e6f756e636560008201527f20726f6c657320666f722073656c660000000000000000000000000000000000602082015250565b60006126a9602f836124e9565b91506126b48261264d565b604082019050919050565b600060208201905081810360008301526126d88161269c565b9050919050565b7f43616e277420617263686976652061637469766520457363726f770000000000600082015250565b6000612715601b836124e9565b9150612720826126df565b602082019050919050565b6000602082019050818103600083015261274481612708565b9050919050565b600060408201905061276060008301856124bf565b61276d60208301846124bf565b9392505050565b7f457363726f772063616e6e6f7420626520617070726f76656400000000000000600082015250565b60006127aa6019836124e9565b91506127b582612774565b602082019050919050565b600060208201905081810360008301526127d98161279d565b9050919050565b7f4e487b7100000000000000000000000000000000000000000000000000000000600052601160045260246000fd5b600061281a82611f21565b915061282583611f21565b9250817fffffffffffffffffffffffffffffffffffffffffffffffffffffffffffffffff048311821515161561285e5761285d6127e0565b5b828202905092915050565b7f4e487b7100000000000000000000000000000000000000000000000000000000600052601260045260246000fd5b60006128a382611f21565b91506128ae83611f21565b9250826128be576128bd612869565b5b828204905092915050565b60006128d482611f21565b91506128df83611f21565b9250827fffffffffffffffffffffffffffffffffffffffffffffffffffffffffffffffff03821115612914576129136127e0565b5b828201905092915050565b7f4f6e6c792062757965722073686f756c64206465706f73697420696e746f206160008201527f6e20657363726f77000000000000000000000000000000000000000000000000602082015250565b600061297b6028836124e9565b91506129868261291f565b604082019050919050565b600060208201905081810360008301526129aa8161296e565b9050919050565b7f457363726f77206973206e6f7420616363657074696e67207061796d656e7473600082015250565b60006129e76020836124e9565b91506129f2826129b1565b602082019050919050565b60006020820190508181036000830152612a16816129da565b9050919050565b6000612a288261204b565b9150612a338361204b565b925082612a4357612a42612869565b5b828204905092915050565b6000612a598261204b565b9150612a648361204b565b92508260ff03821115612a7a57612a796127e0565b5b828201905092915050565b7f4465706f736974206d75737420626520657175616c20746f20616d6f756e742060008201527f696e636c7564696e6720746865206167656e7420666565000000000000000000602082015250565b6000612ae16037836124e9565b9150612aec82612a85565b604082019050919050565b60006020820190508181036000830152612b1081612ad4565b9050919050565b7f596f752063616e206f6e6c792072656a656374206465706f736974656420457360008201527f63726f7700000000000000000000000000000000000000000000000000000000602082015250565b6000612b736024836124e9565b9150612b7e82612b17565b604082019050919050565b60006020820190508181036000830152612ba281612b66565b9050919050565b7f4f776e61626c653a206e6577206f776e657220697320746865207a65726f206160008201527f6464726573730000000000000000000000000000000000000000000000000000602082015250565b6000612c056026836124e9565b9150612c1082612ba9565b604082019050919050565b60006020820190508181036000830152612c3481612bf8565b9050919050565b7f4e487b7100000000000000000000000000000000000000000000000000000000600052604160045260246000fd5b6000612c7582611f21565b91506000821415612c8957612c886127e0565b5b600182039050919050565b7f537472696e67733a20686578206c656e67746820696e73756666696369656e74600082015250565b6000612cca6020836124e9565b9150612cd582612c94565b602082019050919050565b60006020820190508181036000830152612cf981612cbd565b9050919050565b7f4f776e61626c653a2063616c6c6572206973206e6f7420746865206f776e6572600082015250565b6000612d366020836124e9565b9150612d4182612d00565b602082019050919050565b60006020820190508181036000830152612d6581612d29565b9050919050565b7f5265656e7472616e637947756172643a207265656e7472616e742063616c6c00600082015250565b6000612da2601f836124e9565b9150612dad82612d6c565b602082019050919050565b60006020820190508181036000830152612dd181612d95565b9050919050565b600081905092915050565b7f416363657373436f6e74726f6c3a206163636f756e7420000000000000000000600082015250565b6000612e19601783612dd8565b9150612e2482612de3565b601782019050919050565b600081519050919050565b60005b83811015612e58578082015181840152602081019050612e3d565b83811115612e67576000848401525b50505050565b6000612e7882612e2f565b612e828185612dd8565b9350612e92818560208601612e3a565b80840191505092915050565b7f206973206d697373696e6720726f6c6520000000000000000000000000000000600082015250565b6000612ed4601183612dd8565b9150612edf82612e9e565b601182019050919050565b6000612ef582612e0c565b9150612f018285612e6d565b9150612f0c82612ec7565b9150612f188284612e6d565b91508190509392505050565b6000601f19601f8301169050919050565b6000612f4082612e2f565b612f4a81856124e9565b9350612f5a818560208601612e3a565b612f6381612f24565b840191505092915050565b60006020820190508181036000830152612f888184612f35565b90509291505056fea26469706673582212204b31c93a57371a22491d8c0cecf04cfdc0132b589ce5b2ad2716850fc35c53c264736f6c63430008090033",
  "linkReferences": {},
  "deployedLinkReferences": {}
}