{
  "_format": "hh-sol-artifact-1",
  "contractName": "EscrowAgent",
  "sourceName": "contracts/EscrowAgent.sol",
  "abi": [
    {
      "inputs": [
        {
          "internalType": "uint8",
          "name": "_agentFeePercentage",
          "type": "uint8"
        }
      ],
      "stateMutability": "nonpayable",
      "type": "constructor"
    },
    {
      "anonymous": false,
      "inputs": [
        {
          "indexed": false,
          "internalType": "address",
          "name": "newAgent",
          "type": "address"
        }
      ],
      "name": "AgentAdded",
      "type": "event"
    },
    {
      "anonymous": false,
      "inputs": [
        {
          "indexed": false,
          "internalType": "uint8",
          "name": "newAgentFeePercentage",
          "type": "uint8"
        }
      ],
      "name": "AgentFeePercentageUpdated",
      "type": "event"
    },
    {
      "anonymous": false,
      "inputs": [
        {
          "indexed": false,
          "internalType": "address",
          "name": "newAgent",
          "type": "address"
        }
      ],
      "name": "AgentRevoked",
      "type": "event"
    },
    {
      "anonymous": false,
      "inputs": [
        {
          "indexed": false,
          "internalType": "uint256",
          "name": "escrowId",
          "type": "uint256"
        },
        {
          "indexed": false,
          "internalType": "uint256",
          "name": "timestamp",
          "type": "uint256"
        }
      ],
      "name": "EscrowApproved",
      "type": "event"
    },
    {
      "anonymous": false,
      "inputs": [
        {
          "indexed": false,
          "internalType": "uint256",
          "name": "escrowId",
          "type": "uint256"
        },
        {
          "indexed": false,
          "internalType": "uint256",
          "name": "timestamp",
          "type": "uint256"
        }
      ],
      "name": "EscrowArchived",
      "type": "event"
    },
    {
      "anonymous": false,
      "inputs": [
        {
          "indexed": false,
          "internalType": "uint256",
          "name": "escrowId",
          "type": "uint256"
        },
        {
          "indexed": false,
          "internalType": "uint256",
          "name": "timestamp",
          "type": "uint256"
        }
      ],
      "name": "EscrowCanceled",
      "type": "event"
    },
    {
      "anonymous": false,
      "inputs": [
        {
          "components": [
            {
              "internalType": "uint256",
              "name": "id",
              "type": "uint256"
            },
            {
              "internalType": "address",
              "name": "buyer",
              "type": "address"
            },
            {
              "internalType": "address",
              "name": "seller",
              "type": "address"
            },
            {
              "internalType": "uint256",
              "name": "amount",
              "type": "uint256"
            },
            {
              "internalType": "enum EscrowBase.EscrowStatus",
              "name": "status",
              "type": "uint8"
            },
            {
              "internalType": "uint8",
              "name": "agentFeePercentage",
              "type": "uint8"
            },
            {
              "internalType": "uint256",
              "name": "createdAt",
              "type": "uint256"
            },
            {
              "internalType": "uint256",
              "name": "updatedAt",
              "type": "uint256"
            }
          ],
          "indexed": false,
          "internalType": "struct EscrowBase.EscrowDocument",
          "name": "escrowDocument",
          "type": "tuple"
        }
      ],
      "name": "EscrowInitiated",
      "type": "event"
    },
    {
      "anonymous": false,
      "inputs": [
        {
          "indexed": false,
          "internalType": "uint256",
          "name": "escrowId",
          "type": "uint256"
        },
        {
          "indexed": false,
          "internalType": "uint256",
          "name": "timestamp",
          "type": "uint256"
        }
      ],
      "name": "EscrowPaid",
      "type": "event"
    },
    {
      "anonymous": false,
      "inputs": [
        {
          "indexed": false,
          "internalType": "uint256",
          "name": "amount",
          "type": "uint256"
        }
      ],
      "name": "FundsWithdrawn",
      "type": "event"
    },
    {
      "anonymous": false,
      "inputs": [
        {
          "indexed": true,
          "internalType": "address",
          "name": "previousOwner",
          "type": "address"
        },
        {
          "indexed": true,
          "internalType": "address",
          "name": "newOwner",
          "type": "address"
        }
      ],
      "name": "OwnershipTransferred",
      "type": "event"
    },
    {
      "anonymous": false,
      "inputs": [
        {
          "indexed": true,
          "internalType": "bytes32",
          "name": "role",
          "type": "bytes32"
        },
        {
          "indexed": true,
          "internalType": "bytes32",
          "name": "previousAdminRole",
          "type": "bytes32"
        },
        {
          "indexed": true,
          "internalType": "bytes32",
          "name": "newAdminRole",
          "type": "bytes32"
        }
      ],
      "name": "RoleAdminChanged",
      "type": "event"
    },
    {
      "anonymous": false,
      "inputs": [
        {
          "indexed": true,
          "internalType": "bytes32",
          "name": "role",
          "type": "bytes32"
        },
        {
          "indexed": true,
          "internalType": "address",
          "name": "account",
          "type": "address"
        },
        {
          "indexed": true,
          "internalType": "address",
          "name": "sender",
          "type": "address"
        }
      ],
      "name": "RoleGranted",
      "type": "event"
    },
    {
      "anonymous": false,
      "inputs": [
        {
          "indexed": true,
          "internalType": "bytes32",
          "name": "role",
          "type": "bytes32"
        },
        {
          "indexed": true,
          "internalType": "address",
          "name": "account",
          "type": "address"
        },
        {
          "indexed": true,
          "internalType": "address",
          "name": "sender",
          "type": "address"
        }
      ],
      "name": "RoleRevoked",
      "type": "event"
    },
    {
      "inputs": [],
      "name": "AGENT_ROLE",
      "outputs": [
        {
          "internalType": "bytes32",
          "name": "",
          "type": "bytes32"
        }
      ],
      "stateMutability": "view",
      "type": "function"
    },
    {
      "inputs": [
        {
          "internalType": "uint256",
          "name": "_escrowId",
          "type": "uint256"
        }
      ],
      "name": "ApproveEscrow",
      "outputs": [],
      "stateMutability": "nonpayable",
      "type": "function"
    },
    {
      "inputs": [],
      "name": "DEFAULT_ADMIN_ROLE",
      "outputs": [
        {
          "internalType": "bytes32",
          "name": "",
          "type": "bytes32"
        }
      ],
      "stateMutability": "view",
      "type": "function"
    },
    {
      "inputs": [
        {
          "internalType": "address",
          "name": "_agent",
          "type": "address"
        }
      ],
      "name": "addAgent",
      "outputs": [],
      "stateMutability": "nonpayable",
      "type": "function"
    },
    {
      "inputs": [],
      "name": "agentFeePercentage",
      "outputs": [
        {
          "internalType": "uint8",
          "name": "",
          "type": "uint8"
        }
      ],
      "stateMutability": "view",
      "type": "function"
    },
    {
      "inputs": [
        {
          "internalType": "uint256",
          "name": "",
          "type": "uint256"
        }
      ],
      "name": "agentWaitlist",
      "outputs": [
        {
          "internalType": "address",
          "name": "",
          "type": "address"
        }
      ],
      "stateMutability": "view",
      "type": "function"
    },
    {
      "inputs": [
        {
          "internalType": "uint256",
          "name": "",
          "type": "uint256"
        }
      ],
      "name": "agents",
      "outputs": [
        {
          "internalType": "address",
          "name": "",
          "type": "address"
        }
      ],
      "stateMutability": "view",
      "type": "function"
    },
    {
      "inputs": [],
      "name": "applyForAgent",
      "outputs": [],
      "stateMutability": "nonpayable",
      "type": "function"
    },
    {
      "inputs": [
        {
          "internalType": "uint256",
          "name": "_escrowId",
          "type": "uint256"
        }
      ],
      "name": "archiveEscrow",
      "outputs": [],
      "stateMutability": "nonpayable",
      "type": "function"
    },
    {
      "inputs": [
        {
          "internalType": "uint256",
          "name": "_escrowId",
          "type": "uint256"
        }
      ],
      "name": "cancelEscrow",
      "outputs": [],
      "stateMutability": "nonpayable",
      "type": "function"
    },
    {
      "inputs": [
        {
          "internalType": "uint8",
          "name": "_newFeePercentage",
          "type": "uint8"
        }
      ],
      "name": "changeAgentFeePercentage",
      "outputs": [],
      "stateMutability": "nonpayable",
      "type": "function"
    },
    {
      "inputs": [
        {
          "internalType": "uint256",
          "name": "_escrowId",
          "type": "uint256"
        }
      ],
      "name": "depositEscrow",
      "outputs": [],
      "stateMutability": "payable",
      "type": "function"
    },
    {
      "inputs": [],
      "name": "getAgents",
      "outputs": [
        {
          "internalType": "address[]",
          "name": "",
          "type": "address[]"
        }
      ],
      "stateMutability": "view",
      "type": "function"
    },
    {
      "inputs": [],
      "name": "getAgentsWaitlist",
      "outputs": [
        {
          "internalType": "address[]",
          "name": "",
          "type": "address[]"
        }
      ],
      "stateMutability": "view",
      "type": "function"
    },
    {
      "inputs": [],
      "name": "getAllEscrows",
      "outputs": [
        {
          "components": [
            {
              "internalType": "uint256",
              "name": "id",
              "type": "uint256"
            },
            {
              "internalType": "address",
              "name": "buyer",
              "type": "address"
            },
            {
              "internalType": "address",
              "name": "seller",
              "type": "address"
            },
            {
              "internalType": "uint256",
              "name": "amount",
              "type": "uint256"
            },
            {
              "internalType": "enum EscrowBase.EscrowStatus",
              "name": "status",
              "type": "uint8"
            },
            {
              "internalType": "uint8",
              "name": "agentFeePercentage",
              "type": "uint8"
            },
            {
              "internalType": "uint256",
              "name": "createdAt",
              "type": "uint256"
            },
            {
              "internalType": "uint256",
              "name": "updatedAt",
              "type": "uint256"
            }
          ],
          "internalType": "struct EscrowBase.EscrowDocument[]",
          "name": "",
          "type": "tuple[]"
        }
      ],
      "stateMutability": "view",
      "type": "function"
    },
    {
      "inputs": [
        {
          "internalType": "uint256",
          "name": "_escrowId",
          "type": "uint256"
        }
      ],
      "name": "getEscrowById",
      "outputs": [
        {
          "components": [
            {
              "internalType": "uint256",
              "name": "id",
              "type": "uint256"
            },
            {
              "internalType": "address",
              "name": "buyer",
              "type": "address"
            },
            {
              "internalType": "address",
              "name": "seller",
              "type": "address"
            },
            {
              "internalType": "uint256",
              "name": "amount",
              "type": "uint256"
            },
            {
              "internalType": "enum EscrowBase.EscrowStatus",
              "name": "status",
              "type": "uint8"
            },
            {
              "internalType": "uint8",
              "name": "agentFeePercentage",
              "type": "uint8"
            },
            {
              "internalType": "uint256",
              "name": "createdAt",
              "type": "uint256"
            },
            {
              "internalType": "uint256",
              "name": "updatedAt",
              "type": "uint256"
            }
          ],
          "internalType": "struct EscrowBase.EscrowDocument",
          "name": "",
          "type": "tuple"
        }
      ],
      "stateMutability": "view",
      "type": "function"
    },
    {
      "inputs": [
        {
          "internalType": "bytes32",
          "name": "role",
          "type": "bytes32"
        }
      ],
      "name": "getRoleAdmin",
      "outputs": [
        {
          "internalType": "bytes32",
          "name": "",
          "type": "bytes32"
        }
      ],
      "stateMutability": "view",
      "type": "function"
    },
    {
      "inputs": [
        {
          "internalType": "bytes32",
          "name": "role",
          "type": "bytes32"
        },
        {
          "internalType": "address",
          "name": "account",
          "type": "address"
        }
      ],
      "name": "grantRole",
      "outputs": [],
      "stateMutability": "nonpayable",
      "type": "function"
    },
    {
      "inputs": [
        {
          "internalType": "bytes32",
          "name": "role",
          "type": "bytes32"
        },
        {
          "internalType": "address",
          "name": "account",
          "type": "address"
        }
      ],
      "name": "hasRole",
      "outputs": [
        {
          "internalType": "bool",
          "name": "",
          "type": "bool"
        }
      ],
      "stateMutability": "view",
      "type": "function"
    },
    {
      "inputs": [
        {
          "internalType": "address",
          "name": "_buyer",
          "type": "address"
        },
        {
          "internalType": "address",
          "name": "_seller",
          "type": "address"
        },
        {
          "internalType": "uint256",
          "name": "_amount",
          "type": "uint256"
        }
      ],
      "name": "initiateEscrow",
      "outputs": [],
      "stateMutability": "nonpayable",
      "type": "function"
    },
    {
      "inputs": [],
      "name": "owner",
      "outputs": [
        {
          "internalType": "address",
          "name": "",
          "type": "address"
        }
      ],
      "stateMutability": "view",
      "type": "function"
    },
    {
      "inputs": [],
      "name": "renounceOwnership",
      "outputs": [],
      "stateMutability": "nonpayable",
      "type": "function"
    },
    {
      "inputs": [
        {
          "internalType": "bytes32",
          "name": "role",
          "type": "bytes32"
        },
        {
          "internalType": "address",
          "name": "account",
          "type": "address"
        }
      ],
      "name": "renounceRole",
      "outputs": [],
      "stateMutability": "nonpayable",
      "type": "function"
    },
    {
      "inputs": [
        {
          "internalType": "address",
          "name": "_agent",
          "type": "address"
        }
      ],
      "name": "revokeAgent",
      "outputs": [],
      "stateMutability": "nonpayable",
      "type": "function"
    },
    {
      "inputs": [
        {
          "internalType": "bytes32",
          "name": "role",
          "type": "bytes32"
        },
        {
          "internalType": "address",
          "name": "account",
          "type": "address"
        }
      ],
      "name": "revokeRole",
      "outputs": [],
      "stateMutability": "nonpayable",
      "type": "function"
    },
    {
      "inputs": [
        {
          "internalType": "bytes4",
          "name": "interfaceId",
          "type": "bytes4"
        }
      ],
      "name": "supportsInterface",
      "outputs": [
        {
          "internalType": "bool",
          "name": "",
          "type": "bool"
        }
      ],
      "stateMutability": "view",
      "type": "function"
    },
    {
      "inputs": [
        {
          "internalType": "address",
          "name": "newOwner",
          "type": "address"
        }
      ],
      "name": "transferOwnership",
      "outputs": [],
      "stateMutability": "nonpayable",
      "type": "function"
    },
    {
      "inputs": [
        {
          "internalType": "uint256",
          "name": "_amount",
          "type": "uint256"
        }
      ],
      "name": "withdrawFunds",
      "outputs": [],
      "stateMutability": "nonpayable",
      "type": "function"
    },
    {
      "inputs": [],
      "name": "withdrawableFunds",
      "outputs": [
        {
          "internalType": "uint256",
          "name": "",
          "type": "uint256"
        }
      ],
      "stateMutability": "view",
      "type": "function"
    }
  ],
  "bytecode": "0x60806040523480156200001157600080fd5b5060405162004d5c38038062004d5c8339818101604052810190620000379190620006ec565b620000576200004b620000c860201b60201c565b620000d060201b60201c565b6001600281905550620000746000801b336200019460201b60201c565b620000a67fcab5a0bfe0b79d2c4b1c2e02599fa044d115b7511f9659307cb4276950967709336200028560201b60201c565b80600360006101000a81548160ff021916908360ff1602179055505062000b00565b600033905090565b60008060009054906101000a900473ffffffffffffffffffffffffffffffffffffffff169050816000806101000a81548173ffffffffffffffffffffffffffffffffffffffff021916908373ffffffffffffffffffffffffffffffffffffffff1602179055508173ffffffffffffffffffffffffffffffffffffffff168173ffffffffffffffffffffffffffffffffffffffff167f8be0079c531659141344cd1fd0a4f28419497f9722a3daafe3b4186f6b6457e060405160405180910390a35050565b620001a68282620002be60201b60201c565b6200028157600180600084815260200190815260200160002060000160008373ffffffffffffffffffffffffffffffffffffffff1673ffffffffffffffffffffffffffffffffffffffff16815260200190815260200160002060006101000a81548160ff02191690831515021790555062000226620000c860201b60201c565b73ffffffffffffffffffffffffffffffffffffffff168173ffffffffffffffffffffffffffffffffffffffff16837f2f8788117e7eff1d82e926ec794901d17c78024a50270940304540a733656f0d60405160405180910390a45b5050565b62000296826200032960201b60201c565b620002a7816200034960201b60201c565b620002b983836200019460201b60201c565b505050565b60006001600084815260200190815260200160002060000160008373ffffffffffffffffffffffffffffffffffffffff1673ffffffffffffffffffffffffffffffffffffffff16815260200190815260200160002060009054906101000a900460ff16905092915050565b600060016000838152602001908152602001600020600101549050919050565b6200036a816200035e620000c860201b60201c565b6200036d60201b60201c565b50565b6200037f8282620002be60201b60201c565b62000415576200039a816200041960201b620024b41760201c565b620003b58360001c60206200044e60201b620024e11760201c565b604051602001620003c892919062000841565b6040516020818303038152906040526040517f08c379a00000000000000000000000000000000000000000000000000000000081526004016200040c9190620008e6565b60405180910390fd5b5050565b6060620004478273ffffffffffffffffffffffffffffffffffffffff16601460ff166200044e60201b60201c565b9050919050565b60606000600283600262000463919062000943565b6200046f9190620009a4565b67ffffffffffffffff8111156200048b576200048a62000a01565b5b6040519080825280601f01601f191660200182016040528015620004be5781602001600182028036833780820191505090505b5090507f300000000000000000000000000000000000000000000000000000000000000081600081518110620004f957620004f862000a30565b5b60200101907effffffffffffffffffffffffffffffffffffffffffffffffffffffffffffff1916908160001a9053507f78000000000000000000000000000000000000000000000000000000000000008160018151811062000560576200055f62000a30565b5b60200101907effffffffffffffffffffffffffffffffffffffffffffffffffffffffffffff1916908160001a90535060006001846002620005a2919062000943565b620005ae9190620009a4565b90505b600181111562000658577f3031323334353637383961626364656600000000000000000000000000000000600f861660108110620005f457620005f362000a30565b5b1a60f81b8282815181106200060e576200060d62000a30565b5b60200101907effffffffffffffffffffffffffffffffffffffffffffffffffffffffffffff1916908160001a905350600485901c945080620006509062000a5f565b9050620005b1565b50600084146200069f576040517f08c379a0000000000000000000000000000000000000000000000000000000008152600401620006969062000ade565b60405180910390fd5b8091505092915050565b600080fd5b600060ff82169050919050565b620006c681620006ae565b8114620006d257600080fd5b50565b600081519050620006e681620006bb565b92915050565b600060208284031215620007055762000704620006a9565b5b60006200071584828501620006d5565b91505092915050565b600081905092915050565b7f416363657373436f6e74726f6c3a206163636f756e7420000000000000000000600082015250565b6000620007616017836200071e565b91506200076e8262000729565b601782019050919050565b600081519050919050565b60005b83811015620007a457808201518184015260208101905062000787565b83811115620007b4576000848401525b50505050565b6000620007c78262000779565b620007d381856200071e565b9350620007e581856020860162000784565b80840191505092915050565b7f206973206d697373696e6720726f6c6520000000000000000000000000000000600082015250565b6000620008296011836200071e565b91506200083682620007f1565b601182019050919050565b60006200084e8262000752565b91506200085c8285620007ba565b915062000869826200081a565b9150620008778284620007ba565b91508190509392505050565b600082825260208201905092915050565b6000601f19601f8301169050919050565b6000620008b28262000779565b620008be818562000883565b9350620008d081856020860162000784565b620008db8162000894565b840191505092915050565b60006020820190508181036000830152620009028184620008a5565b905092915050565b6000819050919050565b7f4e487b7100000000000000000000000000000000000000000000000000000000600052601160045260246000fd5b600062000950826200090a565b91506200095d836200090a565b9250817fffffffffffffffffffffffffffffffffffffffffffffffffffffffffffffffff048311821515161562000999576200099862000914565b5b828202905092915050565b6000620009b1826200090a565b9150620009be836200090a565b9250827fffffffffffffffffffffffffffffffffffffffffffffffffffffffffffffffff03821115620009f657620009f562000914565b5b828201905092915050565b7f4e487b7100000000000000000000000000000000000000000000000000000000600052604160045260246000fd5b7f4e487b7100000000000000000000000000000000000000000000000000000000600052603260045260246000fd5b600062000a6c826200090a565b9150600082141562000a835762000a8262000914565b5b600182039050919050565b7f537472696e67733a20686578206c656e67746820696e73756666696369656e74600082015250565b600062000ac660208362000883565b915062000ad38262000a8e565b602082019050919050565b6000602082019050818103600083015262000af98162000ab7565b9050919050565b61424c8062000b106000396000f3fe6080604052600436106101c25760003560e01c806378b95442116100f7578063a217fddf11610095578063e018243611610064578063e01824361461061b578063e617ea5c14610644578063eac3fda41461066f578063f2fde38b1461069a576101c2565b8063a217fddf14610582578063cb991efe146105ad578063d547741f146105c9578063df55ab59146105f2576101c2565b80638da5cb5b116100d15780638da5cb5b146104c657806391d14854146104f1578063981895391461052e5780639a6ac36f14610557576101c2565b806378b954421461044b5780637da6ac0d1461047457806384e798421461049d576101c2565b80632f2ff15d11610164578063513856c81161013e578063513856c8146103a157806369e36beb146103de5780636b7a553a14610409578063715018a614610434576101c2565b80632f2ff15d1461032657806336568abe1461034f578063398ab77314610378576101c2565b806320ca0418116101a057806320ca04181461026a57806322459e18146102a7578063248a9ca3146102d25780632aef40d61461030f576101c2565b806301ffc9a7146101c75780630e7b2c0e14610204578063155dd5ee14610241575b600080fd5b3480156101d357600080fd5b506101ee60048036038101906101e99190612cef565b6106c3565b6040516101fb9190612d37565b60405180910390f35b34801561021057600080fd5b5061022b60048036038101906102269190612d88565b61073d565b6040516102389190612df6565b60405180910390f35b34801561024d57600080fd5b5061026860048036038101906102639190612d88565b61077c565b005b34801561027657600080fd5b50610291600480360381019061028c9190612d88565b6108a0565b60405161029e9190612f64565b60405180910390f35b3480156102b357600080fd5b506102bc610a09565b6040516102c99190612f99565b60405180910390f35b3480156102de57600080fd5b506102f960048036038101906102f49190612fe0565b610a2d565b6040516103069190612f99565b60405180910390f35b34801561031b57600080fd5b50610324610a4d565b005b34801561033257600080fd5b5061034d60048036038101906103489190613039565b610cd8565b005b34801561035b57600080fd5b5061037660048036038101906103719190613039565b610cf9565b005b34801561038457600080fd5b5061039f600480360381019061039a9190612d88565b610d7c565b005b3480156103ad57600080fd5b506103c860048036038101906103c39190612d88565b610ec8565b6040516103d59190612df6565b60405180910390f35b3480156103ea57600080fd5b506103f3610f07565b6040516104009190613088565b60405180910390f35b34801561041557600080fd5b5061041e610f1a565b60405161042b9190613152565b60405180910390f35b34801561044057600080fd5b50610449610fa8565b005b34801561045757600080fd5b50610472600480360381019061046d9190612d88565b610fbc565b005b34801561048057600080fd5b5061049b60048036038101906104969190613174565b6111c9565b005b3480156104a957600080fd5b506104c460048036038101906104bf9190613174565b6113bf565b005b3480156104d257600080fd5b506104db61177e565b6040516104e89190612df6565b60405180910390f35b3480156104fd57600080fd5b5061051860048036038101906105139190613039565b6117a7565b6040516105259190612d37565b60405180910390f35b34801561053a57600080fd5b50610555600480360381019061055091906131cd565b611812565b005b34801561056357600080fd5b5061056c61186f565b604051610579919061334c565b60405180910390f35b34801561058e57600080fd5b506105976119fb565b6040516105a49190612f99565b60405180910390f35b6105c760048036038101906105c29190612d88565b611a02565b005b3480156105d557600080fd5b506105f060048036038101906105eb9190613039565b611c3f565b005b3480156105fe57600080fd5b506106196004803603810190610614919061336e565b611c60565b005b34801561062757600080fd5b50610642600480360381019061063d9190612d88565b6121e1565b005b34801561065057600080fd5b5061065961239c565b60405161066691906133d0565b60405180910390f35b34801561067b57600080fd5b506106846123a2565b6040516106919190613152565b60405180910390f35b3480156106a657600080fd5b506106c160048036038101906106bc9190613174565b612430565b005b60007f7965db0b000000000000000000000000000000000000000000000000000000007bffffffffffffffffffffffffffffffffffffffffffffffffffffffff1916827bffffffffffffffffffffffffffffffffffffffffffffffffffffffff1916148061073657506107358261271d565b5b9050919050565b6005818154811061074d57600080fd5b906000526020600020016000915054906101000a900473ffffffffffffffffffffffffffffffffffffffff1681565b610784612787565b478111156107c7576040517f08c379a00000000000000000000000000000000000000000000000000000000081526004016107be9061346e565b60405180910390fd5b60045481111561080c576040517f08c379a000000000000000000000000000000000000000000000000000000000815260040161080390613500565b60405180910390fd5b61081461177e565b73ffffffffffffffffffffffffffffffffffffffff166108fc6004549081150290604051600060405180830381858888f1935050505015801561085b573d6000803e3d6000fd5b507f4a37b25aab49761ecf63117fe82b98d750917451133cf797507bc9fb5b96044a60045460405161088d91906133d0565b60405180910390a1600060048190555050565b6108a8612c0c565b600782815481106108bc576108bb613520565b5b906000526020600020906007020160405180610100016040529081600082015481526020016001820160009054906101000a900473ffffffffffffffffffffffffffffffffffffffff1673ffffffffffffffffffffffffffffffffffffffff1673ffffffffffffffffffffffffffffffffffffffff1681526020016002820160009054906101000a900473ffffffffffffffffffffffffffffffffffffffff1673ffffffffffffffffffffffffffffffffffffffff1673ffffffffffffffffffffffffffffffffffffffff168152602001600382015481526020016004820160009054906101000a900460ff1660048111156109bb576109ba612e2f565b5b60048111156109cd576109cc612e2f565b5b81526020016004820160019054906101000a900460ff1660ff1660ff168152602001600582015481526020016006820154815250509050919050565b7fcab5a0bfe0b79d2c4b1c2e02599fa044d115b7511f9659307cb427695096770981565b600060016000838152602001908152602001600020600101549050919050565b610a55612805565b610a5d61177e565b73ffffffffffffffffffffffffffffffffffffffff163373ffffffffffffffffffffffffffffffffffffffff161415610acb576040517f08c379a0000000000000000000000000000000000000000000000000000000008152600401610ac2906135c1565b60405180910390fd5b610b5b6005805480602002602001604051908101604052809291908181526020018280548015610b5057602002820191906000526020600020905b8160009054906101000a900473ffffffffffffffffffffffffffffffffffffffff1673ffffffffffffffffffffffffffffffffffffffff1681526020019060010190808311610b06575b505050505033612853565b15610b9b576040517f08c379a0000000000000000000000000000000000000000000000000000000008152600401610b9290613653565b60405180910390fd5b610c2b6006805480602002602001604051908101604052809291908181526020018280548015610c2057602002820191906000526020600020905b8160009054906101000a900473ffffffffffffffffffffffffffffffffffffffff1673ffffffffffffffffffffffffffffffffffffffff1681526020019060010190808311610bd6575b505050505033612853565b15610c6b576040517f08c379a0000000000000000000000000000000000000000000000000000000008152600401610c62906136bf565b60405180910390fd5b6005339080600181540180825580915050600190039060005260206000200160009091909190916101000a81548173ffffffffffffffffffffffffffffffffffffffff021916908373ffffffffffffffffffffffffffffffffffffffff160217905550610cd66128db565b565b610ce182610a2d565b610cea816128e5565b610cf483836128f9565b505050565b610d016129d9565b73ffffffffffffffffffffffffffffffffffffffff168173ffffffffffffffffffffffffffffffffffffffff1614610d6e576040517f08c379a0000000000000000000000000000000000000000000000000000000008152600401610d6590613751565b60405180910390fd5b610d7882826129e1565b5050565b7fcab5a0bfe0b79d2c4b1c2e02599fa044d115b7511f9659307cb4276950967709610da6816128e5565b610dae612805565b600060078381548110610dc457610dc3613520565b5b9060005260206000209060070201905060006004811115610de857610de7612e2f565b5b8160040160009054906101000a900460ff166004811115610e0c57610e0b612e2f565b5b14610e4c576040517f08c379a0000000000000000000000000000000000000000000000000000000008152600401610e43906137bd565b60405180910390fd5b60048160040160006101000a81548160ff02191690836004811115610e7457610e73612e2f565b5b02179055504281600601819055507ff7f67bfa0cb6f4f063d06fc242568b74a8e5cd03190e3b30a19fc552e0e46cee8342604051610eb39291906137dd565b60405180910390a150610ec46128db565b5050565b60068181548110610ed857600080fd5b906000526020600020016000915054906101000a900473ffffffffffffffffffffffffffffffffffffffff1681565b600360009054906101000a900460ff1681565b60606005805480602002602001604051908101604052809291908181526020018280548015610f9e57602002820191906000526020600020905b8160009054906101000a900473ffffffffffffffffffffffffffffffffffffffff1673ffffffffffffffffffffffffffffffffffffffff1681526020019060010190808311610f54575b5050505050905090565b610fb0612787565b610fba6000612ac3565b565b7fcab5a0bfe0b79d2c4b1c2e02599fa044d115b7511f9659307cb4276950967709610fe6816128e5565b610fee612805565b60006007838154811061100457611003613520565b5b906000526020600020906007020190506001600481111561102857611027612e2f565b5b8160040160009054906101000a900460ff16600481111561104c5761104b612e2f565b5b1461108c576040517f08c379a000000000000000000000000000000000000000000000000000000000815260040161108390613852565b60405180910390fd5b600060648260040160019054906101000a900460ff1660ff1683600301546110b491906138a1565b6110be919061392a565b905060028260040160006101000a81548160ff021916908360048111156110e8576110e7612e2f565b5b02179055504282600601819055508060046000828254611108919061395b565b925050819055508160020160009054906101000a900473ffffffffffffffffffffffffffffffffffffffff1673ffffffffffffffffffffffffffffffffffffffff166108fc83600301549081150290604051600060405180830381858888f1935050505015801561117d573d6000803e3d6000fd5b507f599da1658702c24a94818de06b47dcb625541f89b8d6077f376527447de8aa5e8260000154426040516111b39291906137dd565b60405180910390a150506111c56128db565b5050565b6111d1612787565b6111fb7fcab5a0bfe0b79d2c4b1c2e02599fa044d115b7511f9659307cb427695096770982611c3f565b60005b600680549050811015611384578173ffffffffffffffffffffffffffffffffffffffff166006828154811061123657611235613520565b5b9060005260206000200160009054906101000a900473ffffffffffffffffffffffffffffffffffffffff1673ffffffffffffffffffffffffffffffffffffffff161415611371576006600160068054905061129191906139b1565b815481106112a2576112a1613520565b5b9060005260206000200160009054906101000a900473ffffffffffffffffffffffffffffffffffffffff16600682815481106112e1576112e0613520565b5b9060005260206000200160006101000a81548173ffffffffffffffffffffffffffffffffffffffff021916908373ffffffffffffffffffffffffffffffffffffffff160217905550600680548061133b5761133a6139e5565b5b6001900381819060005260206000200160006101000a81549073ffffffffffffffffffffffffffffffffffffffff021916905590555b808061137c90613a14565b9150506111fe565b507f1d2ac3af5c639e57ee8f25bc162ea13a1ef8a663c92a4f3e33f126dd2d4feba4816040516113b49190612df6565b60405180910390a150565b6113c7612787565b611457600680548060200260200160405190810160405280929190818152602001828054801561144c57602002820191906000526020600020905b8160009054906101000a900473ffffffffffffffffffffffffffffffffffffffff1673ffffffffffffffffffffffffffffffffffffffff1681526020019060010190808311611402575b505050505082612853565b15611497576040517f08c379a000000000000000000000000000000000000000000000000000000000815260040161148e906136bf565b60405180910390fd5b611527600580548060200260200160405190810160405280929190818152602001828054801561151c57602002820191906000526020600020905b8160009054906101000a900473ffffffffffffffffffffffffffffffffffffffff1673ffffffffffffffffffffffffffffffffffffffff16815260200190600101908083116114d2575b505050505082612853565b156116b75760005b6005805490508110156116b5578173ffffffffffffffffffffffffffffffffffffffff166005828154811061156757611566613520565b5b9060005260206000200160009054906101000a900473ffffffffffffffffffffffffffffffffffffffff1673ffffffffffffffffffffffffffffffffffffffff1614156116a257600560016005805490506115c291906139b1565b815481106115d3576115d2613520565b5b9060005260206000200160009054906101000a900473ffffffffffffffffffffffffffffffffffffffff166005828154811061161257611611613520565b5b9060005260206000200160006101000a81548173ffffffffffffffffffffffffffffffffffffffff021916908373ffffffffffffffffffffffffffffffffffffffff160217905550600580548061166c5761166b6139e5565b5b6001900381819060005260206000200160006101000a81549073ffffffffffffffffffffffffffffffffffffffff021916905590555b80806116ad90613a14565b91505061152f565b505b6116e17fcab5a0bfe0b79d2c4b1c2e02599fa044d115b7511f9659307cb427695096770982610cd8565b6006819080600181540180825580915050600190039060005260206000200160009091909190916101000a81548173ffffffffffffffffffffffffffffffffffffffff021916908373ffffffffffffffffffffffffffffffffffffffff1602179055507ff68e73cec97f2d70aa641fb26e87a4383686e2efacb648f2165aeb02ac562ec5816040516117739190612df6565b60405180910390a150565b60008060009054906101000a900473ffffffffffffffffffffffffffffffffffffffff16905090565b60006001600084815260200190815260200160002060000160008373ffffffffffffffffffffffffffffffffffffffff1673ffffffffffffffffffffffffffffffffffffffff16815260200190815260200160002060009054906101000a900460ff16905092915050565b61181a612787565b80600360006101000a81548160ff021916908360ff1602179055507fce7d01952d08f1136c73e6e86104a39c291e9eddec4df66e861482c52656aab6816040516118649190613088565b60405180910390a150565b60606007805480602002602001604051908101604052809291908181526020016000905b828210156119f2578382906000526020600020906007020160405180610100016040529081600082015481526020016001820160009054906101000a900473ffffffffffffffffffffffffffffffffffffffff1673ffffffffffffffffffffffffffffffffffffffff1673ffffffffffffffffffffffffffffffffffffffff1681526020016002820160009054906101000a900473ffffffffffffffffffffffffffffffffffffffff1673ffffffffffffffffffffffffffffffffffffffff1673ffffffffffffffffffffffffffffffffffffffff168152602001600382015481526020016004820160009054906101000a900460ff16600481111561199c5761199b612e2f565b5b60048111156119ae576119ad612e2f565b5b81526020016004820160019054906101000a900460ff1660ff1660ff1681526020016005820154815260200160068201548152505081526020019060010190611893565b50505050905090565b6000801b81565b611a0a612805565b600060078281548110611a2057611a1f613520565b5b906000526020600020906007020190503373ffffffffffffffffffffffffffffffffffffffff168160010160009054906101000a900473ffffffffffffffffffffffffffffffffffffffff1673ffffffffffffffffffffffffffffffffffffffff1614611ac2576040517f08c379a0000000000000000000000000000000000000000000000000000000008152600401611ab990613acf565b60405180910390fd5b60006004811115611ad657611ad5612e2f565b5b8160040160009054906101000a900460ff166004811115611afa57611af9612e2f565b5b14611b3a576040517f08c379a0000000000000000000000000000000000000000000000000000000008152600401611b3190613b3b565b60405180910390fd5b600060648260040160019054906101000a900460ff1660ff168360030154611b6291906138a1565b611b6c919061392a565b905034818360030154611b7f919061395b565b14611bbf576040517f08c379a0000000000000000000000000000000000000000000000000000000008152600401611bb690613bcd565b60405180910390fd5b60018260040160006101000a81548160ff02191690836004811115611be757611be6612e2f565b5b02179055504282600601819055507f8db6ba856847e4dcb64228091144f21130aca9961181fc4927326d9ee3acfe43826000015442604051611c2a9291906137dd565b60405180910390a15050611c3c6128db565b50565b611c4882610a2d565b611c51816128e5565b611c5b83836129e1565b505050565b7fcab5a0bfe0b79d2c4b1c2e02599fa044d115b7511f9659307cb4276950967709611c8a816128e5565b611c92612805565b611d226006805480602002602001604051908101604052809291908181526020018280548015611d1757602002820191906000526020600020905b8160009054906101000a900473ffffffffffffffffffffffffffffffffffffffff1673ffffffffffffffffffffffffffffffffffffffff1681526020019060010190808311611ccd575b505050505085612853565b15611d62576040517f08c379a0000000000000000000000000000000000000000000000000000000008152600401611d5990613c39565b60405180910390fd5b611df26006805480602002602001604051908101604052809291908181526020018280548015611de757602002820191906000526020600020905b8160009054906101000a900473ffffffffffffffffffffffffffffffffffffffff1673ffffffffffffffffffffffffffffffffffffffff1681526020019060010190808311611d9d575b505050505084612853565b15611e32576040517f08c379a0000000000000000000000000000000000000000000000000000000008152600401611e2990613ca5565b60405180910390fd5b611ec26005805480602002602001604051908101604052809291908181526020018280548015611eb757602002820191906000526020600020905b8160009054906101000a900473ffffffffffffffffffffffffffffffffffffffff1673ffffffffffffffffffffffffffffffffffffffff1681526020019060010190808311611e6d575b505050505085612853565b15611f02576040517f08c379a0000000000000000000000000000000000000000000000000000000008152600401611ef990613d11565b60405180910390fd5b611f926005805480602002602001604051908101604052809291908181526020018280548015611f8757602002820191906000526020600020905b8160009054906101000a900473ffffffffffffffffffffffffffffffffffffffff1673ffffffffffffffffffffffffffffffffffffffff1681526020019060010190808311611f3d575b505050505084612853565b15611fd2576040517f08c379a0000000000000000000000000000000000000000000000000000000008152600401611fc990613d7d565b60405180910390fd5b600060405180610100016040528060078054905081526020018673ffffffffffffffffffffffffffffffffffffffff1681526020018573ffffffffffffffffffffffffffffffffffffffff1681526020018481526020016000600481111561203d5761203c612e2f565b5b8152602001600360009054906101000a900460ff1660ff16815260200142815260200142815250905060078190806001815401808255809150506001900390600052602060002090600702016000909190919091506000820151816000015560208201518160010160006101000a81548173ffffffffffffffffffffffffffffffffffffffff021916908373ffffffffffffffffffffffffffffffffffffffff16021790555060408201518160020160006101000a81548173ffffffffffffffffffffffffffffffffffffffff021916908373ffffffffffffffffffffffffffffffffffffffff1602179055506060820151816003015560808201518160040160006101000a81548160ff0219169083600481111561215f5761215e612e2f565b5b021790555060a08201518160040160016101000a81548160ff021916908360ff16021790555060c0820151816005015560e0820151816006015550507f6dbcb9125fcd9866eb12f64a316c6060bf8d13e2c611153814791cfccb89a4c4816040516121ca9190612f64565b60405180910390a1506121db6128db565b50505050565b7fcab5a0bfe0b79d2c4b1c2e02599fa044d115b7511f9659307cb427695096770961220b816128e5565b612213612805565b60006007838154811061222957612228613520565b5b906000526020600020906007020190506001600481111561224d5761224c612e2f565b5b8160040160009054906101000a900460ff16600481111561227157612270612e2f565b5b146122b1576040517f08c379a00000000000000000000000000000000000000000000000000000000081526004016122a890613e0f565b60405180910390fd5b60038160040160006101000a81548160ff021916908360048111156122d9576122d8612e2f565b5b02179055504281600601819055508060010160009054906101000a900473ffffffffffffffffffffffffffffffffffffffff1673ffffffffffffffffffffffffffffffffffffffff166108fc82600301549081150290604051600060405180830381858888f19350505050158015612355573d6000803e3d6000fd5b507f912e30bea88d105f456ec136c1d19ce1050ad23b6a9111011bd16455150aed0783426040516123879291906137dd565b60405180910390a1506123986128db565b5050565b60045481565b6060600680548060200260200160405190810160405280929190818152602001828054801561242657602002820191906000526020600020905b8160009054906101000a900473ffffffffffffffffffffffffffffffffffffffff1673ffffffffffffffffffffffffffffffffffffffff16815260200190600101908083116123dc575b5050505050905090565b612438612787565b600073ffffffffffffffffffffffffffffffffffffffff168173ffffffffffffffffffffffffffffffffffffffff1614156124a8576040517f08c379a000000000000000000000000000000000000000000000000000000000815260040161249f90613ea1565b60405180910390fd5b6124b181612ac3565b50565b60606124da8273ffffffffffffffffffffffffffffffffffffffff16601460ff166124e1565b9050919050565b6060600060028360026124f491906138a1565b6124fe919061395b565b67ffffffffffffffff81111561251757612516613ec1565b5b6040519080825280601f01601f1916602001820160405280156125495781602001600182028036833780820191505090505b5090507f30000000000000000000000000000000000000000000000000000000000000008160008151811061258157612580613520565b5b60200101907effffffffffffffffffffffffffffffffffffffffffffffffffffffffffffff1916908160001a9053507f7800000000000000000000000000000000000000000000000000000000000000816001815181106125e5576125e4613520565b5b60200101907effffffffffffffffffffffffffffffffffffffffffffffffffffffffffffff1916908160001a9053506000600184600261262591906138a1565b61262f919061395b565b90505b60018111156126cf577f3031323334353637383961626364656600000000000000000000000000000000600f86166010811061267157612670613520565b5b1a60f81b82828151811061268857612687613520565b5b60200101907effffffffffffffffffffffffffffffffffffffffffffffffffffffffffffff1916908160001a905350600485901c9450806126c890613ef0565b9050612632565b5060008414612713576040517f08c379a000000000000000000000000000000000000000000000000000000000815260040161270a90613f66565b60405180910390fd5b8091505092915050565b60007f01ffc9a7000000000000000000000000000000000000000000000000000000007bffffffffffffffffffffffffffffffffffffffffffffffffffffffff1916827bffffffffffffffffffffffffffffffffffffffffffffffffffffffff1916149050919050565b61278f6129d9565b73ffffffffffffffffffffffffffffffffffffffff166127ad61177e565b73ffffffffffffffffffffffffffffffffffffffff1614612803576040517f08c379a00000000000000000000000000000000000000000000000000000000081526004016127fa90613fd2565b60405180910390fd5b565b60028054141561284a576040517f08c379a00000000000000000000000000000000000000000000000000000000081526004016128419061403e565b60405180910390fd5b60028081905550565b600080600090505b83518110156128cf578273ffffffffffffffffffffffffffffffffffffffff1684828151811061288e5761288d613520565b5b602002602001015173ffffffffffffffffffffffffffffffffffffffff1614156128bc5760019150506128d5565b80806128c790613a14565b91505061285b565b50600090505b92915050565b6001600281905550565b6128f6816128f16129d9565b612b87565b50565b61290382826117a7565b6129d557600180600084815260200190815260200160002060000160008373ffffffffffffffffffffffffffffffffffffffff1673ffffffffffffffffffffffffffffffffffffffff16815260200190815260200160002060006101000a81548160ff02191690831515021790555061297a6129d9565b73ffffffffffffffffffffffffffffffffffffffff168173ffffffffffffffffffffffffffffffffffffffff16837f2f8788117e7eff1d82e926ec794901d17c78024a50270940304540a733656f0d60405160405180910390a45b5050565b600033905090565b6129eb82826117a7565b15612abf5760006001600084815260200190815260200160002060000160008373ffffffffffffffffffffffffffffffffffffffff1673ffffffffffffffffffffffffffffffffffffffff16815260200190815260200160002060006101000a81548160ff021916908315150217905550612a646129d9565b73ffffffffffffffffffffffffffffffffffffffff168173ffffffffffffffffffffffffffffffffffffffff16837ff6391f5c32d9c69d2a47ea670b442974b53935d1edc7fd64eb21e047a839171b60405160405180910390a45b5050565b60008060009054906101000a900473ffffffffffffffffffffffffffffffffffffffff169050816000806101000a81548173ffffffffffffffffffffffffffffffffffffffff021916908373ffffffffffffffffffffffffffffffffffffffff1602179055508173ffffffffffffffffffffffffffffffffffffffff168173ffffffffffffffffffffffffffffffffffffffff167f8be0079c531659141344cd1fd0a4f28419497f9722a3daafe3b4186f6b6457e060405160405180910390a35050565b612b9182826117a7565b612c0857612b9e816124b4565b612bac8360001c60206124e1565b604051602001612bbd929190614170565b6040516020818303038152906040526040517f08c379a0000000000000000000000000000000000000000000000000000000008152600401612bff91906141f4565b60405180910390fd5b5050565b60405180610100016040528060008152602001600073ffffffffffffffffffffffffffffffffffffffff168152602001600073ffffffffffffffffffffffffffffffffffffffff1681526020016000815260200160006004811115612c7457612c73612e2f565b5b8152602001600060ff16815260200160008152602001600081525090565b600080fd5b60007fffffffff0000000000000000000000000000000000000000000000000000000082169050919050565b612ccc81612c97565b8114612cd757600080fd5b50565b600081359050612ce981612cc3565b92915050565b600060208284031215612d0557612d04612c92565b5b6000612d1384828501612cda565b91505092915050565b60008115159050919050565b612d3181612d1c565b82525050565b6000602082019050612d4c6000830184612d28565b92915050565b6000819050919050565b612d6581612d52565b8114612d7057600080fd5b50565b600081359050612d8281612d5c565b92915050565b600060208284031215612d9e57612d9d612c92565b5b6000612dac84828501612d73565b91505092915050565b600073ffffffffffffffffffffffffffffffffffffffff82169050919050565b6000612de082612db5565b9050919050565b612df081612dd5565b82525050565b6000602082019050612e0b6000830184612de7565b92915050565b612e1a81612d52565b82525050565b612e2981612dd5565b82525050565b7f4e487b7100000000000000000000000000000000000000000000000000000000600052602160045260246000fd5b60058110612e6f57612e6e612e2f565b5b50565b6000819050612e8082612e5e565b919050565b6000612e9082612e72565b9050919050565b612ea081612e85565b82525050565b600060ff82169050919050565b612ebc81612ea6565b82525050565b61010082016000820151612ed96000850182612e11565b506020820151612eec6020850182612e20565b506040820151612eff6040850182612e20565b506060820151612f126060850182612e11565b506080820151612f256080850182612e97565b5060a0820151612f3860a0850182612eb3565b5060c0820151612f4b60c0850182612e11565b5060e0820151612f5e60e0850182612e11565b50505050565b600061010082019050612f7a6000830184612ec2565b92915050565b6000819050919050565b612f9381612f80565b82525050565b6000602082019050612fae6000830184612f8a565b92915050565b612fbd81612f80565b8114612fc857600080fd5b50565b600081359050612fda81612fb4565b92915050565b600060208284031215612ff657612ff5612c92565b5b600061300484828501612fcb565b91505092915050565b61301681612dd5565b811461302157600080fd5b50565b6000813590506130338161300d565b92915050565b600080604083850312156130505761304f612c92565b5b600061305e85828601612fcb565b925050602061306f85828601613024565b9150509250929050565b61308281612ea6565b82525050565b600060208201905061309d6000830184613079565b92915050565b600081519050919050565b600082825260208201905092915050565b6000819050602082019050919050565b60006130db8383612e20565b60208301905092915050565b6000602082019050919050565b60006130ff826130a3565b61310981856130ae565b9350613114836130bf565b8060005b8381101561314557815161312c88826130cf565b9750613137836130e7565b925050600181019050613118565b5085935050505092915050565b6000602082019050818103600083015261316c81846130f4565b905092915050565b60006020828403121561318a57613189612c92565b5b600061319884828501613024565b91505092915050565b6131aa81612ea6565b81146131b557600080fd5b50565b6000813590506131c7816131a1565b92915050565b6000602082840312156131e3576131e2612c92565b5b60006131f1848285016131b8565b91505092915050565b600081519050919050565b600082825260208201905092915050565b6000819050602082019050919050565b6101008201600082015161323d6000850182612e11565b5060208201516132506020850182612e20565b5060408201516132636040850182612e20565b5060608201516132766060850182612e11565b5060808201516132896080850182612e97565b5060a082015161329c60a0850182612eb3565b5060c08201516132af60c0850182612e11565b5060e08201516132c260e0850182612e11565b50505050565b60006132d48383613226565b6101008301905092915050565b6000602082019050919050565b60006132f9826131fa565b6133038185613205565b935061330e83613216565b8060005b8381101561333f57815161332688826132c8565b9750613331836132e1565b925050600181019050613312565b5085935050505092915050565b6000602082019050818103600083015261336681846132ee565b905092915050565b60008060006060848603121561338757613386612c92565b5b600061339586828701613024565b93505060206133a686828701613024565b92505060406133b786828701612d73565b9150509250925092565b6133ca81612d52565b82525050565b60006020820190506133e560008301846133c1565b92915050565b600082825260208201905092915050565b7f4e6f7420656e6f7567682045544820746f207769746864726177206f6e20636f60008201527f6e74726163740000000000000000000000000000000000000000000000000000602082015250565b60006134586026836133eb565b9150613463826133fc565b604082019050919050565b600060208201905081810360008301526134878161344b565b9050919050565b7f4e6f7420656e6f7567682045544820696e20776974686472617761626c65206660008201527f756e647300000000000000000000000000000000000000000000000000000000602082015250565b60006134ea6024836133eb565b91506134f58261348e565b604082019050919050565b60006020820190508181036000830152613519816134dd565b9050919050565b7f4e487b7100000000000000000000000000000000000000000000000000000000600052603260045260246000fd5b7f4f776e65722063616e27742061736b20666f72206265636f6d696e6720616e2060008201527f6167656e74000000000000000000000000000000000000000000000000000000602082015250565b60006135ab6025836133eb565b91506135b68261354f565b604082019050919050565b600060208201905081810360008301526135da8161359e565b9050919050565b7f4164647265737320697320616c726561647920696e20616e206167656e74207760008201527f686974656c697374000000000000000000000000000000000000000000000000602082015250565b600061363d6028836133eb565b9150613648826135e1565b604082019050919050565b6000602082019050818103600083015261366c81613630565b9050919050565b7f4164647265737320697320616c726561647920616e206167656e740000000000600082015250565b60006136a9601b836133eb565b91506136b482613673565b602082019050919050565b600060208201905081810360008301526136d88161369c565b9050919050565b7f416363657373436f6e74726f6c3a2063616e206f6e6c792072656e6f756e636560008201527f20726f6c657320666f722073656c660000000000000000000000000000000000602082015250565b600061373b602f836133eb565b9150613746826136df565b604082019050919050565b6000602082019050818103600083015261376a8161372e565b9050919050565b7f43616e277420617263686976652061637469766520457363726f770000000000600082015250565b60006137a7601b836133eb565b91506137b282613771565b602082019050919050565b600060208201905081810360008301526137d68161379a565b9050919050565b60006040820190506137f260008301856133c1565b6137ff60208301846133c1565b9392505050565b7f457363726f772063616e6e6f7420626520617070726f76656400000000000000600082015250565b600061383c6019836133eb565b915061384782613806565b602082019050919050565b6000602082019050818103600083015261386b8161382f565b9050919050565b7f4e487b7100000000000000000000000000000000000000000000000000000000600052601160045260246000fd5b60006138ac82612d52565b91506138b783612d52565b9250817fffffffffffffffffffffffffffffffffffffffffffffffffffffffffffffffff04831182151516156138f0576138ef613872565b5b828202905092915050565b7f4e487b7100000000000000000000000000000000000000000000000000000000600052601260045260246000fd5b600061393582612d52565b915061394083612d52565b9250826139505761394f6138fb565b5b828204905092915050565b600061396682612d52565b915061397183612d52565b9250827fffffffffffffffffffffffffffffffffffffffffffffffffffffffffffffffff038211156139a6576139a5613872565b5b828201905092915050565b60006139bc82612d52565b91506139c783612d52565b9250828210156139da576139d9613872565b5b828203905092915050565b7f4e487b7100000000000000000000000000000000000000000000000000000000600052603160045260246000fd5b6000613a1f82612d52565b91507fffffffffffffffffffffffffffffffffffffffffffffffffffffffffffffffff821415613a5257613a51613872565b5b600182019050919050565b7f4f6e6c792062757965722073686f756c64206465706f73697420696e746f206160008201527f6e20657363726f77000000000000000000000000000000000000000000000000602082015250565b6000613ab96028836133eb565b9150613ac482613a5d565b604082019050919050565b60006020820190508181036000830152613ae881613aac565b9050919050565b7f457363726f77206973206e6f7420616363657074696e67207061796d656e7473600082015250565b6000613b256020836133eb565b9150613b3082613aef565b602082019050919050565b60006020820190508181036000830152613b5481613b18565b9050919050565b7f4465706f736974206d75737420626520657175616c20746f20616d6f756e742060008201527f696e636c7564696e6720746865206167656e7420666565000000000000000000602082015250565b6000613bb76037836133eb565b9150613bc282613b5b565b604082019050919050565b60006020820190508181036000830152613be681613baa565b9050919050565b7f427579657220697320616e206167656e74000000000000000000000000000000600082015250565b6000613c236011836133eb565b9150613c2e82613bed565b602082019050919050565b60006020820190508181036000830152613c5281613c16565b9050919050565b7f53656c6c657220697320616e206167656e740000000000000000000000000000600082015250565b6000613c8f6012836133eb565b9150613c9a82613c59565b602082019050919050565b60006020820190508181036000830152613cbe81613c82565b9050919050565b7f427579657220697320696e20616e206167656e7420776169746c697374000000600082015250565b6000613cfb601d836133eb565b9150613d0682613cc5565b602082019050919050565b60006020820190508181036000830152613d2a81613cee565b9050919050565b7f53656c6c657220697320696e20616e206167656e7420776169746c6973740000600082015250565b6000613d67601e836133eb565b9150613d7282613d31565b602082019050919050565b60006020820190508181036000830152613d9681613d5a565b9050919050565b7f596f752063616e206f6e6c792072656a656374206465706f736974656420457360008201527f63726f7700000000000000000000000000000000000000000000000000000000602082015250565b6000613df96024836133eb565b9150613e0482613d9d565b604082019050919050565b60006020820190508181036000830152613e2881613dec565b9050919050565b7f4f776e61626c653a206e6577206f776e657220697320746865207a65726f206160008201527f6464726573730000000000000000000000000000000000000000000000000000602082015250565b6000613e8b6026836133eb565b9150613e9682613e2f565b604082019050919050565b60006020820190508181036000830152613eba81613e7e565b9050919050565b7f4e487b7100000000000000000000000000000000000000000000000000000000600052604160045260246000fd5b6000613efb82612d52565b91506000821415613f0f57613f0e613872565b5b600182039050919050565b7f537472696e67733a20686578206c656e67746820696e73756666696369656e74600082015250565b6000613f506020836133eb565b9150613f5b82613f1a565b602082019050919050565b60006020820190508181036000830152613f7f81613f43565b9050919050565b7f4f776e61626c653a2063616c6c6572206973206e6f7420746865206f776e6572600082015250565b6000613fbc6020836133eb565b9150613fc782613f86565b602082019050919050565b60006020820190508181036000830152613feb81613faf565b9050919050565b7f5265656e7472616e637947756172643a207265656e7472616e742063616c6c00600082015250565b6000614028601f836133eb565b915061403382613ff2565b602082019050919050565b600060208201905081810360008301526140578161401b565b9050919050565b600081905092915050565b7f416363657373436f6e74726f6c3a206163636f756e7420000000000000000000600082015250565b600061409f60178361405e565b91506140aa82614069565b601782019050919050565b600081519050919050565b60005b838110156140de5780820151818401526020810190506140c3565b838111156140ed576000848401525b50505050565b60006140fe826140b5565b614108818561405e565b93506141188185602086016140c0565b80840191505092915050565b7f206973206d697373696e6720726f6c6520000000000000000000000000000000600082015250565b600061415a60118361405e565b915061416582614124565b601182019050919050565b600061417b82614092565b915061418782856140f3565b91506141928261414d565b915061419e82846140f3565b91508190509392505050565b6000601f19601f8301169050919050565b60006141c6826140b5565b6141d081856133eb565b93506141e08185602086016140c0565b6141e9816141aa565b840191505092915050565b6000602082019050818103600083015261420e81846141bb565b90509291505056fea2646970667358221220eb4b6ddfa91b4a85c723b5c22cb94398508e12b631b4efdbebe36754f99155d664736f6c63430008090033",
  "linkReferences": {},
  "deployedLinkReferences": {}
}