{
  "_format": "hh-sol-artifact-1",
  "contractName": "EscrowAgent",
  "sourceName": "contracts/EscrowAgent.sol",
  "abi": [
    {
      "inputs": [
        {
          "internalType": "uint8",
          "name": "_agentFeePercentage",
          "type": "uint8"
        }
      ],
      "stateMutability": "nonpayable",
      "type": "constructor"
    },
    {
      "anonymous": false,
      "inputs": [
        {
          "indexed": false,
          "internalType": "address",
          "name": "newAgent",
          "type": "address"
        }
      ],
      "name": "AgentAdded",
      "type": "event"
    },
    {
      "anonymous": false,
      "inputs": [
        {
          "indexed": false,
          "internalType": "uint8",
          "name": "newAgentFeePercentage",
          "type": "uint8"
        }
      ],
      "name": "AgentFeePercentageUpdated",
      "type": "event"
    },
    {
      "anonymous": false,
      "inputs": [
        {
          "indexed": false,
          "internalType": "address",
          "name": "newAgent",
          "type": "address"
        }
      ],
      "name": "AgentRevoked",
      "type": "event"
    },
    {
      "anonymous": false,
      "inputs": [
        {
          "indexed": false,
          "internalType": "uint256",
          "name": "escrowId",
          "type": "uint256"
        },
        {
          "indexed": false,
          "internalType": "uint256",
          "name": "timestamp",
          "type": "uint256"
        }
      ],
      "name": "EscrowApproved",
      "type": "event"
    },
    {
      "anonymous": false,
      "inputs": [
        {
          "indexed": false,
          "internalType": "uint256",
          "name": "escrowId",
          "type": "uint256"
        },
        {
          "indexed": false,
          "internalType": "uint256",
          "name": "timestamp",
          "type": "uint256"
        }
      ],
      "name": "EscrowArchived",
      "type": "event"
    },
    {
      "anonymous": false,
      "inputs": [
        {
          "indexed": false,
          "internalType": "uint256",
          "name": "escrowId",
          "type": "uint256"
        },
        {
          "indexed": false,
          "internalType": "uint256",
          "name": "timestamp",
          "type": "uint256"
        }
      ],
      "name": "EscrowCanceled",
      "type": "event"
    },
    {
      "anonymous": false,
      "inputs": [
        {
          "components": [
            {
              "internalType": "uint256",
              "name": "id",
              "type": "uint256"
            },
            {
              "internalType": "address",
              "name": "buyer",
              "type": "address"
            },
            {
              "internalType": "address",
              "name": "seller",
              "type": "address"
            },
            {
              "internalType": "uint256",
              "name": "amount",
              "type": "uint256"
            },
            {
              "internalType": "enum EscrowBase.EscrowStatus",
              "name": "status",
              "type": "uint8"
            },
            {
              "internalType": "uint8",
              "name": "agentFeePercentage",
              "type": "uint8"
            },
            {
              "internalType": "uint256",
              "name": "createdAt",
              "type": "uint256"
            },
            {
              "internalType": "uint256",
              "name": "updatedAt",
              "type": "uint256"
            }
          ],
          "indexed": false,
          "internalType": "struct EscrowBase.EscrowDocument",
          "name": "escrowDocument",
          "type": "tuple"
        }
      ],
      "name": "EscrowInitiated",
      "type": "event"
    },
    {
      "anonymous": false,
      "inputs": [
        {
          "indexed": false,
          "internalType": "uint256",
          "name": "escrowId",
          "type": "uint256"
        },
        {
          "indexed": false,
          "internalType": "uint256",
          "name": "timestamp",
          "type": "uint256"
        }
      ],
      "name": "EscrowPaid",
      "type": "event"
    },
    {
      "anonymous": false,
      "inputs": [
        {
          "indexed": false,
          "internalType": "uint256",
          "name": "amount",
          "type": "uint256"
        }
      ],
      "name": "FundsWithdrawn",
      "type": "event"
    },
    {
      "anonymous": false,
      "inputs": [
        {
          "indexed": true,
          "internalType": "address",
          "name": "previousOwner",
          "type": "address"
        },
        {
          "indexed": true,
          "internalType": "address",
          "name": "newOwner",
          "type": "address"
        }
      ],
      "name": "OwnershipTransferred",
      "type": "event"
    },
    {
      "anonymous": false,
      "inputs": [
        {
          "indexed": true,
          "internalType": "bytes32",
          "name": "role",
          "type": "bytes32"
        },
        {
          "indexed": true,
          "internalType": "bytes32",
          "name": "previousAdminRole",
          "type": "bytes32"
        },
        {
          "indexed": true,
          "internalType": "bytes32",
          "name": "newAdminRole",
          "type": "bytes32"
        }
      ],
      "name": "RoleAdminChanged",
      "type": "event"
    },
    {
      "anonymous": false,
      "inputs": [
        {
          "indexed": true,
          "internalType": "bytes32",
          "name": "role",
          "type": "bytes32"
        },
        {
          "indexed": true,
          "internalType": "address",
          "name": "account",
          "type": "address"
        },
        {
          "indexed": true,
          "internalType": "address",
          "name": "sender",
          "type": "address"
        }
      ],
      "name": "RoleGranted",
      "type": "event"
    },
    {
      "anonymous": false,
      "inputs": [
        {
          "indexed": true,
          "internalType": "bytes32",
          "name": "role",
          "type": "bytes32"
        },
        {
          "indexed": true,
          "internalType": "address",
          "name": "account",
          "type": "address"
        },
        {
          "indexed": true,
          "internalType": "address",
          "name": "sender",
          "type": "address"
        }
      ],
      "name": "RoleRevoked",
      "type": "event"
    },
    {
      "inputs": [],
      "name": "AGENT_ROLE",
      "outputs": [
        {
          "internalType": "bytes32",
          "name": "",
          "type": "bytes32"
        }
      ],
      "stateMutability": "view",
      "type": "function"
    },
    {
      "inputs": [
        {
          "internalType": "uint256",
          "name": "_escrowId",
          "type": "uint256"
        }
      ],
      "name": "ApproveEscrow",
      "outputs": [],
      "stateMutability": "nonpayable",
      "type": "function"
    },
    {
      "inputs": [],
      "name": "DEFAULT_ADMIN_ROLE",
      "outputs": [
        {
          "internalType": "bytes32",
          "name": "",
          "type": "bytes32"
        }
      ],
      "stateMutability": "view",
      "type": "function"
    },
    {
      "inputs": [
        {
          "internalType": "address",
          "name": "_agent",
          "type": "address"
        }
      ],
      "name": "addAgent",
      "outputs": [],
      "stateMutability": "nonpayable",
      "type": "function"
    },
    {
      "inputs": [],
      "name": "agentFeePercentage",
      "outputs": [
        {
          "internalType": "uint8",
          "name": "",
          "type": "uint8"
        }
      ],
      "stateMutability": "view",
      "type": "function"
    },
    {
      "inputs": [
        {
          "internalType": "uint256",
          "name": "",
          "type": "uint256"
        }
      ],
      "name": "agentWaitlist",
      "outputs": [
        {
          "internalType": "address",
          "name": "",
          "type": "address"
        }
      ],
      "stateMutability": "view",
      "type": "function"
    },
    {
      "inputs": [
        {
          "internalType": "uint256",
          "name": "",
          "type": "uint256"
        }
      ],
      "name": "agents",
      "outputs": [
        {
          "internalType": "address",
          "name": "",
          "type": "address"
        }
      ],
      "stateMutability": "view",
      "type": "function"
    },
    {
      "inputs": [],
      "name": "applyForAgent",
      "outputs": [],
      "stateMutability": "nonpayable",
      "type": "function"
    },
    {
      "inputs": [
        {
          "internalType": "uint256",
          "name": "_escrowId",
          "type": "uint256"
        }
      ],
      "name": "archiveEscrow",
      "outputs": [],
      "stateMutability": "nonpayable",
      "type": "function"
    },
    {
      "inputs": [
        {
          "internalType": "uint256",
          "name": "_escrowId",
          "type": "uint256"
        }
      ],
      "name": "cancelEscrow",
      "outputs": [],
      "stateMutability": "nonpayable",
      "type": "function"
    },
    {
      "inputs": [
        {
          "internalType": "uint8",
          "name": "_newFeePercentage",
          "type": "uint8"
        }
      ],
      "name": "changeAgentFeePercentage",
      "outputs": [],
      "stateMutability": "nonpayable",
      "type": "function"
    },
    {
      "inputs": [
        {
          "internalType": "uint256",
          "name": "_escrowId",
          "type": "uint256"
        }
      ],
      "name": "depositEscrow",
      "outputs": [],
      "stateMutability": "payable",
      "type": "function"
    },
    {
      "inputs": [],
      "name": "getAgents",
      "outputs": [
        {
          "internalType": "address[]",
          "name": "",
          "type": "address[]"
        }
      ],
      "stateMutability": "view",
      "type": "function"
    },
    {
      "inputs": [],
      "name": "getAgentsWaitlist",
      "outputs": [
        {
          "internalType": "address[]",
          "name": "",
          "type": "address[]"
        }
      ],
      "stateMutability": "view",
      "type": "function"
    },
    {
      "inputs": [],
      "name": "getAllEscrows",
      "outputs": [
        {
          "components": [
            {
              "internalType": "uint256",
              "name": "id",
              "type": "uint256"
            },
            {
              "internalType": "address",
              "name": "buyer",
              "type": "address"
            },
            {
              "internalType": "address",
              "name": "seller",
              "type": "address"
            },
            {
              "internalType": "uint256",
              "name": "amount",
              "type": "uint256"
            },
            {
              "internalType": "enum EscrowBase.EscrowStatus",
              "name": "status",
              "type": "uint8"
            },
            {
              "internalType": "uint8",
              "name": "agentFeePercentage",
              "type": "uint8"
            },
            {
              "internalType": "uint256",
              "name": "createdAt",
              "type": "uint256"
            },
            {
              "internalType": "uint256",
              "name": "updatedAt",
              "type": "uint256"
            }
          ],
          "internalType": "struct EscrowBase.EscrowDocument[]",
          "name": "",
          "type": "tuple[]"
        }
      ],
      "stateMutability": "view",
      "type": "function"
    },
    {
      "inputs": [
        {
          "internalType": "uint256",
          "name": "_escrowId",
          "type": "uint256"
        }
      ],
      "name": "getEscrowById",
      "outputs": [
        {
          "components": [
            {
              "internalType": "uint256",
              "name": "id",
              "type": "uint256"
            },
            {
              "internalType": "address",
              "name": "buyer",
              "type": "address"
            },
            {
              "internalType": "address",
              "name": "seller",
              "type": "address"
            },
            {
              "internalType": "uint256",
              "name": "amount",
              "type": "uint256"
            },
            {
              "internalType": "enum EscrowBase.EscrowStatus",
              "name": "status",
              "type": "uint8"
            },
            {
              "internalType": "uint8",
              "name": "agentFeePercentage",
              "type": "uint8"
            },
            {
              "internalType": "uint256",
              "name": "createdAt",
              "type": "uint256"
            },
            {
              "internalType": "uint256",
              "name": "updatedAt",
              "type": "uint256"
            }
          ],
          "internalType": "struct EscrowBase.EscrowDocument",
          "name": "",
          "type": "tuple"
        }
      ],
      "stateMutability": "view",
      "type": "function"
    },
    {
      "inputs": [
        {
          "internalType": "bytes32",
          "name": "role",
          "type": "bytes32"
        }
      ],
      "name": "getRoleAdmin",
      "outputs": [
        {
          "internalType": "bytes32",
          "name": "",
          "type": "bytes32"
        }
      ],
      "stateMutability": "view",
      "type": "function"
    },
    {
      "inputs": [
        {
          "internalType": "bytes32",
          "name": "role",
          "type": "bytes32"
        },
        {
          "internalType": "address",
          "name": "account",
          "type": "address"
        }
      ],
      "name": "grantRole",
      "outputs": [],
      "stateMutability": "nonpayable",
      "type": "function"
    },
    {
      "inputs": [
        {
          "internalType": "bytes32",
          "name": "role",
          "type": "bytes32"
        },
        {
          "internalType": "address",
          "name": "account",
          "type": "address"
        }
      ],
      "name": "hasRole",
      "outputs": [
        {
          "internalType": "bool",
          "name": "",
          "type": "bool"
        }
      ],
      "stateMutability": "view",
      "type": "function"
    },
    {
      "inputs": [
        {
          "internalType": "address",
          "name": "_buyer",
          "type": "address"
        },
        {
          "internalType": "address",
          "name": "_seller",
          "type": "address"
        },
        {
          "internalType": "uint256",
          "name": "_amount",
          "type": "uint256"
        }
      ],
      "name": "initiateEscrow",
      "outputs": [],
      "stateMutability": "nonpayable",
      "type": "function"
    },
    {
      "inputs": [],
      "name": "owner",
      "outputs": [
        {
          "internalType": "address",
          "name": "",
          "type": "address"
        }
      ],
      "stateMutability": "view",
      "type": "function"
    },
    {
      "inputs": [],
      "name": "renounceOwnership",
      "outputs": [],
      "stateMutability": "nonpayable",
      "type": "function"
    },
    {
      "inputs": [
        {
          "internalType": "bytes32",
          "name": "role",
          "type": "bytes32"
        },
        {
          "internalType": "address",
          "name": "account",
          "type": "address"
        }
      ],
      "name": "renounceRole",
      "outputs": [],
      "stateMutability": "nonpayable",
      "type": "function"
    },
    {
      "inputs": [
        {
          "internalType": "address",
          "name": "_agent",
          "type": "address"
        }
      ],
      "name": "revokeAgent",
      "outputs": [],
      "stateMutability": "nonpayable",
      "type": "function"
    },
    {
      "inputs": [
        {
          "internalType": "bytes32",
          "name": "role",
          "type": "bytes32"
        },
        {
          "internalType": "address",
          "name": "account",
          "type": "address"
        }
      ],
      "name": "revokeRole",
      "outputs": [],
      "stateMutability": "nonpayable",
      "type": "function"
    },
    {
      "inputs": [
        {
          "internalType": "bytes4",
          "name": "interfaceId",
          "type": "bytes4"
        }
      ],
      "name": "supportsInterface",
      "outputs": [
        {
          "internalType": "bool",
          "name": "",
          "type": "bool"
        }
      ],
      "stateMutability": "view",
      "type": "function"
    },
    {
      "inputs": [
        {
          "internalType": "address",
          "name": "newOwner",
          "type": "address"
        }
      ],
      "name": "transferOwnership",
      "outputs": [],
      "stateMutability": "nonpayable",
      "type": "function"
    },
    {
      "inputs": [
        {
          "internalType": "uint256",
          "name": "_amount",
          "type": "uint256"
        }
      ],
      "name": "withdrawFunds",
      "outputs": [],
      "stateMutability": "nonpayable",
      "type": "function"
    },
    {
      "inputs": [],
      "name": "withdrawableFunds",
      "outputs": [
        {
          "internalType": "uint256",
          "name": "",
          "type": "uint256"
        }
      ],
      "stateMutability": "view",
      "type": "function"
    }
  ],
  "bytecode": "0x60806040523480156200001157600080fd5b5060405162005085380380620050858339818101604052810190620000379190620006ec565b620000576200004b620000c860201b60201c565b620000d060201b60201c565b6001600281905550620000746000801b336200019460201b60201c565b620000a67fcab5a0bfe0b79d2c4b1c2e02599fa044d115b7511f9659307cb4276950967709336200028560201b60201c565b80600360006101000a81548160ff021916908360ff1602179055505062000b00565b600033905090565b60008060009054906101000a900473ffffffffffffffffffffffffffffffffffffffff169050816000806101000a81548173ffffffffffffffffffffffffffffffffffffffff021916908373ffffffffffffffffffffffffffffffffffffffff1602179055508173ffffffffffffffffffffffffffffffffffffffff168173ffffffffffffffffffffffffffffffffffffffff167f8be0079c531659141344cd1fd0a4f28419497f9722a3daafe3b4186f6b6457e060405160405180910390a35050565b620001a68282620002be60201b60201c565b6200028157600180600084815260200190815260200160002060000160008373ffffffffffffffffffffffffffffffffffffffff1673ffffffffffffffffffffffffffffffffffffffff16815260200190815260200160002060006101000a81548160ff02191690831515021790555062000226620000c860201b60201c565b73ffffffffffffffffffffffffffffffffffffffff168173ffffffffffffffffffffffffffffffffffffffff16837f2f8788117e7eff1d82e926ec794901d17c78024a50270940304540a733656f0d60405160405180910390a45b5050565b62000296826200032960201b60201c565b620002a7816200034960201b60201c565b620002b983836200019460201b60201c565b505050565b60006001600084815260200190815260200160002060000160008373ffffffffffffffffffffffffffffffffffffffff1673ffffffffffffffffffffffffffffffffffffffff16815260200190815260200160002060009054906101000a900460ff16905092915050565b600060016000838152602001908152602001600020600101549050919050565b6200036a816200035e620000c860201b60201c565b6200036d60201b60201c565b50565b6200037f8282620002be60201b60201c565b62000415576200039a816200041960201b620026531760201c565b620003b58360001c60206200044e60201b620026801760201c565b604051602001620003c892919062000841565b6040516020818303038152906040526040517f08c379a00000000000000000000000000000000000000000000000000000000081526004016200040c9190620008e6565b60405180910390fd5b5050565b6060620004478273ffffffffffffffffffffffffffffffffffffffff16601460ff166200044e60201b60201c565b9050919050565b60606000600283600262000463919062000943565b6200046f9190620009a4565b67ffffffffffffffff8111156200048b576200048a62000a01565b5b6040519080825280601f01601f191660200182016040528015620004be5781602001600182028036833780820191505090505b5090507f300000000000000000000000000000000000000000000000000000000000000081600081518110620004f957620004f862000a30565b5b60200101907effffffffffffffffffffffffffffffffffffffffffffffffffffffffffffff1916908160001a9053507f78000000000000000000000000000000000000000000000000000000000000008160018151811062000560576200055f62000a30565b5b60200101907effffffffffffffffffffffffffffffffffffffffffffffffffffffffffffff1916908160001a90535060006001846002620005a2919062000943565b620005ae9190620009a4565b90505b600181111562000658577f3031323334353637383961626364656600000000000000000000000000000000600f861660108110620005f457620005f362000a30565b5b1a60f81b8282815181106200060e576200060d62000a30565b5b60200101907effffffffffffffffffffffffffffffffffffffffffffffffffffffffffffff1916908160001a905350600485901c945080620006509062000a5f565b9050620005b1565b50600084146200069f576040517f08c379a0000000000000000000000000000000000000000000000000000000008152600401620006969062000ade565b60405180910390fd5b8091505092915050565b600080fd5b600060ff82169050919050565b620006c681620006ae565b8114620006d257600080fd5b50565b600081519050620006e681620006bb565b92915050565b600060208284031215620007055762000704620006a9565b5b60006200071584828501620006d5565b91505092915050565b600081905092915050565b7f416363657373436f6e74726f6c3a206163636f756e7420000000000000000000600082015250565b6000620007616017836200071e565b91506200076e8262000729565b601782019050919050565b600081519050919050565b60005b83811015620007a457808201518184015260208101905062000787565b83811115620007b4576000848401525b50505050565b6000620007c78262000779565b620007d381856200071e565b9350620007e581856020860162000784565b80840191505092915050565b7f206973206d697373696e6720726f6c6520000000000000000000000000000000600082015250565b6000620008296011836200071e565b91506200083682620007f1565b601182019050919050565b60006200084e8262000752565b91506200085c8285620007ba565b915062000869826200081a565b9150620008778284620007ba565b91508190509392505050565b600082825260208201905092915050565b6000601f19601f8301169050919050565b6000620008b28262000779565b620008be818562000883565b9350620008d081856020860162000784565b620008db8162000894565b840191505092915050565b60006020820190508181036000830152620009028184620008a5565b905092915050565b6000819050919050565b7f4e487b7100000000000000000000000000000000000000000000000000000000600052601160045260246000fd5b600062000950826200090a565b91506200095d836200090a565b9250817fffffffffffffffffffffffffffffffffffffffffffffffffffffffffffffffff048311821515161562000999576200099862000914565b5b828202905092915050565b6000620009b1826200090a565b9150620009be836200090a565b9250827fffffffffffffffffffffffffffffffffffffffffffffffffffffffffffffffff03821115620009f657620009f562000914565b5b828201905092915050565b7f4e487b7100000000000000000000000000000000000000000000000000000000600052604160045260246000fd5b7f4e487b7100000000000000000000000000000000000000000000000000000000600052603260045260246000fd5b600062000a6c826200090a565b9150600082141562000a835762000a8262000914565b5b600182039050919050565b7f537472696e67733a20686578206c656e67746820696e73756666696369656e74600082015250565b600062000ac660208362000883565b915062000ad38262000a8e565b602082019050919050565b6000602082019050818103600083015262000af98162000ab7565b9050919050565b6145758062000b106000396000f3fe6080604052600436106101c25760003560e01c806378b95442116100f7578063a217fddf11610095578063e018243611610064578063e01824361461061b578063e617ea5c14610644578063eac3fda41461066f578063f2fde38b1461069a576101c2565b8063a217fddf14610582578063cb991efe146105ad578063d547741f146105c9578063df55ab59146105f2576101c2565b80638da5cb5b116100d15780638da5cb5b146104c657806391d14854146104f1578063981895391461052e5780639a6ac36f14610557576101c2565b806378b954421461044b5780637da6ac0d1461047457806384e798421461049d576101c2565b80632f2ff15d11610164578063513856c81161013e578063513856c8146103a157806369e36beb146103de5780636b7a553a14610409578063715018a614610434576101c2565b80632f2ff15d1461032657806336568abe1461034f578063398ab77314610378576101c2565b806320ca0418116101a057806320ca04181461026a57806322459e18146102a7578063248a9ca3146102d25780632aef40d61461030f576101c2565b806301ffc9a7146101c75780630e7b2c0e14610204578063155dd5ee14610241575b600080fd5b3480156101d357600080fd5b506101ee60048036038101906101e99190612e8e565b6106c3565b6040516101fb9190612ed6565b60405180910390f35b34801561021057600080fd5b5061022b60048036038101906102269190612f27565b61073d565b6040516102389190612f95565b60405180910390f35b34801561024d57600080fd5b5061026860048036038101906102639190612f27565b61077c565b005b34801561027657600080fd5b50610291600480360381019061028c9190612f27565b610925565b60405161029e9190613103565b60405180910390f35b3480156102b357600080fd5b506102bc610a8e565b6040516102c99190613138565b60405180910390f35b3480156102de57600080fd5b506102f960048036038101906102f4919061317f565b610ab2565b6040516103069190613138565b60405180910390f35b34801561031b57600080fd5b50610324610ad2565b005b34801561033257600080fd5b5061034d600480360381019061034891906131d8565b610d5d565b005b34801561035b57600080fd5b50610376600480360381019061037191906131d8565b610d7e565b005b34801561038457600080fd5b5061039f600480360381019061039a9190612f27565b610e01565b005b3480156103ad57600080fd5b506103c860048036038101906103c39190612f27565b610f4d565b6040516103d59190612f95565b60405180910390f35b3480156103ea57600080fd5b506103f3610f8c565b6040516104009190613227565b60405180910390f35b34801561041557600080fd5b5061041e610f9f565b60405161042b91906132f1565b60405180910390f35b34801561044057600080fd5b5061044961102d565b005b34801561045757600080fd5b50610472600480360381019061046d9190612f27565b611041565b005b34801561048057600080fd5b5061049b60048036038101906104969190613313565b6112b4565b005b3480156104a957600080fd5b506104c460048036038101906104bf9190613313565b6114aa565b005b3480156104d257600080fd5b506104db611869565b6040516104e89190612f95565b60405180910390f35b3480156104fd57600080fd5b50610518600480360381019061051391906131d8565b611892565b6040516105259190612ed6565b60405180910390f35b34801561053a57600080fd5b506105556004803603810190610550919061336c565b6118fd565b005b34801561056357600080fd5b5061056c61195a565b60405161057991906134eb565b60405180910390f35b34801561058e57600080fd5b50610597611ae6565b6040516105a49190613138565b60405180910390f35b6105c760048036038101906105c29190612f27565b611aed565b005b3480156105d557600080fd5b506105f060048036038101906105eb91906131d8565b611d2a565b005b3480156105fe57600080fd5b506106196004803603810190610614919061350d565b611d4b565b005b34801561062757600080fd5b50610642600480360381019061063d9190612f27565b6122cc565b005b34801561065057600080fd5b5061065961253b565b604051610666919061356f565b60405180910390f35b34801561067b57600080fd5b50610684612541565b60405161069191906132f1565b60405180910390f35b3480156106a657600080fd5b506106c160048036038101906106bc9190613313565b6125cf565b005b60007f7965db0b000000000000000000000000000000000000000000000000000000007bffffffffffffffffffffffffffffffffffffffffffffffffffffffff1916827bffffffffffffffffffffffffffffffffffffffffffffffffffffffff191614806107365750610735826128bc565b5b9050919050565b6005818154811061074d57600080fd5b906000526020600020016000915054906101000a900473ffffffffffffffffffffffffffffffffffffffff1681565b610784612926565b61078c6129a4565b478111156107cf576040517f08c379a00000000000000000000000000000000000000000000000000000000081526004016107c69061360d565b60405180910390fd5b600454811115610814576040517f08c379a000000000000000000000000000000000000000000000000000000000815260040161080b9061369f565b60405180910390fd5b600061081e611869565b73ffffffffffffffffffffffffffffffffffffffff1682604051610841906136f0565b60006040518083038185875af1925050503d806000811461087e576040519150601f19603f3d011682016040523d82523d6000602084013e610883565b606091505b50509050806108c7576040517f08c379a00000000000000000000000000000000000000000000000000000000081526004016108be90613751565b60405180910390fd5b7f4a37b25aab49761ecf63117fe82b98d750917451133cf797507bc9fb5b96044a6004546040516108f8919061356f565b60405180910390a1816004600082825461091291906137a0565b92505081905550506109226129f2565b50565b61092d612dab565b60078281548110610941576109406137d4565b5b906000526020600020906007020160405180610100016040529081600082015481526020016001820160009054906101000a900473ffffffffffffffffffffffffffffffffffffffff1673ffffffffffffffffffffffffffffffffffffffff1673ffffffffffffffffffffffffffffffffffffffff1681526020016002820160009054906101000a900473ffffffffffffffffffffffffffffffffffffffff1673ffffffffffffffffffffffffffffffffffffffff1673ffffffffffffffffffffffffffffffffffffffff168152602001600382015481526020016004820160009054906101000a900460ff166004811115610a4057610a3f612fce565b5b6004811115610a5257610a51612fce565b5b81526020016004820160019054906101000a900460ff1660ff1660ff168152602001600582015481526020016006820154815250509050919050565b7fcab5a0bfe0b79d2c4b1c2e02599fa044d115b7511f9659307cb427695096770981565b600060016000838152602001908152602001600020600101549050919050565b610ada6129a4565b610ae2611869565b73ffffffffffffffffffffffffffffffffffffffff163373ffffffffffffffffffffffffffffffffffffffff161415610b50576040517f08c379a0000000000000000000000000000000000000000000000000000000008152600401610b4790613875565b60405180910390fd5b610be06005805480602002602001604051908101604052809291908181526020018280548015610bd557602002820191906000526020600020905b8160009054906101000a900473ffffffffffffffffffffffffffffffffffffffff1673ffffffffffffffffffffffffffffffffffffffff1681526020019060010190808311610b8b575b5050505050336129fc565b15610c20576040517f08c379a0000000000000000000000000000000000000000000000000000000008152600401610c1790613907565b60405180910390fd5b610cb06006805480602002602001604051908101604052809291908181526020018280548015610ca557602002820191906000526020600020905b8160009054906101000a900473ffffffffffffffffffffffffffffffffffffffff1673ffffffffffffffffffffffffffffffffffffffff1681526020019060010190808311610c5b575b5050505050336129fc565b15610cf0576040517f08c379a0000000000000000000000000000000000000000000000000000000008152600401610ce790613973565b60405180910390fd5b6005339080600181540180825580915050600190039060005260206000200160009091909190916101000a81548173ffffffffffffffffffffffffffffffffffffffff021916908373ffffffffffffffffffffffffffffffffffffffff160217905550610d5b6129f2565b565b610d6682610ab2565b610d6f81612a84565b610d798383612a98565b505050565b610d86612b78565b73ffffffffffffffffffffffffffffffffffffffff168173ffffffffffffffffffffffffffffffffffffffff1614610df3576040517f08c379a0000000000000000000000000000000000000000000000000000000008152600401610dea90613a05565b60405180910390fd5b610dfd8282612b80565b5050565b7fcab5a0bfe0b79d2c4b1c2e02599fa044d115b7511f9659307cb4276950967709610e2b81612a84565b610e336129a4565b600060078381548110610e4957610e486137d4565b5b9060005260206000209060070201905060006004811115610e6d57610e6c612fce565b5b8160040160009054906101000a900460ff166004811115610e9157610e90612fce565b5b14610ed1576040517f08c379a0000000000000000000000000000000000000000000000000000000008152600401610ec890613a71565b60405180910390fd5b60048160040160006101000a81548160ff02191690836004811115610ef957610ef8612fce565b5b02179055504281600601819055507ff7f67bfa0cb6f4f063d06fc242568b74a8e5cd03190e3b30a19fc552e0e46cee8342604051610f38929190613a91565b60405180910390a150610f496129f2565b5050565b60068181548110610f5d57600080fd5b906000526020600020016000915054906101000a900473ffffffffffffffffffffffffffffffffffffffff1681565b600360009054906101000a900460ff1681565b6060600580548060200260200160405190810160405280929190818152602001828054801561102357602002820191906000526020600020905b8160009054906101000a900473ffffffffffffffffffffffffffffffffffffffff1673ffffffffffffffffffffffffffffffffffffffff1681526020019060010190808311610fd9575b5050505050905090565b611035612926565b61103f6000612c62565b565b7fcab5a0bfe0b79d2c4b1c2e02599fa044d115b7511f9659307cb427695096770961106b81612a84565b6110736129a4565b600060078381548110611089576110886137d4565b5b90600052602060002090600702019050600160048111156110ad576110ac612fce565b5b8160040160009054906101000a900460ff1660048111156110d1576110d0612fce565b5b14611111576040517f08c379a000000000000000000000000000000000000000000000000000000000815260040161110890613b06565b60405180910390fd5b600060648260040160019054906101000a900460ff1660ff1683600301546111399190613b26565b6111439190613baf565b905060028260040160006101000a81548160ff0219169083600481111561116d5761116c612fce565b5b0217905550428260060181905550806004600082825461118d9190613be0565b9250508190555060008260020160009054906101000a900473ffffffffffffffffffffffffffffffffffffffff1673ffffffffffffffffffffffffffffffffffffffff1683600301546040516111e2906136f0565b60006040518083038185875af1925050503d806000811461121f576040519150601f19603f3d011682016040523d82523d6000602084013e611224565b606091505b5050905080611268576040517f08c379a000000000000000000000000000000000000000000000000000000000815260040161125f90613c82565b60405180910390fd5b7f599da1658702c24a94818de06b47dcb625541f89b8d6077f376527447de8aa5e83600001544260405161129d929190613a91565b60405180910390a15050506112b06129f2565b5050565b6112bc612926565b6112e67fcab5a0bfe0b79d2c4b1c2e02599fa044d115b7511f9659307cb427695096770982611d2a565b60005b60068054905081101561146f578173ffffffffffffffffffffffffffffffffffffffff1660068281548110611321576113206137d4565b5b9060005260206000200160009054906101000a900473ffffffffffffffffffffffffffffffffffffffff1673ffffffffffffffffffffffffffffffffffffffff16141561145c576006600160068054905061137c91906137a0565b8154811061138d5761138c6137d4565b5b9060005260206000200160009054906101000a900473ffffffffffffffffffffffffffffffffffffffff16600682815481106113cc576113cb6137d4565b5b9060005260206000200160006101000a81548173ffffffffffffffffffffffffffffffffffffffff021916908373ffffffffffffffffffffffffffffffffffffffff160217905550600680548061142657611425613ca2565b5b6001900381819060005260206000200160006101000a81549073ffffffffffffffffffffffffffffffffffffffff021916905590555b808061146790613cd1565b9150506112e9565b507f1d2ac3af5c639e57ee8f25bc162ea13a1ef8a663c92a4f3e33f126dd2d4feba48160405161149f9190612f95565b60405180910390a150565b6114b2612926565b611542600680548060200260200160405190810160405280929190818152602001828054801561153757602002820191906000526020600020905b8160009054906101000a900473ffffffffffffffffffffffffffffffffffffffff1673ffffffffffffffffffffffffffffffffffffffff16815260200190600101908083116114ed575b5050505050826129fc565b15611582576040517f08c379a000000000000000000000000000000000000000000000000000000000815260040161157990613973565b60405180910390fd5b611612600580548060200260200160405190810160405280929190818152602001828054801561160757602002820191906000526020600020905b8160009054906101000a900473ffffffffffffffffffffffffffffffffffffffff1673ffffffffffffffffffffffffffffffffffffffff16815260200190600101908083116115bd575b5050505050826129fc565b156117a25760005b6005805490508110156117a0578173ffffffffffffffffffffffffffffffffffffffff1660058281548110611652576116516137d4565b5b9060005260206000200160009054906101000a900473ffffffffffffffffffffffffffffffffffffffff1673ffffffffffffffffffffffffffffffffffffffff16141561178d57600560016005805490506116ad91906137a0565b815481106116be576116bd6137d4565b5b9060005260206000200160009054906101000a900473ffffffffffffffffffffffffffffffffffffffff16600582815481106116fd576116fc6137d4565b5b9060005260206000200160006101000a81548173ffffffffffffffffffffffffffffffffffffffff021916908373ffffffffffffffffffffffffffffffffffffffff160217905550600580548061175757611756613ca2565b5b6001900381819060005260206000200160006101000a81549073ffffffffffffffffffffffffffffffffffffffff021916905590555b808061179890613cd1565b91505061161a565b505b6117cc7fcab5a0bfe0b79d2c4b1c2e02599fa044d115b7511f9659307cb427695096770982610d5d565b6006819080600181540180825580915050600190039060005260206000200160009091909190916101000a81548173ffffffffffffffffffffffffffffffffffffffff021916908373ffffffffffffffffffffffffffffffffffffffff1602179055507ff68e73cec97f2d70aa641fb26e87a4383686e2efacb648f2165aeb02ac562ec58160405161185e9190612f95565b60405180910390a150565b60008060009054906101000a900473ffffffffffffffffffffffffffffffffffffffff16905090565b60006001600084815260200190815260200160002060000160008373ffffffffffffffffffffffffffffffffffffffff1673ffffffffffffffffffffffffffffffffffffffff16815260200190815260200160002060009054906101000a900460ff16905092915050565b611905612926565b80600360006101000a81548160ff021916908360ff1602179055507fce7d01952d08f1136c73e6e86104a39c291e9eddec4df66e861482c52656aab68160405161194f9190613227565b60405180910390a150565b60606007805480602002602001604051908101604052809291908181526020016000905b82821015611add578382906000526020600020906007020160405180610100016040529081600082015481526020016001820160009054906101000a900473ffffffffffffffffffffffffffffffffffffffff1673ffffffffffffffffffffffffffffffffffffffff1673ffffffffffffffffffffffffffffffffffffffff1681526020016002820160009054906101000a900473ffffffffffffffffffffffffffffffffffffffff1673ffffffffffffffffffffffffffffffffffffffff1673ffffffffffffffffffffffffffffffffffffffff168152602001600382015481526020016004820160009054906101000a900460ff166004811115611a8757611a86612fce565b5b6004811115611a9957611a98612fce565b5b81526020016004820160019054906101000a900460ff1660ff1660ff168152602001600582015481526020016006820154815250508152602001906001019061197e565b50505050905090565b6000801b81565b611af56129a4565b600060078281548110611b0b57611b0a6137d4565b5b906000526020600020906007020190503373ffffffffffffffffffffffffffffffffffffffff168160010160009054906101000a900473ffffffffffffffffffffffffffffffffffffffff1673ffffffffffffffffffffffffffffffffffffffff1614611bad576040517f08c379a0000000000000000000000000000000000000000000000000000000008152600401611ba490613d8c565b60405180910390fd5b60006004811115611bc157611bc0612fce565b5b8160040160009054906101000a900460ff166004811115611be557611be4612fce565b5b14611c25576040517f08c379a0000000000000000000000000000000000000000000000000000000008152600401611c1c90613df8565b60405180910390fd5b600060648260040160019054906101000a900460ff1660ff168360030154611c4d9190613b26565b611c579190613baf565b905034818360030154611c6a9190613be0565b14611caa576040517f08c379a0000000000000000000000000000000000000000000000000000000008152600401611ca190613e8a565b60405180910390fd5b60018260040160006101000a81548160ff02191690836004811115611cd257611cd1612fce565b5b02179055504282600601819055507f8db6ba856847e4dcb64228091144f21130aca9961181fc4927326d9ee3acfe43826000015442604051611d15929190613a91565b60405180910390a15050611d276129f2565b50565b611d3382610ab2565b611d3c81612a84565b611d468383612b80565b505050565b7fcab5a0bfe0b79d2c4b1c2e02599fa044d115b7511f9659307cb4276950967709611d7581612a84565b611d7d6129a4565b611e0d6006805480602002602001604051908101604052809291908181526020018280548015611e0257602002820191906000526020600020905b8160009054906101000a900473ffffffffffffffffffffffffffffffffffffffff1673ffffffffffffffffffffffffffffffffffffffff1681526020019060010190808311611db8575b5050505050856129fc565b15611e4d576040517f08c379a0000000000000000000000000000000000000000000000000000000008152600401611e4490613ef6565b60405180910390fd5b611edd6006805480602002602001604051908101604052809291908181526020018280548015611ed257602002820191906000526020600020905b8160009054906101000a900473ffffffffffffffffffffffffffffffffffffffff1673ffffffffffffffffffffffffffffffffffffffff1681526020019060010190808311611e88575b5050505050846129fc565b15611f1d576040517f08c379a0000000000000000000000000000000000000000000000000000000008152600401611f1490613f62565b60405180910390fd5b611fad6005805480602002602001604051908101604052809291908181526020018280548015611fa257602002820191906000526020600020905b8160009054906101000a900473ffffffffffffffffffffffffffffffffffffffff1673ffffffffffffffffffffffffffffffffffffffff1681526020019060010190808311611f58575b5050505050856129fc565b15611fed576040517f08c379a0000000000000000000000000000000000000000000000000000000008152600401611fe490613fce565b60405180910390fd5b61207d600580548060200260200160405190810160405280929190818152602001828054801561207257602002820191906000526020600020905b8160009054906101000a900473ffffffffffffffffffffffffffffffffffffffff1673ffffffffffffffffffffffffffffffffffffffff1681526020019060010190808311612028575b5050505050846129fc565b156120bd576040517f08c379a00000000000000000000000000000000000000000000000000000000081526004016120b49061403a565b60405180910390fd5b600060405180610100016040528060078054905081526020018673ffffffffffffffffffffffffffffffffffffffff1681526020018573ffffffffffffffffffffffffffffffffffffffff1681526020018481526020016000600481111561212857612127612fce565b5b8152602001600360009054906101000a900460ff1660ff16815260200142815260200142815250905060078190806001815401808255809150506001900390600052602060002090600702016000909190919091506000820151816000015560208201518160010160006101000a81548173ffffffffffffffffffffffffffffffffffffffff021916908373ffffffffffffffffffffffffffffffffffffffff16021790555060408201518160020160006101000a81548173ffffffffffffffffffffffffffffffffffffffff021916908373ffffffffffffffffffffffffffffffffffffffff1602179055506060820151816003015560808201518160040160006101000a81548160ff0219169083600481111561224a57612249612fce565b5b021790555060a08201518160040160016101000a81548160ff021916908360ff16021790555060c0820151816005015560e0820151816006015550507f6dbcb9125fcd9866eb12f64a316c6060bf8d13e2c611153814791cfccb89a4c4816040516122b59190613103565b60405180910390a1506122c66129f2565b50505050565b7fcab5a0bfe0b79d2c4b1c2e02599fa044d115b7511f9659307cb42769509677096122f681612a84565b6122fe6129a4565b600060078381548110612314576123136137d4565b5b906000526020600020906007020190506001600481111561233857612337612fce565b5b8160040160009054906101000a900460ff16600481111561235c5761235b612fce565b5b1461239c576040517f08c379a0000000000000000000000000000000000000000000000000000000008152600401612393906140cc565b60405180910390fd5b60038160040160006101000a81548160ff021916908360048111156123c4576123c3612fce565b5b0217905550428160060181905550600060648260040160019054906101000a900460ff1660ff1683600301546123fa9190613b26565b6124049190613baf565b905080600460008282546124189190613be0565b9250508190555060008260010160009054906101000a900473ffffffffffffffffffffffffffffffffffffffff1673ffffffffffffffffffffffffffffffffffffffff16836003015460405161246d906136f0565b60006040518083038185875af1925050503d80600081146124aa576040519150601f19603f3d011682016040523d82523d6000602084013e6124af565b606091505b50509050806124f3576040517f08c379a00000000000000000000000000000000000000000000000000000000081526004016124ea90614138565b60405180910390fd5b7f912e30bea88d105f456ec136c1d19ce1050ad23b6a9111011bd16455150aed078542604051612524929190613a91565b60405180910390a15050506125376129f2565b5050565b60045481565b606060068054806020026020016040519081016040528092919081815260200182805480156125c557602002820191906000526020600020905b8160009054906101000a900473ffffffffffffffffffffffffffffffffffffffff1673ffffffffffffffffffffffffffffffffffffffff168152602001906001019080831161257b575b5050505050905090565b6125d7612926565b600073ffffffffffffffffffffffffffffffffffffffff168173ffffffffffffffffffffffffffffffffffffffff161415612647576040517f08c379a000000000000000000000000000000000000000000000000000000000815260040161263e906141ca565b60405180910390fd5b61265081612c62565b50565b60606126798273ffffffffffffffffffffffffffffffffffffffff16601460ff16612680565b9050919050565b6060600060028360026126939190613b26565b61269d9190613be0565b67ffffffffffffffff8111156126b6576126b56141ea565b5b6040519080825280601f01601f1916602001820160405280156126e85781602001600182028036833780820191505090505b5090507f3000000000000000000000000000000000000000000000000000000000000000816000815181106127205761271f6137d4565b5b60200101907effffffffffffffffffffffffffffffffffffffffffffffffffffffffffffff1916908160001a9053507f780000000000000000000000000000000000000000000000000000000000000081600181518110612784576127836137d4565b5b60200101907effffffffffffffffffffffffffffffffffffffffffffffffffffffffffffff1916908160001a905350600060018460026127c49190613b26565b6127ce9190613be0565b90505b600181111561286e577f3031323334353637383961626364656600000000000000000000000000000000600f8616601081106128105761280f6137d4565b5b1a60f81b828281518110612827576128266137d4565b5b60200101907effffffffffffffffffffffffffffffffffffffffffffffffffffffffffffff1916908160001a905350600485901c94508061286790614219565b90506127d1565b50600084146128b2576040517f08c379a00000000000000000000000000000000000000000000000000000000081526004016128a99061428f565b60405180910390fd5b8091505092915050565b60007f01ffc9a7000000000000000000000000000000000000000000000000000000007bffffffffffffffffffffffffffffffffffffffffffffffffffffffff1916827bffffffffffffffffffffffffffffffffffffffffffffffffffffffff1916149050919050565b61292e612b78565b73ffffffffffffffffffffffffffffffffffffffff1661294c611869565b73ffffffffffffffffffffffffffffffffffffffff16146129a2576040517f08c379a0000000000000000000000000000000000000000000000000000000008152600401612999906142fb565b60405180910390fd5b565b6002805414156129e9576040517f08c379a00000000000000000000000000000000000000000000000000000000081526004016129e090614367565b60405180910390fd5b60028081905550565b6001600281905550565b600080600090505b8351811015612a78578273ffffffffffffffffffffffffffffffffffffffff16848281518110612a3757612a366137d4565b5b602002602001015173ffffffffffffffffffffffffffffffffffffffff161415612a65576001915050612a7e565b8080612a7090613cd1565b915050612a04565b50600090505b92915050565b612a9581612a90612b78565b612d26565b50565b612aa28282611892565b612b7457600180600084815260200190815260200160002060000160008373ffffffffffffffffffffffffffffffffffffffff1673ffffffffffffffffffffffffffffffffffffffff16815260200190815260200160002060006101000a81548160ff021916908315150217905550612b19612b78565b73ffffffffffffffffffffffffffffffffffffffff168173ffffffffffffffffffffffffffffffffffffffff16837f2f8788117e7eff1d82e926ec794901d17c78024a50270940304540a733656f0d60405160405180910390a45b5050565b600033905090565b612b8a8282611892565b15612c5e5760006001600084815260200190815260200160002060000160008373ffffffffffffffffffffffffffffffffffffffff1673ffffffffffffffffffffffffffffffffffffffff16815260200190815260200160002060006101000a81548160ff021916908315150217905550612c03612b78565b73ffffffffffffffffffffffffffffffffffffffff168173ffffffffffffffffffffffffffffffffffffffff16837ff6391f5c32d9c69d2a47ea670b442974b53935d1edc7fd64eb21e047a839171b60405160405180910390a45b5050565b60008060009054906101000a900473ffffffffffffffffffffffffffffffffffffffff169050816000806101000a81548173ffffffffffffffffffffffffffffffffffffffff021916908373ffffffffffffffffffffffffffffffffffffffff1602179055508173ffffffffffffffffffffffffffffffffffffffff168173ffffffffffffffffffffffffffffffffffffffff167f8be0079c531659141344cd1fd0a4f28419497f9722a3daafe3b4186f6b6457e060405160405180910390a35050565b612d308282611892565b612da757612d3d81612653565b612d4b8360001c6020612680565b604051602001612d5c929190614499565b6040516020818303038152906040526040517f08c379a0000000000000000000000000000000000000000000000000000000008152600401612d9e919061451d565b60405180910390fd5b5050565b60405180610100016040528060008152602001600073ffffffffffffffffffffffffffffffffffffffff168152602001600073ffffffffffffffffffffffffffffffffffffffff1681526020016000815260200160006004811115612e1357612e12612fce565b5b8152602001600060ff16815260200160008152602001600081525090565b600080fd5b60007fffffffff0000000000000000000000000000000000000000000000000000000082169050919050565b612e6b81612e36565b8114612e7657600080fd5b50565b600081359050612e8881612e62565b92915050565b600060208284031215612ea457612ea3612e31565b5b6000612eb284828501612e79565b91505092915050565b60008115159050919050565b612ed081612ebb565b82525050565b6000602082019050612eeb6000830184612ec7565b92915050565b6000819050919050565b612f0481612ef1565b8114612f0f57600080fd5b50565b600081359050612f2181612efb565b92915050565b600060208284031215612f3d57612f3c612e31565b5b6000612f4b84828501612f12565b91505092915050565b600073ffffffffffffffffffffffffffffffffffffffff82169050919050565b6000612f7f82612f54565b9050919050565b612f8f81612f74565b82525050565b6000602082019050612faa6000830184612f86565b92915050565b612fb981612ef1565b82525050565b612fc881612f74565b82525050565b7f4e487b7100000000000000000000000000000000000000000000000000000000600052602160045260246000fd5b6005811061300e5761300d612fce565b5b50565b600081905061301f82612ffd565b919050565b600061302f82613011565b9050919050565b61303f81613024565b82525050565b600060ff82169050919050565b61305b81613045565b82525050565b610100820160008201516130786000850182612fb0565b50602082015161308b6020850182612fbf565b50604082015161309e6040850182612fbf565b5060608201516130b16060850182612fb0565b5060808201516130c46080850182613036565b5060a08201516130d760a0850182613052565b5060c08201516130ea60c0850182612fb0565b5060e08201516130fd60e0850182612fb0565b50505050565b6000610100820190506131196000830184613061565b92915050565b6000819050919050565b6131328161311f565b82525050565b600060208201905061314d6000830184613129565b92915050565b61315c8161311f565b811461316757600080fd5b50565b60008135905061317981613153565b92915050565b60006020828403121561319557613194612e31565b5b60006131a38482850161316a565b91505092915050565b6131b581612f74565b81146131c057600080fd5b50565b6000813590506131d2816131ac565b92915050565b600080604083850312156131ef576131ee612e31565b5b60006131fd8582860161316a565b925050602061320e858286016131c3565b9150509250929050565b61322181613045565b82525050565b600060208201905061323c6000830184613218565b92915050565b600081519050919050565b600082825260208201905092915050565b6000819050602082019050919050565b600061327a8383612fbf565b60208301905092915050565b6000602082019050919050565b600061329e82613242565b6132a8818561324d565b93506132b38361325e565b8060005b838110156132e45781516132cb888261326e565b97506132d683613286565b9250506001810190506132b7565b5085935050505092915050565b6000602082019050818103600083015261330b8184613293565b905092915050565b60006020828403121561332957613328612e31565b5b6000613337848285016131c3565b91505092915050565b61334981613045565b811461335457600080fd5b50565b60008135905061336681613340565b92915050565b60006020828403121561338257613381612e31565b5b600061339084828501613357565b91505092915050565b600081519050919050565b600082825260208201905092915050565b6000819050602082019050919050565b610100820160008201516133dc6000850182612fb0565b5060208201516133ef6020850182612fbf565b5060408201516134026040850182612fbf565b5060608201516134156060850182612fb0565b5060808201516134286080850182613036565b5060a082015161343b60a0850182613052565b5060c082015161344e60c0850182612fb0565b5060e082015161346160e0850182612fb0565b50505050565b600061347383836133c5565b6101008301905092915050565b6000602082019050919050565b600061349882613399565b6134a281856133a4565b93506134ad836133b5565b8060005b838110156134de5781516134c58882613467565b97506134d083613480565b9250506001810190506134b1565b5085935050505092915050565b60006020820190508181036000830152613505818461348d565b905092915050565b60008060006060848603121561352657613525612e31565b5b6000613534868287016131c3565b9350506020613545868287016131c3565b925050604061355686828701612f12565b9150509250925092565b61356981612ef1565b82525050565b60006020820190506135846000830184613560565b92915050565b600082825260208201905092915050565b7f4e6f7420656e6f7567682045544820746f207769746864726177206f6e20636f60008201527f6e74726163740000000000000000000000000000000000000000000000000000602082015250565b60006135f760268361358a565b91506136028261359b565b604082019050919050565b60006020820190508181036000830152613626816135ea565b9050919050565b7f4e6f7420656e6f7567682045544820696e20776974686472617761626c65206660008201527f756e647300000000000000000000000000000000000000000000000000000000602082015250565b600061368960248361358a565b91506136948261362d565b604082019050919050565b600060208201905081810360008301526136b88161367c565b9050919050565b600081905092915050565b50565b60006136da6000836136bf565b91506136e5826136ca565b600082019050919050565b60006136fb826136cd565b9150819050919050565b7f4661696c656420746f2077697468647261772066756e64730000000000000000600082015250565b600061373b60188361358a565b915061374682613705565b602082019050919050565b6000602082019050818103600083015261376a8161372e565b9050919050565b7f4e487b7100000000000000000000000000000000000000000000000000000000600052601160045260246000fd5b60006137ab82612ef1565b91506137b683612ef1565b9250828210156137c9576137c8613771565b5b828203905092915050565b7f4e487b7100000000000000000000000000000000000000000000000000000000600052603260045260246000fd5b7f4f776e65722063616e27742061736b20666f72206265636f6d696e6720616e2060008201527f6167656e74000000000000000000000000000000000000000000000000000000602082015250565b600061385f60258361358a565b915061386a82613803565b604082019050919050565b6000602082019050818103600083015261388e81613852565b9050919050565b7f4164647265737320697320616c726561647920696e20616e206167656e74207760008201527f686974656c697374000000000000000000000000000000000000000000000000602082015250565b60006138f160288361358a565b91506138fc82613895565b604082019050919050565b60006020820190508181036000830152613920816138e4565b9050919050565b7f4164647265737320697320616c726561647920616e206167656e740000000000600082015250565b600061395d601b8361358a565b915061396882613927565b602082019050919050565b6000602082019050818103600083015261398c81613950565b9050919050565b7f416363657373436f6e74726f6c3a2063616e206f6e6c792072656e6f756e636560008201527f20726f6c657320666f722073656c660000000000000000000000000000000000602082015250565b60006139ef602f8361358a565b91506139fa82613993565b604082019050919050565b60006020820190508181036000830152613a1e816139e2565b9050919050565b7f43616e277420617263686976652061637469766520457363726f770000000000600082015250565b6000613a5b601b8361358a565b9150613a6682613a25565b602082019050919050565b60006020820190508181036000830152613a8a81613a4e565b9050919050565b6000604082019050613aa66000830185613560565b613ab36020830184613560565b9392505050565b7f457363726f772063616e6e6f7420626520617070726f76656400000000000000600082015250565b6000613af060198361358a565b9150613afb82613aba565b602082019050919050565b60006020820190508181036000830152613b1f81613ae3565b9050919050565b6000613b3182612ef1565b9150613b3c83612ef1565b9250817fffffffffffffffffffffffffffffffffffffffffffffffffffffffffffffffff0483118215151615613b7557613b74613771565b5b828202905092915050565b7f4e487b7100000000000000000000000000000000000000000000000000000000600052601260045260246000fd5b6000613bba82612ef1565b9150613bc583612ef1565b925082613bd557613bd4613b80565b5b828204905092915050565b6000613beb82612ef1565b9150613bf683612ef1565b9250827fffffffffffffffffffffffffffffffffffffffffffffffffffffffffffffffff03821115613c2b57613c2a613771565b5b828201905092915050565b7f4661696c656420746f2073656e642066756e647320746f2073656c6c65720000600082015250565b6000613c6c601e8361358a565b9150613c7782613c36565b602082019050919050565b60006020820190508181036000830152613c9b81613c5f565b9050919050565b7f4e487b7100000000000000000000000000000000000000000000000000000000600052603160045260246000fd5b6000613cdc82612ef1565b91507fffffffffffffffffffffffffffffffffffffffffffffffffffffffffffffffff821415613d0f57613d0e613771565b5b600182019050919050565b7f4f6e6c792062757965722073686f756c64206465706f73697420696e746f206160008201527f6e20657363726f77000000000000000000000000000000000000000000000000602082015250565b6000613d7660288361358a565b9150613d8182613d1a565b604082019050919050565b60006020820190508181036000830152613da581613d69565b9050919050565b7f457363726f77206973206e6f7420616363657074696e67207061796d656e7473600082015250565b6000613de260208361358a565b9150613ded82613dac565b602082019050919050565b60006020820190508181036000830152613e1181613dd5565b9050919050565b7f4465706f736974206d75737420626520657175616c20746f20616d6f756e742060008201527f696e636c7564696e6720746865206167656e7420666565000000000000000000602082015250565b6000613e7460378361358a565b9150613e7f82613e18565b604082019050919050565b60006020820190508181036000830152613ea381613e67565b9050919050565b7f427579657220697320616e206167656e74000000000000000000000000000000600082015250565b6000613ee060118361358a565b9150613eeb82613eaa565b602082019050919050565b60006020820190508181036000830152613f0f81613ed3565b9050919050565b7f53656c6c657220697320616e206167656e740000000000000000000000000000600082015250565b6000613f4c60128361358a565b9150613f5782613f16565b602082019050919050565b60006020820190508181036000830152613f7b81613f3f565b9050919050565b7f427579657220697320696e20616e206167656e7420776169746c697374000000600082015250565b6000613fb8601d8361358a565b9150613fc382613f82565b602082019050919050565b60006020820190508181036000830152613fe781613fab565b9050919050565b7f53656c6c657220697320696e20616e206167656e7420776169746c6973740000600082015250565b6000614024601e8361358a565b915061402f82613fee565b602082019050919050565b6000602082019050818103600083015261405381614017565b9050919050565b7f596f752063616e206f6e6c792072656a656374206465706f736974656420457360008201527f63726f7700000000000000000000000000000000000000000000000000000000602082015250565b60006140b660248361358a565b91506140c18261405a565b604082019050919050565b600060208201905081810360008301526140e5816140a9565b9050919050565b7f4661696c656420746f2073656e642066756e647320746f206275796572000000600082015250565b6000614122601d8361358a565b915061412d826140ec565b602082019050919050565b6000602082019050818103600083015261415181614115565b9050919050565b7f4f776e61626c653a206e6577206f776e657220697320746865207a65726f206160008201527f6464726573730000000000000000000000000000000000000000000000000000602082015250565b60006141b460268361358a565b91506141bf82614158565b604082019050919050565b600060208201905081810360008301526141e3816141a7565b9050919050565b7f4e487b7100000000000000000000000000000000000000000000000000000000600052604160045260246000fd5b600061422482612ef1565b9150600082141561423857614237613771565b5b600182039050919050565b7f537472696e67733a20686578206c656e67746820696e73756666696369656e74600082015250565b600061427960208361358a565b915061428482614243565b602082019050919050565b600060208201905081810360008301526142a88161426c565b9050919050565b7f4f776e61626c653a2063616c6c6572206973206e6f7420746865206f776e6572600082015250565b60006142e560208361358a565b91506142f0826142af565b602082019050919050565b60006020820190508181036000830152614314816142d8565b9050919050565b7f5265656e7472616e637947756172643a207265656e7472616e742063616c6c00600082015250565b6000614351601f8361358a565b915061435c8261431b565b602082019050919050565b6000602082019050818103600083015261438081614344565b9050919050565b600081905092915050565b7f416363657373436f6e74726f6c3a206163636f756e7420000000000000000000600082015250565b60006143c8601783614387565b91506143d382614392565b601782019050919050565b600081519050919050565b60005b838110156144075780820151818401526020810190506143ec565b83811115614416576000848401525b50505050565b6000614427826143de565b6144318185614387565b93506144418185602086016143e9565b80840191505092915050565b7f206973206d697373696e6720726f6c6520000000000000000000000000000000600082015250565b6000614483601183614387565b915061448e8261444d565b601182019050919050565b60006144a4826143bb565b91506144b0828561441c565b91506144bb82614476565b91506144c7828461441c565b91508190509392505050565b6000601f19601f8301169050919050565b60006144ef826143de565b6144f9818561358a565b93506145098185602086016143e9565b614512816144d3565b840191505092915050565b6000602082019050818103600083015261453781846144e4565b90509291505056fea2646970667358221220e1965f6fd1d0f6ebc8ae32f3e4615fede10c96473a5c1359502229b4bb49f2cd64736f6c63430008090033",
  "linkReferences": {},
  "deployedLinkReferences": {}
}