{
  "_format": "hh-sol-artifact-1",
  "contractName": "EscrowAgent",
  "sourceName": "contracts/EscrowAgent.sol",
  "abi": [
    {
      "inputs": [
        {
          "internalType": "uint8",
          "name": "_agentFeePercentage",
          "type": "uint8"
        }
      ],
      "stateMutability": "nonpayable",
      "type": "constructor"
    },
    {
      "anonymous": false,
      "inputs": [
        {
          "indexed": false,
          "internalType": "address",
          "name": "newAgent",
          "type": "address"
        }
      ],
      "name": "AgentAdded",
      "type": "event"
    },
    {
      "anonymous": false,
      "inputs": [
        {
          "indexed": false,
          "internalType": "address",
          "name": "appliedAgent",
          "type": "address"
        }
      ],
      "name": "AgentApplied",
      "type": "event"
    },
    {
      "anonymous": false,
      "inputs": [
        {
          "indexed": false,
          "internalType": "uint8",
          "name": "newAgentFeePercentage",
          "type": "uint8"
        }
      ],
      "name": "AgentFeePercentageUpdated",
      "type": "event"
    },
    {
      "anonymous": false,
      "inputs": [
        {
          "indexed": false,
          "internalType": "address",
          "name": "newAgent",
          "type": "address"
        }
      ],
      "name": "AgentRevoked",
      "type": "event"
    },
    {
      "anonymous": false,
      "inputs": [
        {
          "indexed": false,
          "internalType": "uint256",
          "name": "escrowId",
          "type": "uint256"
        },
        {
          "indexed": false,
          "internalType": "uint256",
          "name": "timestamp",
          "type": "uint256"
        }
      ],
      "name": "EscrowApproved",
      "type": "event"
    },
    {
      "anonymous": false,
      "inputs": [
        {
          "indexed": false,
          "internalType": "uint256",
          "name": "escrowId",
          "type": "uint256"
        },
        {
          "indexed": false,
          "internalType": "uint256",
          "name": "timestamp",
          "type": "uint256"
        }
      ],
      "name": "EscrowArchived",
      "type": "event"
    },
    {
      "anonymous": false,
      "inputs": [
        {
          "indexed": false,
          "internalType": "uint256",
          "name": "escrowId",
          "type": "uint256"
        },
        {
          "indexed": false,
          "internalType": "uint256",
          "name": "timestamp",
          "type": "uint256"
        }
      ],
      "name": "EscrowCanceled",
      "type": "event"
    },
    {
      "anonymous": false,
      "inputs": [
        {
          "components": [
            {
              "internalType": "uint256",
              "name": "id",
              "type": "uint256"
            },
            {
              "internalType": "address",
              "name": "buyer",
              "type": "address"
            },
            {
              "internalType": "address",
              "name": "seller",
              "type": "address"
            },
            {
              "internalType": "uint256",
              "name": "amount",
              "type": "uint256"
            },
            {
              "internalType": "enum EscrowBase.EscrowStatus",
              "name": "status",
              "type": "uint8"
            },
            {
              "internalType": "uint8",
              "name": "agentFeePercentage",
              "type": "uint8"
            },
            {
              "internalType": "uint256",
              "name": "createdAt",
              "type": "uint256"
            },
            {
              "internalType": "uint256",
              "name": "updatedAt",
              "type": "uint256"
            }
          ],
          "indexed": false,
          "internalType": "struct EscrowBase.EscrowDocument",
          "name": "escrowDocument",
          "type": "tuple"
        }
      ],
      "name": "EscrowInitiated",
      "type": "event"
    },
    {
      "anonymous": false,
      "inputs": [
        {
          "indexed": false,
          "internalType": "uint256",
          "name": "escrowId",
          "type": "uint256"
        },
        {
          "indexed": false,
          "internalType": "uint256",
          "name": "timestamp",
          "type": "uint256"
        }
      ],
      "name": "EscrowPaid",
      "type": "event"
    },
    {
      "anonymous": false,
      "inputs": [
        {
          "indexed": false,
          "internalType": "uint256",
          "name": "amount",
          "type": "uint256"
        }
      ],
      "name": "FundsWithdrawn",
      "type": "event"
    },
    {
      "anonymous": false,
      "inputs": [
        {
          "indexed": true,
          "internalType": "address",
          "name": "previousOwner",
          "type": "address"
        },
        {
          "indexed": true,
          "internalType": "address",
          "name": "newOwner",
          "type": "address"
        }
      ],
      "name": "OwnershipTransferred",
      "type": "event"
    },
    {
      "anonymous": false,
      "inputs": [
        {
          "indexed": true,
          "internalType": "bytes32",
          "name": "role",
          "type": "bytes32"
        },
        {
          "indexed": true,
          "internalType": "bytes32",
          "name": "previousAdminRole",
          "type": "bytes32"
        },
        {
          "indexed": true,
          "internalType": "bytes32",
          "name": "newAdminRole",
          "type": "bytes32"
        }
      ],
      "name": "RoleAdminChanged",
      "type": "event"
    },
    {
      "anonymous": false,
      "inputs": [
        {
          "indexed": true,
          "internalType": "bytes32",
          "name": "role",
          "type": "bytes32"
        },
        {
          "indexed": true,
          "internalType": "address",
          "name": "account",
          "type": "address"
        },
        {
          "indexed": true,
          "internalType": "address",
          "name": "sender",
          "type": "address"
        }
      ],
      "name": "RoleGranted",
      "type": "event"
    },
    {
      "anonymous": false,
      "inputs": [
        {
          "indexed": true,
          "internalType": "bytes32",
          "name": "role",
          "type": "bytes32"
        },
        {
          "indexed": true,
          "internalType": "address",
          "name": "account",
          "type": "address"
        },
        {
          "indexed": true,
          "internalType": "address",
          "name": "sender",
          "type": "address"
        }
      ],
      "name": "RoleRevoked",
      "type": "event"
    },
    {
      "inputs": [],
      "name": "AGENT_ROLE",
      "outputs": [
        {
          "internalType": "bytes32",
          "name": "",
          "type": "bytes32"
        }
      ],
      "stateMutability": "view",
      "type": "function"
    },
    {
      "inputs": [],
      "name": "DEFAULT_ADMIN_ROLE",
      "outputs": [
        {
          "internalType": "bytes32",
          "name": "",
          "type": "bytes32"
        }
      ],
      "stateMutability": "view",
      "type": "function"
    },
    {
      "inputs": [
        {
          "internalType": "address",
          "name": "_agent",
          "type": "address"
        }
      ],
      "name": "addAgent",
      "outputs": [],
      "stateMutability": "nonpayable",
      "type": "function"
    },
    {
      "inputs": [],
      "name": "agentFeePercentage",
      "outputs": [
        {
          "internalType": "uint8",
          "name": "",
          "type": "uint8"
        }
      ],
      "stateMutability": "view",
      "type": "function"
    },
    {
      "inputs": [
        {
          "internalType": "uint256",
          "name": "",
          "type": "uint256"
        }
      ],
      "name": "agentWaitlist",
      "outputs": [
        {
          "internalType": "address",
          "name": "",
          "type": "address"
        }
      ],
      "stateMutability": "view",
      "type": "function"
    },
    {
      "inputs": [
        {
          "internalType": "uint256",
          "name": "",
          "type": "uint256"
        }
      ],
      "name": "agents",
      "outputs": [
        {
          "internalType": "address",
          "name": "",
          "type": "address"
        }
      ],
      "stateMutability": "view",
      "type": "function"
    },
    {
      "inputs": [],
      "name": "applyForAgent",
      "outputs": [],
      "stateMutability": "nonpayable",
      "type": "function"
    },
    {
      "inputs": [
        {
          "internalType": "uint256",
          "name": "_escrowId",
          "type": "uint256"
        }
      ],
      "name": "approveEscrow",
      "outputs": [],
      "stateMutability": "nonpayable",
      "type": "function"
    },
    {
      "inputs": [
        {
          "internalType": "uint256",
          "name": "_escrowId",
          "type": "uint256"
        }
      ],
      "name": "archiveEscrow",
      "outputs": [],
      "stateMutability": "nonpayable",
      "type": "function"
    },
    {
      "inputs": [
        {
          "internalType": "uint256",
          "name": "_escrowId",
          "type": "uint256"
        }
      ],
      "name": "cancelEscrow",
      "outputs": [],
      "stateMutability": "nonpayable",
      "type": "function"
    },
    {
      "inputs": [
        {
          "internalType": "uint8",
          "name": "_newFeePercentage",
          "type": "uint8"
        }
      ],
      "name": "changeAgentFeePercentage",
      "outputs": [],
      "stateMutability": "nonpayable",
      "type": "function"
    },
    {
      "inputs": [
        {
          "internalType": "uint256",
          "name": "_escrowId",
          "type": "uint256"
        }
      ],
      "name": "depositEscrow",
      "outputs": [],
      "stateMutability": "payable",
      "type": "function"
    },
    {
      "inputs": [],
      "name": "getAgents",
      "outputs": [
        {
          "internalType": "address[]",
          "name": "",
          "type": "address[]"
        }
      ],
      "stateMutability": "view",
      "type": "function"
    },
    {
      "inputs": [],
      "name": "getAgentsWaitlist",
      "outputs": [
        {
          "internalType": "address[]",
          "name": "",
          "type": "address[]"
        }
      ],
      "stateMutability": "view",
      "type": "function"
    },
    {
      "inputs": [],
      "name": "getAllEscrows",
      "outputs": [
        {
          "components": [
            {
              "internalType": "uint256",
              "name": "id",
              "type": "uint256"
            },
            {
              "internalType": "address",
              "name": "buyer",
              "type": "address"
            },
            {
              "internalType": "address",
              "name": "seller",
              "type": "address"
            },
            {
              "internalType": "uint256",
              "name": "amount",
              "type": "uint256"
            },
            {
              "internalType": "enum EscrowBase.EscrowStatus",
              "name": "status",
              "type": "uint8"
            },
            {
              "internalType": "uint8",
              "name": "agentFeePercentage",
              "type": "uint8"
            },
            {
              "internalType": "uint256",
              "name": "createdAt",
              "type": "uint256"
            },
            {
              "internalType": "uint256",
              "name": "updatedAt",
              "type": "uint256"
            }
          ],
          "internalType": "struct EscrowBase.EscrowDocument[]",
          "name": "",
          "type": "tuple[]"
        }
      ],
      "stateMutability": "view",
      "type": "function"
    },
    {
      "inputs": [
        {
          "internalType": "uint256",
          "name": "_escrowId",
          "type": "uint256"
        }
      ],
      "name": "getEscrowById",
      "outputs": [
        {
          "components": [
            {
              "internalType": "uint256",
              "name": "id",
              "type": "uint256"
            },
            {
              "internalType": "address",
              "name": "buyer",
              "type": "address"
            },
            {
              "internalType": "address",
              "name": "seller",
              "type": "address"
            },
            {
              "internalType": "uint256",
              "name": "amount",
              "type": "uint256"
            },
            {
              "internalType": "enum EscrowBase.EscrowStatus",
              "name": "status",
              "type": "uint8"
            },
            {
              "internalType": "uint8",
              "name": "agentFeePercentage",
              "type": "uint8"
            },
            {
              "internalType": "uint256",
              "name": "createdAt",
              "type": "uint256"
            },
            {
              "internalType": "uint256",
              "name": "updatedAt",
              "type": "uint256"
            }
          ],
          "internalType": "struct EscrowBase.EscrowDocument",
          "name": "",
          "type": "tuple"
        }
      ],
      "stateMutability": "view",
      "type": "function"
    },
    {
      "inputs": [
        {
          "internalType": "bytes32",
          "name": "role",
          "type": "bytes32"
        }
      ],
      "name": "getRoleAdmin",
      "outputs": [
        {
          "internalType": "bytes32",
          "name": "",
          "type": "bytes32"
        }
      ],
      "stateMutability": "view",
      "type": "function"
    },
    {
      "inputs": [
        {
          "internalType": "bytes32",
          "name": "role",
          "type": "bytes32"
        },
        {
          "internalType": "address",
          "name": "account",
          "type": "address"
        }
      ],
      "name": "grantRole",
      "outputs": [],
      "stateMutability": "nonpayable",
      "type": "function"
    },
    {
      "inputs": [
        {
          "internalType": "bytes32",
          "name": "role",
          "type": "bytes32"
        },
        {
          "internalType": "address",
          "name": "account",
          "type": "address"
        }
      ],
      "name": "hasRole",
      "outputs": [
        {
          "internalType": "bool",
          "name": "",
          "type": "bool"
        }
      ],
      "stateMutability": "view",
      "type": "function"
    },
    {
      "inputs": [
        {
          "internalType": "address",
          "name": "_buyer",
          "type": "address"
        },
        {
          "internalType": "address",
          "name": "_seller",
          "type": "address"
        },
        {
          "internalType": "uint256",
          "name": "_amount",
          "type": "uint256"
        }
      ],
      "name": "initiateEscrow",
      "outputs": [],
      "stateMutability": "nonpayable",
      "type": "function"
    },
    {
      "inputs": [],
      "name": "owner",
      "outputs": [
        {
          "internalType": "address",
          "name": "",
          "type": "address"
        }
      ],
      "stateMutability": "view",
      "type": "function"
    },
    {
      "inputs": [],
      "name": "renounceOwnership",
      "outputs": [],
      "stateMutability": "nonpayable",
      "type": "function"
    },
    {
      "inputs": [
        {
          "internalType": "bytes32",
          "name": "role",
          "type": "bytes32"
        },
        {
          "internalType": "address",
          "name": "account",
          "type": "address"
        }
      ],
      "name": "renounceRole",
      "outputs": [],
      "stateMutability": "nonpayable",
      "type": "function"
    },
    {
      "inputs": [
        {
          "internalType": "address",
          "name": "_agent",
          "type": "address"
        }
      ],
      "name": "revokeAgent",
      "outputs": [],
      "stateMutability": "nonpayable",
      "type": "function"
    },
    {
      "inputs": [
        {
          "internalType": "bytes32",
          "name": "role",
          "type": "bytes32"
        },
        {
          "internalType": "address",
          "name": "account",
          "type": "address"
        }
      ],
      "name": "revokeRole",
      "outputs": [],
      "stateMutability": "nonpayable",
      "type": "function"
    },
    {
      "inputs": [
        {
          "internalType": "bytes4",
          "name": "interfaceId",
          "type": "bytes4"
        }
      ],
      "name": "supportsInterface",
      "outputs": [
        {
          "internalType": "bool",
          "name": "",
          "type": "bool"
        }
      ],
      "stateMutability": "view",
      "type": "function"
    },
    {
      "inputs": [
        {
          "internalType": "address",
          "name": "newOwner",
          "type": "address"
        }
      ],
      "name": "transferOwnership",
      "outputs": [],
      "stateMutability": "nonpayable",
      "type": "function"
    },
    {
      "inputs": [
        {
          "internalType": "uint256",
          "name": "_amount",
          "type": "uint256"
        }
      ],
      "name": "withdrawFunds",
      "outputs": [],
      "stateMutability": "nonpayable",
      "type": "function"
    },
    {
      "inputs": [],
      "name": "withdrawableFunds",
      "outputs": [
        {
          "internalType": "uint256",
          "name": "",
          "type": "uint256"
        }
      ],
      "stateMutability": "view",
      "type": "function"
    }
  ],
  "bytecode": "0x60806040523480156200001157600080fd5b50604051620050ba380380620050ba8339818101604052810190620000379190620006ec565b620000576200004b620000c860201b60201c565b620000d060201b60201c565b6001600281905550620000746000801b336200019460201b60201c565b620000a67fcab5a0bfe0b79d2c4b1c2e02599fa044d115b7511f9659307cb4276950967709336200028560201b60201c565b80600360006101000a81548160ff021916908360ff1602179055505062000b00565b600033905090565b60008060009054906101000a900473ffffffffffffffffffffffffffffffffffffffff169050816000806101000a81548173ffffffffffffffffffffffffffffffffffffffff021916908373ffffffffffffffffffffffffffffffffffffffff1602179055508173ffffffffffffffffffffffffffffffffffffffff168173ffffffffffffffffffffffffffffffffffffffff167f8be0079c531659141344cd1fd0a4f28419497f9722a3daafe3b4186f6b6457e060405160405180910390a35050565b620001a68282620002be60201b60201c565b6200028157600180600084815260200190815260200160002060000160008373ffffffffffffffffffffffffffffffffffffffff1673ffffffffffffffffffffffffffffffffffffffff16815260200190815260200160002060006101000a81548160ff02191690831515021790555062000226620000c860201b60201c565b73ffffffffffffffffffffffffffffffffffffffff168173ffffffffffffffffffffffffffffffffffffffff16837f2f8788117e7eff1d82e926ec794901d17c78024a50270940304540a733656f0d60405160405180910390a45b5050565b62000296826200032960201b60201c565b620002a7816200034960201b60201c565b620002b983836200019460201b60201c565b505050565b60006001600084815260200190815260200160002060000160008373ffffffffffffffffffffffffffffffffffffffff1673ffffffffffffffffffffffffffffffffffffffff16815260200190815260200160002060009054906101000a900460ff16905092915050565b600060016000838152602001908152602001600020600101549050919050565b6200036a816200035e620000c860201b60201c565b6200036d60201b60201c565b50565b6200037f8282620002be60201b60201c565b62000415576200039a816200041960201b620026881760201c565b620003b58360001c60206200044e60201b620026b51760201c565b604051602001620003c892919062000841565b6040516020818303038152906040526040517f08c379a00000000000000000000000000000000000000000000000000000000081526004016200040c9190620008e6565b60405180910390fd5b5050565b6060620004478273ffffffffffffffffffffffffffffffffffffffff16601460ff166200044e60201b60201c565b9050919050565b60606000600283600262000463919062000943565b6200046f9190620009a4565b67ffffffffffffffff8111156200048b576200048a62000a01565b5b6040519080825280601f01601f191660200182016040528015620004be5781602001600182028036833780820191505090505b5090507f300000000000000000000000000000000000000000000000000000000000000081600081518110620004f957620004f862000a30565b5b60200101907effffffffffffffffffffffffffffffffffffffffffffffffffffffffffffff1916908160001a9053507f78000000000000000000000000000000000000000000000000000000000000008160018151811062000560576200055f62000a30565b5b60200101907effffffffffffffffffffffffffffffffffffffffffffffffffffffffffffff1916908160001a90535060006001846002620005a2919062000943565b620005ae9190620009a4565b90505b600181111562000658577f3031323334353637383961626364656600000000000000000000000000000000600f861660108110620005f457620005f362000a30565b5b1a60f81b8282815181106200060e576200060d62000a30565b5b60200101907effffffffffffffffffffffffffffffffffffffffffffffffffffffffffffff1916908160001a905350600485901c945080620006509062000a5f565b9050620005b1565b50600084146200069f576040517f08c379a0000000000000000000000000000000000000000000000000000000008152600401620006969062000ade565b60405180910390fd5b8091505092915050565b600080fd5b600060ff82169050919050565b620006c681620006ae565b8114620006d257600080fd5b50565b600081519050620006e681620006bb565b92915050565b600060208284031215620007055762000704620006a9565b5b60006200071584828501620006d5565b91505092915050565b600081905092915050565b7f416363657373436f6e74726f6c3a206163636f756e7420000000000000000000600082015250565b6000620007616017836200071e565b91506200076e8262000729565b601782019050919050565b600081519050919050565b60005b83811015620007a457808201518184015260208101905062000787565b83811115620007b4576000848401525b50505050565b6000620007c78262000779565b620007d381856200071e565b9350620007e581856020860162000784565b80840191505092915050565b7f206973206d697373696e6720726f6c6520000000000000000000000000000000600082015250565b6000620008296011836200071e565b91506200083682620007f1565b601182019050919050565b60006200084e8262000752565b91506200085c8285620007ba565b915062000869826200081a565b9150620008778284620007ba565b91508190509392505050565b600082825260208201905092915050565b6000601f19601f8301169050919050565b6000620008b28262000779565b620008be818562000883565b9350620008d081856020860162000784565b620008db8162000894565b840191505092915050565b60006020820190508181036000830152620009028184620008a5565b905092915050565b6000819050919050565b7f4e487b7100000000000000000000000000000000000000000000000000000000600052601160045260246000fd5b600062000950826200090a565b91506200095d836200090a565b9250817fffffffffffffffffffffffffffffffffffffffffffffffffffffffffffffffff048311821515161562000999576200099862000914565b5b828202905092915050565b6000620009b1826200090a565b9150620009be836200090a565b9250827fffffffffffffffffffffffffffffffffffffffffffffffffffffffffffffffff03821115620009f657620009f562000914565b5b828201905092915050565b7f4e487b7100000000000000000000000000000000000000000000000000000000600052604160045260246000fd5b7f4e487b7100000000000000000000000000000000000000000000000000000000600052603260045260246000fd5b600062000a6c826200090a565b9150600082141562000a835762000a8262000914565b5b600182039050919050565b7f537472696e67733a20686578206c656e67746820696e73756666696369656e74600082015250565b600062000ac660208362000883565b915062000ad38262000a8e565b602082019050919050565b6000602082019050818103600083015262000af98162000ab7565b9050919050565b6145aa8062000b106000396000f3fe6080604052600436106101c25760003560e01c8063715018a6116100f7578063a217fddf11610095578063e018243611610064578063e01824361461061b578063e617ea5c14610644578063eac3fda41461066f578063f2fde38b1461069a576101c2565b8063a217fddf14610582578063cb991efe146105ad578063d547741f146105c9578063df55ab59146105f2576101c2565b80638da5cb5b116100d15780638da5cb5b146104c657806391d14854146104f1578063981895391461052e5780639a6ac36f14610557576101c2565b8063715018a61461045d5780637da6ac0d1461047457806384e798421461049d576101c2565b80632aef40d611610164578063398ab7731161013e578063398ab773146103a1578063513856c8146103ca57806369e36beb146104075780636b7a553a14610432576101c2565b80632aef40d6146103385780632f2ff15d1461034f57806336568abe14610378576101c2565b8063155dd5ee116101a0578063155dd5ee1461026a57806320ca04181461029357806322459e18146102d0578063248a9ca3146102fb576101c2565b806301ffc9a7146101c757806303fce7ef146102045780630e7b2c0e1461022d575b600080fd5b3480156101d357600080fd5b506101ee60048036038101906101e99190612ec3565b6106c3565b6040516101fb9190612f0b565b60405180910390f35b34801561021057600080fd5b5061022b60048036038101906102269190612f5c565b61073d565b005b34801561023957600080fd5b50610254600480360381019061024f9190612f5c565b6109b0565b6040516102619190612fca565b60405180910390f35b34801561027657600080fd5b50610291600480360381019061028c9190612f5c565b6109ef565b005b34801561029f57600080fd5b506102ba60048036038101906102b59190612f5c565b610b96565b6040516102c79190613138565b60405180910390f35b3480156102dc57600080fd5b506102e5610cff565b6040516102f2919061316d565b60405180910390f35b34801561030757600080fd5b50610322600480360381019061031d91906131b4565b610d23565b60405161032f919061316d565b60405180910390f35b34801561034457600080fd5b5061034d610d43565b005b34801561035b57600080fd5b506103766004803603810190610371919061320d565b611005565b005b34801561038457600080fd5b5061039f600480360381019061039a919061320d565b611026565b005b3480156103ad57600080fd5b506103c860048036038101906103c39190612f5c565b6110a9565b005b3480156103d657600080fd5b506103f160048036038101906103ec9190612f5c565b6111f5565b6040516103fe9190612fca565b60405180910390f35b34801561041357600080fd5b5061041c611234565b604051610429919061325c565b60405180910390f35b34801561043e57600080fd5b50610447611247565b6040516104549190613326565b60405180910390f35b34801561046957600080fd5b506104726112d5565b005b34801561048057600080fd5b5061049b60048036038101906104969190613348565b6112e9565b005b3480156104a957600080fd5b506104c460048036038101906104bf9190613348565b6114df565b005b3480156104d257600080fd5b506104db61189e565b6040516104e89190612fca565b60405180910390f35b3480156104fd57600080fd5b506105186004803603810190610513919061320d565b6118c7565b6040516105259190612f0b565b60405180910390f35b34801561053a57600080fd5b50610555600480360381019061055091906133a1565b611932565b005b34801561056357600080fd5b5061056c61198f565b6040516105799190613520565b60405180910390f35b34801561058e57600080fd5b50610597611b1b565b6040516105a4919061316d565b60405180910390f35b6105c760048036038101906105c29190612f5c565b611b22565b005b3480156105d557600080fd5b506105f060048036038101906105eb919061320d565b611d5f565b005b3480156105fe57600080fd5b5061061960048036038101906106149190613542565b611d80565b005b34801561062757600080fd5b50610642600480360381019061063d9190612f5c565b612301565b005b34801561065057600080fd5b50610659612570565b60405161066691906135a4565b60405180910390f35b34801561067b57600080fd5b50610684612576565b6040516106919190613326565b60405180910390f35b3480156106a657600080fd5b506106c160048036038101906106bc9190613348565b612604565b005b60007f7965db0b000000000000000000000000000000000000000000000000000000007bffffffffffffffffffffffffffffffffffffffffffffffffffffffff1916827bffffffffffffffffffffffffffffffffffffffffffffffffffffffff191614806107365750610735826128f1565b5b9050919050565b7fcab5a0bfe0b79d2c4b1c2e02599fa044d115b7511f9659307cb42769509677096107678161295b565b61076f61296f565b600060078381548110610785576107846135bf565b5b90600052602060002090600702019050600160048111156107a9576107a8613003565b5b8160040160009054906101000a900460ff1660048111156107cd576107cc613003565b5b1461080d576040517f08c379a00000000000000000000000000000000000000000000000000000000081526004016108049061364b565b60405180910390fd5b600060648260040160019054906101000a900460ff1660ff168360030154610835919061369a565b61083f9190613723565b905060028260040160006101000a81548160ff0219169083600481111561086957610868613003565b5b021790555042826006018190555080600460008282546108899190613754565b9250508190555060008260020160009054906101000a900473ffffffffffffffffffffffffffffffffffffffff1673ffffffffffffffffffffffffffffffffffffffff1683600301546040516108de906137db565b60006040518083038185875af1925050503d806000811461091b576040519150601f19603f3d011682016040523d82523d6000602084013e610920565b606091505b5050905080610964576040517f08c379a000000000000000000000000000000000000000000000000000000000815260040161095b9061383c565b60405180910390fd5b7f599da1658702c24a94818de06b47dcb625541f89b8d6077f376527447de8aa5e83600001544260405161099992919061385c565b60405180910390a15050506109ac6129bd565b5050565b600581815481106109c057600080fd5b906000526020600020016000915054906101000a900473ffffffffffffffffffffffffffffffffffffffff1681565b6109f76129c7565b6109ff61296f565b47811115610a42576040517f08c379a0000000000000000000000000000000000000000000000000000000008152600401610a39906138f7565b60405180910390fd5b600454811115610a87576040517f08c379a0000000000000000000000000000000000000000000000000000000008152600401610a7e90613989565b60405180910390fd5b6000610a9161189e565b73ffffffffffffffffffffffffffffffffffffffff1682604051610ab4906137db565b60006040518083038185875af1925050503d8060008114610af1576040519150601f19603f3d011682016040523d82523d6000602084013e610af6565b606091505b5050905080610b3a576040517f08c379a0000000000000000000000000000000000000000000000000000000008152600401610b31906139f5565b60405180910390fd5b7f4a37b25aab49761ecf63117fe82b98d750917451133cf797507bc9fb5b96044a82604051610b6991906135a4565b60405180910390a18160046000828254610b839190613a15565b9250508190555050610b936129bd565b50565b610b9e612de0565b60078281548110610bb257610bb16135bf565b5b906000526020600020906007020160405180610100016040529081600082015481526020016001820160009054906101000a900473ffffffffffffffffffffffffffffffffffffffff1673ffffffffffffffffffffffffffffffffffffffff1673ffffffffffffffffffffffffffffffffffffffff1681526020016002820160009054906101000a900473ffffffffffffffffffffffffffffffffffffffff1673ffffffffffffffffffffffffffffffffffffffff1673ffffffffffffffffffffffffffffffffffffffff168152602001600382015481526020016004820160009054906101000a900460ff166004811115610cb157610cb0613003565b5b6004811115610cc357610cc2613003565b5b81526020016004820160019054906101000a900460ff1660ff1660ff168152602001600582015481526020016006820154815250509050919050565b7fcab5a0bfe0b79d2c4b1c2e02599fa044d115b7511f9659307cb427695096770981565b600060016000838152602001908152602001600020600101549050919050565b610d4b61296f565b610d5361189e565b73ffffffffffffffffffffffffffffffffffffffff163373ffffffffffffffffffffffffffffffffffffffff161415610dc1576040517f08c379a0000000000000000000000000000000000000000000000000000000008152600401610db890613abb565b60405180910390fd5b610e516005805480602002602001604051908101604052809291908181526020018280548015610e4657602002820191906000526020600020905b8160009054906101000a900473ffffffffffffffffffffffffffffffffffffffff1673ffffffffffffffffffffffffffffffffffffffff1681526020019060010190808311610dfc575b505050505033612a45565b15610e91576040517f08c379a0000000000000000000000000000000000000000000000000000000008152600401610e8890613b4d565b60405180910390fd5b610f216006805480602002602001604051908101604052809291908181526020018280548015610f1657602002820191906000526020600020905b8160009054906101000a900473ffffffffffffffffffffffffffffffffffffffff1673ffffffffffffffffffffffffffffffffffffffff1681526020019060010190808311610ecc575b505050505033612a45565b15610f61576040517f08c379a0000000000000000000000000000000000000000000000000000000008152600401610f5890613bb9565b60405180910390fd5b6005339080600181540180825580915050600190039060005260206000200160009091909190916101000a81548173ffffffffffffffffffffffffffffffffffffffff021916908373ffffffffffffffffffffffffffffffffffffffff1602179055507f182179151dc76ce9b128e88cbed0a97f383f1e4ec2728f7e02013aea4e2ad08033604051610ff39190612fca565b60405180910390a16110036129bd565b565b61100e82610d23565b6110178161295b565b6110218383612acd565b505050565b61102e612bad565b73ffffffffffffffffffffffffffffffffffffffff168173ffffffffffffffffffffffffffffffffffffffff161461109b576040517f08c379a000000000000000000000000000000000000000000000000000000000815260040161109290613c4b565b60405180910390fd5b6110a58282612bb5565b5050565b7fcab5a0bfe0b79d2c4b1c2e02599fa044d115b7511f9659307cb42769509677096110d38161295b565b6110db61296f565b6000600783815481106110f1576110f06135bf565b5b906000526020600020906007020190506000600481111561111557611114613003565b5b8160040160009054906101000a900460ff16600481111561113957611138613003565b5b14611179576040517f08c379a000000000000000000000000000000000000000000000000000000000815260040161117090613cb7565b60405180910390fd5b60048160040160006101000a81548160ff021916908360048111156111a1576111a0613003565b5b02179055504281600601819055507ff7f67bfa0cb6f4f063d06fc242568b74a8e5cd03190e3b30a19fc552e0e46cee83426040516111e092919061385c565b60405180910390a1506111f16129bd565b5050565b6006818154811061120557600080fd5b906000526020600020016000915054906101000a900473ffffffffffffffffffffffffffffffffffffffff1681565b600360009054906101000a900460ff1681565b606060058054806020026020016040519081016040528092919081815260200182805480156112cb57602002820191906000526020600020905b8160009054906101000a900473ffffffffffffffffffffffffffffffffffffffff1673ffffffffffffffffffffffffffffffffffffffff1681526020019060010190808311611281575b5050505050905090565b6112dd6129c7565b6112e76000612c97565b565b6112f16129c7565b61131b7fcab5a0bfe0b79d2c4b1c2e02599fa044d115b7511f9659307cb427695096770982611d5f565b60005b6006805490508110156114a4578173ffffffffffffffffffffffffffffffffffffffff1660068281548110611356576113556135bf565b5b9060005260206000200160009054906101000a900473ffffffffffffffffffffffffffffffffffffffff1673ffffffffffffffffffffffffffffffffffffffff16141561149157600660016006805490506113b19190613a15565b815481106113c2576113c16135bf565b5b9060005260206000200160009054906101000a900473ffffffffffffffffffffffffffffffffffffffff1660068281548110611401576114006135bf565b5b9060005260206000200160006101000a81548173ffffffffffffffffffffffffffffffffffffffff021916908373ffffffffffffffffffffffffffffffffffffffff160217905550600680548061145b5761145a613cd7565b5b6001900381819060005260206000200160006101000a81549073ffffffffffffffffffffffffffffffffffffffff021916905590555b808061149c90613d06565b91505061131e565b507f1d2ac3af5c639e57ee8f25bc162ea13a1ef8a663c92a4f3e33f126dd2d4feba4816040516114d49190612fca565b60405180910390a150565b6114e76129c7565b611577600680548060200260200160405190810160405280929190818152602001828054801561156c57602002820191906000526020600020905b8160009054906101000a900473ffffffffffffffffffffffffffffffffffffffff1673ffffffffffffffffffffffffffffffffffffffff1681526020019060010190808311611522575b505050505082612a45565b156115b7576040517f08c379a00000000000000000000000000000000000000000000000000000000081526004016115ae90613bb9565b60405180910390fd5b611647600580548060200260200160405190810160405280929190818152602001828054801561163c57602002820191906000526020600020905b8160009054906101000a900473ffffffffffffffffffffffffffffffffffffffff1673ffffffffffffffffffffffffffffffffffffffff16815260200190600101908083116115f2575b505050505082612a45565b156117d75760005b6005805490508110156117d5578173ffffffffffffffffffffffffffffffffffffffff1660058281548110611687576116866135bf565b5b9060005260206000200160009054906101000a900473ffffffffffffffffffffffffffffffffffffffff1673ffffffffffffffffffffffffffffffffffffffff1614156117c257600560016005805490506116e29190613a15565b815481106116f3576116f26135bf565b5b9060005260206000200160009054906101000a900473ffffffffffffffffffffffffffffffffffffffff1660058281548110611732576117316135bf565b5b9060005260206000200160006101000a81548173ffffffffffffffffffffffffffffffffffffffff021916908373ffffffffffffffffffffffffffffffffffffffff160217905550600580548061178c5761178b613cd7565b5b6001900381819060005260206000200160006101000a81549073ffffffffffffffffffffffffffffffffffffffff021916905590555b80806117cd90613d06565b91505061164f565b505b6118017fcab5a0bfe0b79d2c4b1c2e02599fa044d115b7511f9659307cb427695096770982611005565b6006819080600181540180825580915050600190039060005260206000200160009091909190916101000a81548173ffffffffffffffffffffffffffffffffffffffff021916908373ffffffffffffffffffffffffffffffffffffffff1602179055507ff68e73cec97f2d70aa641fb26e87a4383686e2efacb648f2165aeb02ac562ec5816040516118939190612fca565b60405180910390a150565b60008060009054906101000a900473ffffffffffffffffffffffffffffffffffffffff16905090565b60006001600084815260200190815260200160002060000160008373ffffffffffffffffffffffffffffffffffffffff1673ffffffffffffffffffffffffffffffffffffffff16815260200190815260200160002060009054906101000a900460ff16905092915050565b61193a6129c7565b80600360006101000a81548160ff021916908360ff1602179055507fce7d01952d08f1136c73e6e86104a39c291e9eddec4df66e861482c52656aab681604051611984919061325c565b60405180910390a150565b60606007805480602002602001604051908101604052809291908181526020016000905b82821015611b12578382906000526020600020906007020160405180610100016040529081600082015481526020016001820160009054906101000a900473ffffffffffffffffffffffffffffffffffffffff1673ffffffffffffffffffffffffffffffffffffffff1673ffffffffffffffffffffffffffffffffffffffff1681526020016002820160009054906101000a900473ffffffffffffffffffffffffffffffffffffffff1673ffffffffffffffffffffffffffffffffffffffff1673ffffffffffffffffffffffffffffffffffffffff168152602001600382015481526020016004820160009054906101000a900460ff166004811115611abc57611abb613003565b5b6004811115611ace57611acd613003565b5b81526020016004820160019054906101000a900460ff1660ff1660ff16815260200160058201548152602001600682015481525050815260200190600101906119b3565b50505050905090565b6000801b81565b611b2a61296f565b600060078281548110611b4057611b3f6135bf565b5b906000526020600020906007020190503373ffffffffffffffffffffffffffffffffffffffff168160010160009054906101000a900473ffffffffffffffffffffffffffffffffffffffff1673ffffffffffffffffffffffffffffffffffffffff1614611be2576040517f08c379a0000000000000000000000000000000000000000000000000000000008152600401611bd990613dc1565b60405180910390fd5b60006004811115611bf657611bf5613003565b5b8160040160009054906101000a900460ff166004811115611c1a57611c19613003565b5b14611c5a576040517f08c379a0000000000000000000000000000000000000000000000000000000008152600401611c5190613e2d565b60405180910390fd5b600060648260040160019054906101000a900460ff1660ff168360030154611c82919061369a565b611c8c9190613723565b905034818360030154611c9f9190613754565b14611cdf576040517f08c379a0000000000000000000000000000000000000000000000000000000008152600401611cd690613ebf565b60405180910390fd5b60018260040160006101000a81548160ff02191690836004811115611d0757611d06613003565b5b02179055504282600601819055507f8db6ba856847e4dcb64228091144f21130aca9961181fc4927326d9ee3acfe43826000015442604051611d4a92919061385c565b60405180910390a15050611d5c6129bd565b50565b611d6882610d23565b611d718161295b565b611d7b8383612bb5565b505050565b7fcab5a0bfe0b79d2c4b1c2e02599fa044d115b7511f9659307cb4276950967709611daa8161295b565b611db261296f565b611e426006805480602002602001604051908101604052809291908181526020018280548015611e3757602002820191906000526020600020905b8160009054906101000a900473ffffffffffffffffffffffffffffffffffffffff1673ffffffffffffffffffffffffffffffffffffffff1681526020019060010190808311611ded575b505050505085612a45565b15611e82576040517f08c379a0000000000000000000000000000000000000000000000000000000008152600401611e7990613f2b565b60405180910390fd5b611f126006805480602002602001604051908101604052809291908181526020018280548015611f0757602002820191906000526020600020905b8160009054906101000a900473ffffffffffffffffffffffffffffffffffffffff1673ffffffffffffffffffffffffffffffffffffffff1681526020019060010190808311611ebd575b505050505084612a45565b15611f52576040517f08c379a0000000000000000000000000000000000000000000000000000000008152600401611f4990613f97565b60405180910390fd5b611fe26005805480602002602001604051908101604052809291908181526020018280548015611fd757602002820191906000526020600020905b8160009054906101000a900473ffffffffffffffffffffffffffffffffffffffff1673ffffffffffffffffffffffffffffffffffffffff1681526020019060010190808311611f8d575b505050505085612a45565b15612022576040517f08c379a000000000000000000000000000000000000000000000000000000000815260040161201990614003565b60405180910390fd5b6120b260058054806020026020016040519081016040528092919081815260200182805480156120a757602002820191906000526020600020905b8160009054906101000a900473ffffffffffffffffffffffffffffffffffffffff1673ffffffffffffffffffffffffffffffffffffffff168152602001906001019080831161205d575b505050505084612a45565b156120f2576040517f08c379a00000000000000000000000000000000000000000000000000000000081526004016120e99061406f565b60405180910390fd5b600060405180610100016040528060078054905081526020018673ffffffffffffffffffffffffffffffffffffffff1681526020018573ffffffffffffffffffffffffffffffffffffffff1681526020018481526020016000600481111561215d5761215c613003565b5b8152602001600360009054906101000a900460ff1660ff16815260200142815260200142815250905060078190806001815401808255809150506001900390600052602060002090600702016000909190919091506000820151816000015560208201518160010160006101000a81548173ffffffffffffffffffffffffffffffffffffffff021916908373ffffffffffffffffffffffffffffffffffffffff16021790555060408201518160020160006101000a81548173ffffffffffffffffffffffffffffffffffffffff021916908373ffffffffffffffffffffffffffffffffffffffff1602179055506060820151816003015560808201518160040160006101000a81548160ff0219169083600481111561227f5761227e613003565b5b021790555060a08201518160040160016101000a81548160ff021916908360ff16021790555060c0820151816005015560e0820151816006015550507f6dbcb9125fcd9866eb12f64a316c6060bf8d13e2c611153814791cfccb89a4c4816040516122ea9190613138565b60405180910390a1506122fb6129bd565b50505050565b7fcab5a0bfe0b79d2c4b1c2e02599fa044d115b7511f9659307cb427695096770961232b8161295b565b61233361296f565b600060078381548110612349576123486135bf565b5b906000526020600020906007020190506001600481111561236d5761236c613003565b5b8160040160009054906101000a900460ff16600481111561239157612390613003565b5b146123d1576040517f08c379a00000000000000000000000000000000000000000000000000000000081526004016123c890614101565b60405180910390fd5b60038160040160006101000a81548160ff021916908360048111156123f9576123f8613003565b5b0217905550428160060181905550600060648260040160019054906101000a900460ff1660ff16836003015461242f919061369a565b6124399190613723565b9050806004600082825461244d9190613754565b9250508190555060008260010160009054906101000a900473ffffffffffffffffffffffffffffffffffffffff1673ffffffffffffffffffffffffffffffffffffffff1683600301546040516124a2906137db565b60006040518083038185875af1925050503d80600081146124df576040519150601f19603f3d011682016040523d82523d6000602084013e6124e4565b606091505b5050905080612528576040517f08c379a000000000000000000000000000000000000000000000000000000000815260040161251f9061416d565b60405180910390fd5b7f912e30bea88d105f456ec136c1d19ce1050ad23b6a9111011bd16455150aed07854260405161255992919061385c565b60405180910390a150505061256c6129bd565b5050565b60045481565b606060068054806020026020016040519081016040528092919081815260200182805480156125fa57602002820191906000526020600020905b8160009054906101000a900473ffffffffffffffffffffffffffffffffffffffff1673ffffffffffffffffffffffffffffffffffffffff16815260200190600101908083116125b0575b5050505050905090565b61260c6129c7565b600073ffffffffffffffffffffffffffffffffffffffff168173ffffffffffffffffffffffffffffffffffffffff16141561267c576040517f08c379a0000000000000000000000000000000000000000000000000000000008152600401612673906141ff565b60405180910390fd5b61268581612c97565b50565b60606126ae8273ffffffffffffffffffffffffffffffffffffffff16601460ff166126b5565b9050919050565b6060600060028360026126c8919061369a565b6126d29190613754565b67ffffffffffffffff8111156126eb576126ea61421f565b5b6040519080825280601f01601f19166020018201604052801561271d5781602001600182028036833780820191505090505b5090507f300000000000000000000000000000000000000000000000000000000000000081600081518110612755576127546135bf565b5b60200101907effffffffffffffffffffffffffffffffffffffffffffffffffffffffffffff1916908160001a9053507f7800000000000000000000000000000000000000000000000000000000000000816001815181106127b9576127b86135bf565b5b60200101907effffffffffffffffffffffffffffffffffffffffffffffffffffffffffffff1916908160001a905350600060018460026127f9919061369a565b6128039190613754565b90505b60018111156128a3577f3031323334353637383961626364656600000000000000000000000000000000600f861660108110612845576128446135bf565b5b1a60f81b82828151811061285c5761285b6135bf565b5b60200101907effffffffffffffffffffffffffffffffffffffffffffffffffffffffffffff1916908160001a905350600485901c94508061289c9061424e565b9050612806565b50600084146128e7576040517f08c379a00000000000000000000000000000000000000000000000000000000081526004016128de906142c4565b60405180910390fd5b8091505092915050565b60007f01ffc9a7000000000000000000000000000000000000000000000000000000007bffffffffffffffffffffffffffffffffffffffffffffffffffffffff1916827bffffffffffffffffffffffffffffffffffffffffffffffffffffffff1916149050919050565b61296c81612967612bad565b612d5b565b50565b6002805414156129b4576040517f08c379a00000000000000000000000000000000000000000000000000000000081526004016129ab90614330565b60405180910390fd5b60028081905550565b6001600281905550565b6129cf612bad565b73ffffffffffffffffffffffffffffffffffffffff166129ed61189e565b73ffffffffffffffffffffffffffffffffffffffff1614612a43576040517f08c379a0000000000000000000000000000000000000000000000000000000008152600401612a3a9061439c565b60405180910390fd5b565b600080600090505b8351811015612ac1578273ffffffffffffffffffffffffffffffffffffffff16848281518110612a8057612a7f6135bf565b5b602002602001015173ffffffffffffffffffffffffffffffffffffffff161415612aae576001915050612ac7565b8080612ab990613d06565b915050612a4d565b50600090505b92915050565b612ad782826118c7565b612ba957600180600084815260200190815260200160002060000160008373ffffffffffffffffffffffffffffffffffffffff1673ffffffffffffffffffffffffffffffffffffffff16815260200190815260200160002060006101000a81548160ff021916908315150217905550612b4e612bad565b73ffffffffffffffffffffffffffffffffffffffff168173ffffffffffffffffffffffffffffffffffffffff16837f2f8788117e7eff1d82e926ec794901d17c78024a50270940304540a733656f0d60405160405180910390a45b5050565b600033905090565b612bbf82826118c7565b15612c935760006001600084815260200190815260200160002060000160008373ffffffffffffffffffffffffffffffffffffffff1673ffffffffffffffffffffffffffffffffffffffff16815260200190815260200160002060006101000a81548160ff021916908315150217905550612c38612bad565b73ffffffffffffffffffffffffffffffffffffffff168173ffffffffffffffffffffffffffffffffffffffff16837ff6391f5c32d9c69d2a47ea670b442974b53935d1edc7fd64eb21e047a839171b60405160405180910390a45b5050565b60008060009054906101000a900473ffffffffffffffffffffffffffffffffffffffff169050816000806101000a81548173ffffffffffffffffffffffffffffffffffffffff021916908373ffffffffffffffffffffffffffffffffffffffff1602179055508173ffffffffffffffffffffffffffffffffffffffff168173ffffffffffffffffffffffffffffffffffffffff167f8be0079c531659141344cd1fd0a4f28419497f9722a3daafe3b4186f6b6457e060405160405180910390a35050565b612d6582826118c7565b612ddc57612d7281612688565b612d808360001c60206126b5565b604051602001612d919291906144ce565b6040516020818303038152906040526040517f08c379a0000000000000000000000000000000000000000000000000000000008152600401612dd39190614552565b60405180910390fd5b5050565b60405180610100016040528060008152602001600073ffffffffffffffffffffffffffffffffffffffff168152602001600073ffffffffffffffffffffffffffffffffffffffff1681526020016000815260200160006004811115612e4857612e47613003565b5b8152602001600060ff16815260200160008152602001600081525090565b600080fd5b60007fffffffff0000000000000000000000000000000000000000000000000000000082169050919050565b612ea081612e6b565b8114612eab57600080fd5b50565b600081359050612ebd81612e97565b92915050565b600060208284031215612ed957612ed8612e66565b5b6000612ee784828501612eae565b91505092915050565b60008115159050919050565b612f0581612ef0565b82525050565b6000602082019050612f206000830184612efc565b92915050565b6000819050919050565b612f3981612f26565b8114612f4457600080fd5b50565b600081359050612f5681612f30565b92915050565b600060208284031215612f7257612f71612e66565b5b6000612f8084828501612f47565b91505092915050565b600073ffffffffffffffffffffffffffffffffffffffff82169050919050565b6000612fb482612f89565b9050919050565b612fc481612fa9565b82525050565b6000602082019050612fdf6000830184612fbb565b92915050565b612fee81612f26565b82525050565b612ffd81612fa9565b82525050565b7f4e487b7100000000000000000000000000000000000000000000000000000000600052602160045260246000fd5b6005811061304357613042613003565b5b50565b600081905061305482613032565b919050565b600061306482613046565b9050919050565b61307481613059565b82525050565b600060ff82169050919050565b6130908161307a565b82525050565b610100820160008201516130ad6000850182612fe5565b5060208201516130c06020850182612ff4565b5060408201516130d36040850182612ff4565b5060608201516130e66060850182612fe5565b5060808201516130f9608085018261306b565b5060a082015161310c60a0850182613087565b5060c082015161311f60c0850182612fe5565b5060e082015161313260e0850182612fe5565b50505050565b60006101008201905061314e6000830184613096565b92915050565b6000819050919050565b61316781613154565b82525050565b6000602082019050613182600083018461315e565b92915050565b61319181613154565b811461319c57600080fd5b50565b6000813590506131ae81613188565b92915050565b6000602082840312156131ca576131c9612e66565b5b60006131d88482850161319f565b91505092915050565b6131ea81612fa9565b81146131f557600080fd5b50565b600081359050613207816131e1565b92915050565b6000806040838503121561322457613223612e66565b5b60006132328582860161319f565b9250506020613243858286016131f8565b9150509250929050565b6132568161307a565b82525050565b6000602082019050613271600083018461324d565b92915050565b600081519050919050565b600082825260208201905092915050565b6000819050602082019050919050565b60006132af8383612ff4565b60208301905092915050565b6000602082019050919050565b60006132d382613277565b6132dd8185613282565b93506132e883613293565b8060005b8381101561331957815161330088826132a3565b975061330b836132bb565b9250506001810190506132ec565b5085935050505092915050565b6000602082019050818103600083015261334081846132c8565b905092915050565b60006020828403121561335e5761335d612e66565b5b600061336c848285016131f8565b91505092915050565b61337e8161307a565b811461338957600080fd5b50565b60008135905061339b81613375565b92915050565b6000602082840312156133b7576133b6612e66565b5b60006133c58482850161338c565b91505092915050565b600081519050919050565b600082825260208201905092915050565b6000819050602082019050919050565b610100820160008201516134116000850182612fe5565b5060208201516134246020850182612ff4565b5060408201516134376040850182612ff4565b50606082015161344a6060850182612fe5565b50608082015161345d608085018261306b565b5060a082015161347060a0850182613087565b5060c082015161348360c0850182612fe5565b5060e082015161349660e0850182612fe5565b50505050565b60006134a883836133fa565b6101008301905092915050565b6000602082019050919050565b60006134cd826133ce565b6134d781856133d9565b93506134e2836133ea565b8060005b838110156135135781516134fa888261349c565b9750613505836134b5565b9250506001810190506134e6565b5085935050505092915050565b6000602082019050818103600083015261353a81846134c2565b905092915050565b60008060006060848603121561355b5761355a612e66565b5b6000613569868287016131f8565b935050602061357a868287016131f8565b925050604061358b86828701612f47565b9150509250925092565b61359e81612f26565b82525050565b60006020820190506135b96000830184613595565b92915050565b7f4e487b7100000000000000000000000000000000000000000000000000000000600052603260045260246000fd5b600082825260208201905092915050565b7f457363726f772063616e6e6f7420626520617070726f76656400000000000000600082015250565b60006136356019836135ee565b9150613640826135ff565b602082019050919050565b6000602082019050818103600083015261366481613628565b9050919050565b7f4e487b7100000000000000000000000000000000000000000000000000000000600052601160045260246000fd5b60006136a582612f26565b91506136b083612f26565b9250817fffffffffffffffffffffffffffffffffffffffffffffffffffffffffffffffff04831182151516156136e9576136e861366b565b5b828202905092915050565b7f4e487b7100000000000000000000000000000000000000000000000000000000600052601260045260246000fd5b600061372e82612f26565b915061373983612f26565b925082613749576137486136f4565b5b828204905092915050565b600061375f82612f26565b915061376a83612f26565b9250827fffffffffffffffffffffffffffffffffffffffffffffffffffffffffffffffff0382111561379f5761379e61366b565b5b828201905092915050565b600081905092915050565b50565b60006137c56000836137aa565b91506137d0826137b5565b600082019050919050565b60006137e6826137b8565b9150819050919050565b7f4661696c656420746f2073656e642066756e647320746f2073656c6c65720000600082015250565b6000613826601e836135ee565b9150613831826137f0565b602082019050919050565b6000602082019050818103600083015261385581613819565b9050919050565b60006040820190506138716000830185613595565b61387e6020830184613595565b9392505050565b7f4e6f7420656e6f7567682045544820746f207769746864726177206f6e20636f60008201527f6e74726163740000000000000000000000000000000000000000000000000000602082015250565b60006138e16026836135ee565b91506138ec82613885565b604082019050919050565b60006020820190508181036000830152613910816138d4565b9050919050565b7f4e6f7420656e6f7567682045544820696e20776974686472617761626c65206660008201527f756e647300000000000000000000000000000000000000000000000000000000602082015250565b60006139736024836135ee565b915061397e82613917565b604082019050919050565b600060208201905081810360008301526139a281613966565b9050919050565b7f4661696c656420746f2077697468647261772066756e64730000000000000000600082015250565b60006139df6018836135ee565b91506139ea826139a9565b602082019050919050565b60006020820190508181036000830152613a0e816139d2565b9050919050565b6000613a2082612f26565b9150613a2b83612f26565b925082821015613a3e57613a3d61366b565b5b828203905092915050565b7f4f776e65722063616e27742061736b20666f72206265636f6d696e6720616e2060008201527f6167656e74000000000000000000000000000000000000000000000000000000602082015250565b6000613aa56025836135ee565b9150613ab082613a49565b604082019050919050565b60006020820190508181036000830152613ad481613a98565b9050919050565b7f4164647265737320697320616c726561647920696e20616e206167656e74207760008201527f686974656c697374000000000000000000000000000000000000000000000000602082015250565b6000613b376028836135ee565b9150613b4282613adb565b604082019050919050565b60006020820190508181036000830152613b6681613b2a565b9050919050565b7f4164647265737320697320616c726561647920616e206167656e740000000000600082015250565b6000613ba3601b836135ee565b9150613bae82613b6d565b602082019050919050565b60006020820190508181036000830152613bd281613b96565b9050919050565b7f416363657373436f6e74726f6c3a2063616e206f6e6c792072656e6f756e636560008201527f20726f6c657320666f722073656c660000000000000000000000000000000000602082015250565b6000613c35602f836135ee565b9150613c4082613bd9565b604082019050919050565b60006020820190508181036000830152613c6481613c28565b9050919050565b7f43616e277420617263686976652061637469766520457363726f770000000000600082015250565b6000613ca1601b836135ee565b9150613cac82613c6b565b602082019050919050565b60006020820190508181036000830152613cd081613c94565b9050919050565b7f4e487b7100000000000000000000000000000000000000000000000000000000600052603160045260246000fd5b6000613d1182612f26565b91507fffffffffffffffffffffffffffffffffffffffffffffffffffffffffffffffff821415613d4457613d4361366b565b5b600182019050919050565b7f4f6e6c792062757965722073686f756c64206465706f73697420696e746f206160008201527f6e20657363726f77000000000000000000000000000000000000000000000000602082015250565b6000613dab6028836135ee565b9150613db682613d4f565b604082019050919050565b60006020820190508181036000830152613dda81613d9e565b9050919050565b7f457363726f77206973206e6f7420616363657074696e67207061796d656e7473600082015250565b6000613e176020836135ee565b9150613e2282613de1565b602082019050919050565b60006020820190508181036000830152613e4681613e0a565b9050919050565b7f4465706f736974206d75737420626520657175616c20746f20616d6f756e742060008201527f696e636c7564696e6720746865206167656e7420666565000000000000000000602082015250565b6000613ea96037836135ee565b9150613eb482613e4d565b604082019050919050565b60006020820190508181036000830152613ed881613e9c565b9050919050565b7f427579657220697320616e206167656e74000000000000000000000000000000600082015250565b6000613f156011836135ee565b9150613f2082613edf565b602082019050919050565b60006020820190508181036000830152613f4481613f08565b9050919050565b7f53656c6c657220697320616e206167656e740000000000000000000000000000600082015250565b6000613f816012836135ee565b9150613f8c82613f4b565b602082019050919050565b60006020820190508181036000830152613fb081613f74565b9050919050565b7f427579657220697320696e20616e206167656e7420776169746c697374000000600082015250565b6000613fed601d836135ee565b9150613ff882613fb7565b602082019050919050565b6000602082019050818103600083015261401c81613fe0565b9050919050565b7f53656c6c657220697320696e20616e206167656e7420776169746c6973740000600082015250565b6000614059601e836135ee565b915061406482614023565b602082019050919050565b600060208201905081810360008301526140888161404c565b9050919050565b7f596f752063616e206f6e6c792063616e63656c206465706f736974656420457360008201527f63726f7700000000000000000000000000000000000000000000000000000000602082015250565b60006140eb6024836135ee565b91506140f68261408f565b604082019050919050565b6000602082019050818103600083015261411a816140de565b9050919050565b7f4661696c656420746f2073656e642066756e647320746f206275796572000000600082015250565b6000614157601d836135ee565b915061416282614121565b602082019050919050565b600060208201905081810360008301526141868161414a565b9050919050565b7f4f776e61626c653a206e6577206f776e657220697320746865207a65726f206160008201527f6464726573730000000000000000000000000000000000000000000000000000602082015250565b60006141e96026836135ee565b91506141f48261418d565b604082019050919050565b60006020820190508181036000830152614218816141dc565b9050919050565b7f4e487b7100000000000000000000000000000000000000000000000000000000600052604160045260246000fd5b600061425982612f26565b9150600082141561426d5761426c61366b565b5b600182039050919050565b7f537472696e67733a20686578206c656e67746820696e73756666696369656e74600082015250565b60006142ae6020836135ee565b91506142b982614278565b602082019050919050565b600060208201905081810360008301526142dd816142a1565b9050919050565b7f5265656e7472616e637947756172643a207265656e7472616e742063616c6c00600082015250565b600061431a601f836135ee565b9150614325826142e4565b602082019050919050565b600060208201905081810360008301526143498161430d565b9050919050565b7f4f776e61626c653a2063616c6c6572206973206e6f7420746865206f776e6572600082015250565b60006143866020836135ee565b915061439182614350565b602082019050919050565b600060208201905081810360008301526143b581614379565b9050919050565b600081905092915050565b7f416363657373436f6e74726f6c3a206163636f756e7420000000000000000000600082015250565b60006143fd6017836143bc565b9150614408826143c7565b601782019050919050565b600081519050919050565b60005b8381101561443c578082015181840152602081019050614421565b8381111561444b576000848401525b50505050565b600061445c82614413565b61446681856143bc565b935061447681856020860161441e565b80840191505092915050565b7f206973206d697373696e6720726f6c6520000000000000000000000000000000600082015250565b60006144b86011836143bc565b91506144c382614482565b601182019050919050565b60006144d9826143f0565b91506144e58285614451565b91506144f0826144ab565b91506144fc8284614451565b91508190509392505050565b6000601f19601f8301169050919050565b600061452482614413565b61452e81856135ee565b935061453e81856020860161441e565b61454781614508565b840191505092915050565b6000602082019050818103600083015261456c8184614519565b90509291505056fea264697066735822122060a1b74e299a5f233f430525440fa7d625bfd30430e6c118a563a19fde37491564736f6c63430008090033",
  "linkReferences": {},
  "deployedLinkReferences": {}
}